{
  "transactions": [
    {
      "hash": "0x222fa3e1fae45f077a209a865e294c281852f685161c91e95e0d03bf266aa50d",
      "transactionType": "CALL",
      "contractName": null,
      "contractAddress": "0x498581ff718922c3f8e6a244956af099b2652b2b",
      "function": "initialize((address,address,uint24,int24,address),uint160)",
      "arguments": [
        "(0x239091b1d3123e6d864BF86BB5905c34D858a9f8, 0x833589fCD6eDb6E08f4c7C32D4f71b54bdA02913, 3000, 200, 0xB4fe795526b02dfBe7dC5eA3368d47E3D39Dd0c8)",
        "787149618249685149291181"
      ],
      "transaction": {
        "from": "0xf39fd6e51aad88f6f4ce6ab8827279cfffb92266",
        "to": "0x498581ff718922c3f8e6a244956af099b2652b2b",
        "gas": "0x1d6ee",
        "value": "0x0",
        "input": "0x6276cbbe000000000000000000000000239091b1d3123e6d864bf86bb5905c34d858a9f8000000000000000000000000833589fcd6edb6e08f4c7c32d4f71b54bda029130000000000000000000000000000000000000000000000000000000000000bb800000000000000000000000000000000000000000000000000000000000000c8000000000000000000000000b4fe795526b02dfbe7dc5ea3368d47e3d39dd0c800000000000000000000000000000000000000000000a6af776004abf4e612ad",
        "nonce": "0x993a",
        "chainId": "0x2105"
      },
      "additionalContracts": [],
      "isFixedGasLimit": false
    },
    {
      "hash": "0x6486ba536d4c9e25100ba02f75e9b485969c277b20448bf7b651e5624ff6b736",
      "transactionType": "CALL",
      "contractName": null,
      "contractAddress": "0x239091b1d3123e6d864bf86bb5905c34d858a9f8",
      "function": "approve(address,uint256)",
      "arguments": [
        "0x000000000022D473030F116dDEE9F6B43aC78BA3",
        "10000000000000000000000000000"
      ],
      "transaction": {
        "from": "0xf39fd6e51aad88f6f4ce6ab8827279cfffb92266",
        "to": "0x239091b1d3123e6d864bf86bb5905c34d858a9f8",
        "gas": "0xfbe5",
        "value": "0x0",
        "input": "0x095ea7b3000000000000000000000000000000000022d473030f116ddee9f6b43ac78ba30000000000000000000000000000000000000000204fce5e3e25026110000000",
        "nonce": "0x993b",
        "chainId": "0x2105"
      },
      "additionalContracts": [],
      "isFixedGasLimit": false
    },
    {
      "hash": "0x331b732fbe58082d5046dea8d208e2b88530e8b44a9d9e13bbd0d26a10122a22",
      "transactionType": "CALL",
      "contractName": null,
      "contractAddress": "0x000000000022d473030f116ddee9f6b43ac78ba3",
      "function": "approve(address,address,uint160,uint48)",
      "arguments": [
        "0x239091b1d3123e6d864BF86BB5905c34D858a9f8",
        "0x7C5f5A4bBd8fD63184577525326123B519429bDc",
        "10000000000000000000000000000",
        "1792089928"
      ],
      "transaction": {
        "from": "0xf39fd6e51aad88f6f4ce6ab8827279cfffb92266",
        "to": "0x000000000022d473030f116ddee9f6b43ac78ba3",
        "gas": "0x10128",
        "value": "0x0",
        "input": "0x87517c45000000000000000000000000239091b1d3123e6d864bf86bb5905c34d858a9f80000000000000000000000007c5f5a4bbd8fd63184577525326123b519429bdc0000000000000000000000000000000000000000204fce5e3e25026110000000000000000000000000000000000000000000000000000000000000006ad11f48",
        "nonce": "0x993c",
        "chainId": "0x2105"
      },
      "additionalContracts": [],
      "isFixedGasLimit": false
    },
    {
      "hash": "0x33ac4e28a768ebd35a8382fd73a8b129cf5e937fe24584da0f3baeaa37166f95",
      "transactionType": "CALL",
      "contractName": "PositionManager",
      "contractAddress": "0x7c5f5a4bbd8fd63184577525326123b519429bdc",
      "function": "modifyLiquidities(bytes,uint256)",
      "arguments": [
        "0x00000000000000000000000000000000000000000000000000000000000000400000000000000000000000000000000000000000000000000000000000000080000000000000000000000000000000000000000000000000000000000000000602020202020d0000000000000000000000000000000000000000000000000000000000000000000000000000000000000000000000000000000000000000000600000000000000000000000000000000000000000000000000000000000000c000000000000000000000000000000000000000000000000000000000000002c000000000000000000000000000000000000000000000000000000000000004c000000000000000000000000000000000000000000000000000000000000006c000000000000000000000000000000000000000000000000000000000000008c00000000000000000000000000000000000000000000000000000000000000ac000000000000000000000000000000000000000000000000000000000000001e0000000000000000000000000239091b1d3123e6d864bf86bb5905c34d858a9f8000000000000000000000000833589fcd6edb6e08f4c7c32d4f71b54bda029130000000000000000000000000000000000000000000000000000000000000bb800000000000000000000000000000000000000000000000000000000000000c8000000000000000000000000b4fe795526b02dfbe7dc5ea3368d47e3d39dd0c8fffffffffffffffffffffffffffffffffffffffffffffffffffffffffffc7c00fffffffffffffffffffffffffffffffffffffffffffffffffffffffffffcbc100000000000000000000000000000000000000000000003c28a47f596c70838ea0000000000000000000000000000000000000000033b2e3c9fd0803ce80000000000000000000000000000000000000000000000000000000000000000000000000000000000000000000000f39fd6e51aad88f6f4ce6ab8827279cfffb92266000000000000000000000000000000000000000000000000000000000000018000000000000000000000000000000000000000000000000000000000000000400000000000000000000000000000000000000000000000000000000000000020000000000000000000000000000000000000000000000000000000000000000000000000000000000000000000000000000000000000000000000000000001e0000000000000000000000000239091b1d3123e6d864bf86bb5905c34d858a9f8000000000000000000000000833589fcd6edb6e08f4c7c32d4f71b54bda029130000000000000000000000000000000000000000000000000000000000000bb800000000000000000000000000000000000000000000000000000000000000c8000000000000000000000000b4fe795526b02dfbe7dc5ea3368d47e3d39dd0c8fffffffffffffffffffffffffffffffffffffffffffffffffffffffffffcbc10fffffffffffffffffffffffffffffffffffffffffffffffffffffffffffda288000000000000000000000000000000000000000000001933d2f0fcc3c4a81d9b00000000000000000000000000000000000000001027e72f1f128130880000000000000000000000000000000000000000000000000000000000000000000000000000000000000000000000f39fd6e51aad88f6f4ce6ab8827279cfffb92266000000000000000000000000000000000000000000000000000000000000018000000000000000000000000000000000000000000000000000000000000000400000000000000000000000000000000000000000000000000000000000000020000000000000000000000000000000000000000000000000000000000000000000000000000000000000000000000000000000000000000000000000000001e0000000000000000000000000239091b1d3123e6d864bf86bb5905c34d858a9f8000000000000000000000000833589fcd6edb6e08f4c7c32d4f71b54bda029130000000000000000000000000000000000000000000000000000000000000bb800000000000000000000000000000000000000000000000000000000000000c8000000000000000000000000b4fe795526b02dfbe7dc5ea3368d47e3d39dd0c8fffffffffffffffffffffffffffffffffffffffffffffffffffffffffffceaf0fffffffffffffffffffffffffffffffffffffffffffffffffffffffffffda288000000000000000000000000000000000000000000000e6e74e16047e486ad9c000000000000000000000000000000000000000004d8c55aefb8c05b5c0000000000000000000000000000000000000000000000000000000000000000000000000000000000000000000000f39fd6e51aad88f6f4ce6ab8827279cfffb92266000000000000000000000000000000000000000000000000000000000000018000000000000000000000000000000000000000000000000000000000000000400000000000000000000000000000000000000000000000000000000000000020000000000000000000000000000000000000000000000000000000000000000000000000000000000000000000000000000000000000000000000000000001e0000000000000000000000000239091b1d3123e6d864bf86bb5905c34d858a9f8000000000000000000000000833589fcd6edb6e08f4c7c32d4f71b54bda029130000000000000000000000000000000000000000000000000000000000000bb800000000000000000000000000000000000000000000000000000000000000c8000000000000000000000000b4fe795526b02dfbe7dc5ea3368d47e3d39dd0c8fffffffffffffffffffffffffffffffffffffffffffffffffffffffffffda288fffffffffffffffffffffffffffffffffffffffffffffffffffffffffffe2b4000000000000000000000000000000000000000000000dce275bfe1ba5750554b000000000000000000000000000000000000000006765c793fa10079d00000000000000000000000000000000000000000000000000000000000000000000000000000000000000000000000f39fd6e51aad88f6f4ce6ab8827279cfffb92266000000000000000000000000000000000000000000000000000000000000018000000000000000000000000000000000000000000000000000000000000000400000000000000000000000000000000000000000000000000000000000000020000000000000000000000000000000000000000000000000000000000000000000000000000000000000000000000000000000000000000000000000000001e0000000000000000000000000239091b1d3123e6d864bf86bb5905c34d858a9f8000000000000000000000000833589fcd6edb6e08f4c7c32d4f71b54bda029130000000000000000000000000000000000000000000000000000000000000bb800000000000000000000000000000000000000000000000000000000000000c8000000000000000000000000b4fe795526b02dfbe7dc5ea3368d47e3d39dd0c8fffffffffffffffffffffffffffffffffffffffffffffffffffffffffffdd938fffffffffffffffffffffffffffffffffffffffffffffffffffffffffffe2b40000000000000000000000000000000000000000000008d5555cda23fda1cf6a90000000000000000000000000000000000000000019d971e4fe8401e740000000000000000000000000000000000000000000000000000000000000000000000000000000000000000000000f39fd6e51aad88f6f4ce6ab8827279cfffb9226600000000000000000000000000000000000000000000000000000000000001800000000000000000000000000000000000000000000000000000000000000040000000000000000000000000000000000000000000000000000000000000002000000000000000000000000000000000000000000000000000000000000000000000000000000000000000000000000000000000000000000000000000000040000000000000000000000000239091b1d3123e6d864bf86bb5905c34d858a9f8000000000000000000000000833589fcd6edb6e08f4c7c32d4f71b54bda02913",
        "1792089928"
      ],
      "transaction": {
        "from": "0xf39fd6e51aad88f6f4ce6ab8827279cfffb92266",
        "to": "0x7c5f5a4bbd8fd63184577525326123b519429bdc",
        "gas": "0x13283c",
        "value": "0x0",
        "input": "0xdd46508f0000000000000000000000000000000000000000000000000000000000000040000000000000000000000000000000000000000000000000000000006ad11f480000000000000000000000000000000000000000000000000000000000000bc000000000000000000000000000000000000000000000000000000000000000400000000000000000000000000000000000000000000000000000000000000080000000000000000000000000000000000000000000000000000000000000000602020202020d0000000000000000000000000000000000000000000000000000000000000000000000000000000000000000000000000000000000000000000600000000000000000000000000000000000000000000000000000000000000c000000000000000000000000000000000000000000000000000000000000002c000000000000000000000000000000000000000000000000000000000000004c000000000000000000000000000000000000000000000000000000000000006c000000000000000000000000000000000000000000000000000000000000008c00000000000000000000000000000000000000000000000000000000000000ac000000000000000000000000000000000000000000000000000000000000001e0000000000000000000000000239091b1d3123e6d864bf86bb5905c34d858a9f8000000000000000000000000833589fcd6edb6e08f4c7c32d4f71b54bda029130000000000000000000000000000000000000000000000000000000000000bb800000000000000000000000000000000000000000000000000000000000000c8000000000000000000000000b4fe795526b02dfbe7dc5ea3368d47e3d39dd0c8fffffffffffffffffffffffffffffffffffffffffffffffffffffffffffc7c00fffffffffffffffffffffffffffffffffffffffffffffffffffffffffffcbc100000000000000000000000000000000000000000000003c28a47f596c70838ea0000000000000000000000000000000000000000033b2e3c9fd0803ce80000000000000000000000000000000000000000000000000000000000000000000000000000000000000000000000f39fd6e51aad88f6f4ce6ab8827279cfffb92266000000000000000000000000000000000000000000000000000000000000018000000000000000000000000000000000000000000000000000000000000000400000000000000000000000000000000000000000000000000000000000000020000000000000000000000000000000000000000000000000000000000000000000000000000000000000000000000000000000000000000000000000000001e0000000000000000000000000239091b1d3123e6d864bf86bb5905c34d858a9f8000000000000000000000000833589fcd6edb6e08f4c7c32d4f71b54bda029130000000000000000000000000000000000000000000000000000000000000bb800000000000000000000000000000000000000000000000000000000000000c8000000000000000000000000b4fe795526b02dfbe7dc5ea3368d47e3d39dd0c8fffffffffffffffffffffffffffffffffffffffffffffffffffffffffffcbc10fffffffffffffffffffffffffffffffffffffffffffffffffffffffffffda288000000000000000000000000000000000000000000001933d2f0fcc3c4a81d9b00000000000000000000000000000000000000001027e72f1f128130880000000000000000000000000000000000000000000000000000000000000000000000000000000000000000000000f39fd6e51aad88f6f4ce6ab8827279cfffb92266000000000000000000000000000000000000000000000000000000000000018000000000000000000000000000000000000000000000000000000000000000400000000000000000000000000000000000000000000000000000000000000020000000000000000000000000000000000000000000000000000000000000000000000000000000000000000000000000000000000000000000000000000001e0000000000000000000000000239091b1d3123e6d864bf86bb5905c34d858a9f8000000000000000000000000833589fcd6edb6e08f4c7c32d4f71b54bda029130000000000000000000000000000000000000000000000000000000000000bb800000000000000000000000000000000000000000000000000000000000000c8000000000000000000000000b4fe795526b02dfbe7dc5ea3368d47e3d39dd0c8fffffffffffffffffffffffffffffffffffffffffffffffffffffffffffceaf0fffffffffffffffffffffffffffffffffffffffffffffffffffffffffffda288000000000000000000000000000000000000000000000e6e74e16047e486ad9c000000000000000000000000000000000000000004d8c55aefb8c05b5c0000000000000000000000000000000000000000000000000000000000000000000000000000000000000000000000f39fd6e51aad88f6f4ce6ab8827279cfffb92266000000000000000000000000000000000000000000000000000000000000018000000000000000000000000000000000000000000000000000000000000000400000000000000000000000000000000000000000000000000000000000000020000000000000000000000000000000000000000000000000000000000000000000000000000000000000000000000000000000000000000000000000000001e0000000000000000000000000239091b1d3123e6d864bf86bb5905c34d858a9f8000000000000000000000000833589fcd6edb6e08f4c7c32d4f71b54bda029130000000000000000000000000000000000000000000000000000000000000bb800000000000000000000000000000000000000000000000000000000000000c8000000000000000000000000b4fe795526b02dfbe7dc5ea3368d47e3d39dd0c8fffffffffffffffffffffffffffffffffffffffffffffffffffffffffffda288fffffffffffffffffffffffffffffffffffffffffffffffffffffffffffe2b4000000000000000000000000000000000000000000000dce275bfe1ba5750554b000000000000000000000000000000000000000006765c793fa10079d00000000000000000000000000000000000000000000000000000000000000000000000000000000000000000000000f39fd6e51aad88f6f4ce6ab8827279cfffb92266000000000000000000000000000000000000000000000000000000000000018000000000000000000000000000000000000000000000000000000000000000400000000000000000000000000000000000000000000000000000000000000020000000000000000000000000000000000000000000000000000000000000000000000000000000000000000000000000000000000000000000000000000001e0000000000000000000000000239091b1d3123e6d864bf86bb5905c34d858a9f8000000000000000000000000833589fcd6edb6e08f4c7c32d4f71b54bda029130000000000000000000000000000000000000000000000000000000000000bb800000000000000000000000000000000000000000000000000000000000000c8000000000000000000000000b4fe795526b02dfbe7dc5ea3368d47e3d39dd0c8fffffffffffffffffffffffffffffffffffffffffffffffffffffffffffdd938fffffffffffffffffffffffffffffffffffffffffffffffffffffffffffe2b40000000000000000000000000000000000000000000008d5555cda23fda1cf6a90000000000000000000000000000000000000000019d971e4fe8401e740000000000000000000000000000000000000000000000000000000000000000000000000000000000000000000000f39fd6e51aad88f6f4ce6ab8827279cfffb9226600000000000000000000000000000000000000000000000000000000000001800000000000000000000000000000000000000000000000000000000000000040000000000000000000000000000000000000000000000000000000000000002000000000000000000000000000000000000000000000000000000000000000000000000000000000000000000000000000000000000000000000000000000040000000000000000000000000239091b1d3123e6d864bf86bb5905c34d858a9f8000000000000000000000000833589fcd6edb6e08f4c7c32d4f71b54bda02913",
        "nonce": "0x993d",
        "chainId": "0x2105"
      },
      "additionalContracts": [],
      "isFixedGasLimit": false
    }
  ],
  "receipts": [
    {
      "status": "0x1",
      "cumulativeGasUsed": "0x14201",
      "logs": [
        {
          "address": "0x498581ff718922c3f8e6a244956af099b2652b2b",
          "topics": [
            "0xdd466e674ea557f56295e2d0218a125ea4b4f0f6f3307b95f85e6110838d6438",
            "0x4b4280210647958f0667d76b31556bad8313e3b10393e6934ea6526ec76f898e",
            "0x000000000000000000000000239091b1d3123e6d864bf86bb5905c34d858a9f8",
            "0x000000000000000000000000833589fcd6edb6e08f4c7c32d4f71b54bda02913"
          ],
          "data": "0x0000000000000000000000000000000000000000000000000000000000000bb800000000000000000000000000000000000000000000000000000000000000c8000000000000000000000000b4fe795526b02dfbe7dc5ea3368d47e3d39dd0c800000000000000000000000000000000000000000000a6af776004abf4e612adfffffffffffffffffffffffffffffffffffffffffffffffffffffffffffc7c00",
          "blockHash": "0x99e5de1e3c6aa23950d8f1f5c66b05144f1cfe36de42a16221299b8f65e6c70a",
          "blockNumber": "0x232c763",
          "blockTimestamp": "0x68efec7d",
          "transactionHash": "0x222fa3e1fae45f077a209a865e294c281852f685161c91e95e0d03bf266aa50d",
          "transactionIndex": "0x0",
          "logIndex": "0x0",
          "removed": false
        },
        {
          "address": "0xb4fe795526b02dfbe7dc5ea3368d47e3d39dd0c8",
          "topics": [
            "0xe442c89f45f62a18bc8b8aa80fd0cbfa9fd2913f196a361a0953eec43fa236c5",
            "0x4b4280210647958f0667d76b31556bad8313e3b10393e6934ea6526ec76f898e"
          ],
          "data": "0x0000000000000000000000000000000000000000000000000000000000004e20",
          "blockHash": "0x99e5de1e3c6aa23950d8f1f5c66b05144f1cfe36de42a16221299b8f65e6c70a",
          "blockNumber": "0x232c763",
          "blockTimestamp": "0x68efec7d",
          "transactionHash": "0x222fa3e1fae45f077a209a865e294c281852f685161c91e95e0d03bf266aa50d",
          "transactionIndex": "0x0",
          "logIndex": "0x1",
          "removed": false
        }
      ],
      "logsBloom": "0x00000000000000000000000000000000000008000000000000000000000000000000000000000000000000000000000000000000000000000000000000000400000000048000040000000000000000000000000000004000000000000000000040000000000040000000000000000000010000000000000000000000000000000000000000004008400000000000000000000001000000000000000000200000000800000004000000000000000000800000004000000000000000000000000000000000000000000000000000000000000800000000000000000000000000001000000000000000000000000000000000000400000000000000000000000000",
      "type": "0x2",
      "transactionHash": "0x222fa3e1fae45f077a209a865e294c281852f685161c91e95e0d03bf266aa50d",
      "transactionIndex": "0x0",
      "blockHash": "0x99e5de1e3c6aa23950d8f1f5c66b05144f1cfe36de42a16221299b8f65e6c70a",
      "blockNumber": "0x232c763",
      "gasUsed": "0x14201",
      "effectiveGasPrice": "0x447faf",
      "blobGasPrice": "0x1",
      "from": "0xf39fd6e51aad88f6f4ce6ab8827279cfffb92266",
      "to": "0x498581ff718922c3f8e6a244956af099b2652b2b",
      "contractAddress": null
    },
    {
      "status": "0x1",
      "cumulativeGasUsed": "0xb65f",
      "logs": [
        {
          "address": "0x239091b1d3123e6d864bf86bb5905c34d858a9f8",
          "topics": [
            "0x8c5be1e5ebec7d5bd14f71427d1e84f3dd0314c0f7b2291e5b200ac8c7c3b925",
            "0x000000000000000000000000f39fd6e51aad88f6f4ce6ab8827279cfffb92266",
            "0x000000000000000000000000000000000022d473030f116ddee9f6b43ac78ba3"
          ],
          "data": "0x0000000000000000000000000000000000000000204fce5e3e25026110000000",
          "blockHash": "0xd6d82685819ebab8abb1ed7822549110d62cfea00529df6fc1c3c4af333ecd15",
          "blockNumber": "0x232c764",
          "blockTimestamp": "0x68efec7d",
          "transactionHash": "0x6486ba536d4c9e25100ba02f75e9b485969c277b20448bf7b651e5624ff6b736",
          "transactionIndex": "0x0",
          "logIndex": "0x0",
          "removed": false
        }
      ],
      "logsBloom": "0x00000000000000000000000000400000000000000000000000000000000000000000000000000000000000000000000000000000800000000000000000200000000000000000000000004000000000000000000000000800000000000000000000000000000000000000004100000000000000000000000000000000000000000000000000000000000000000000000000000000000000000000000000000000020000000000000000000000000000000000000000000000000000000000000000000000000000200000000000000000000000002000000000000000000000000010000000000000400000000000000000000000000000000000000000000000",
      "type": "0x2",
      "transactionHash": "0x6486ba536d4c9e25100ba02f75e9b485969c277b20448bf7b651e5624ff6b736",
      "transactionIndex": "0x0",
      "blockHash": "0xd6d82685819ebab8abb1ed7822549110d62cfea00529df6fc1c3c4af333ecd15",
      "blockNumber": "0x232c764",
      "gasUsed": "0xb65f",
      "effectiveGasPrice": "0x3dd9e1",
      "blobGasPrice": "0x1",
      "from": "0xf39fd6e51aad88f6f4ce6ab8827279cfffb92266",
      "to": "0x239091b1d3123e6d864bf86bb5905c34d858a9f8",
      "contractAddress": null
    },
    {
      "status": "0x1",
      "cumulativeGasUsed": "0xba2e",
      "logs": [
        {
          "address": "0x000000000022d473030f116ddee9f6b43ac78ba3",
          "topics": [
            "0xda9fa7c1b00402c17d0161b249b1ab8bbec047c5a52207b9c112deffd817036b",
            "0x000000000000000000000000f39fd6e51aad88f6f4ce6ab8827279cfffb92266",
            "0x000000000000000000000000239091b1d3123e6d864bf86bb5905c34d858a9f8",
            "0x0000000000000000000000007c5f5a4bbd8fd63184577525326123b519429bdc"
          ],
          "data": "0x0000000000000000000000000000000000000000204fce5e3e25026110000000000000000000000000000000000000000000000000000000000000006ad11f48",
          "blockHash": "0x5acdf9d71608fe0a317f591689753365d0f275636b082d48e0da0239c038556f",
          "blockNumber": "0x232c765",
          "blockTimestamp": "0x68efec7d",
          "transactionHash": "0x331b732fbe58082d5046dea8d208e2b88530e8b44a9d9e13bbd0d26a10122a22",
          "transactionIndex": "0x0",
          "logIndex": "0x0",
          "removed": false
        }
      ],
      "logsBloom": "0x00010000000000000000000000000000000008000000000000000000000000000000000000000000000000000000000000000000000000000000000000082000000000000000000000000000000000000000000000000000000000000000000000000000000000000000000100000000000000000000000000000000000000000020000000000000000000000000000000000000000000000000000000000000000800000004000000000000000000000000000000000000000000080000000200000000000000200000000000000000000000002000000040000000000000000000000000000000000000000000000000000000002000000000000000000400",
      "type": "0x2",
      "transactionHash": "0x331b732fbe58082d5046dea8d208e2b88530e8b44a9d9e13bbd0d26a10122a22",
      "transactionIndex": "0x0",
      "blockHash": "0x5acdf9d71608fe0a317f591689753365d0f275636b082d48e0da0239c038556f",
      "blockNumber": "0x232c765",
      "gasUsed": "0xba2e",
      "effectiveGasPrice": "0x3807db",
      "blobGasPrice": "0x1",
      "from": "0xf39fd6e51aad88f6f4ce6ab8827279cfffb92266",
      "to": "0x000000000022d473030f116ddee9f6b43ac78ba3",
      "contractAddress": null
    },
    {
      "status": "0x1",
      "cumulativeGasUsed": "0xe98c2",
      "logs": [
        {
          "address": "0x7c5f5a4bbd8fd63184577525326123b519429bdc",
          "topics": [
            "0xddf252ad1be2c89b69c2b068fc378daa952ba7f163c4a11628f55a4df523b3ef",
            "0x0000000000000000000000000000000000000000000000000000000000000000",
            "0x000000000000000000000000f39fd6e51aad88f6f4ce6ab8827279cfffb92266",
            "0x000000000000000000000000000000000000000000000000000000000005f0e3"
          ],
          "data": "0x",
          "blockHash": "0x5acdf9d71608fe0a317f591689753365d0f275636b082d48e0da0239c038556f",
          "blockNumber": "0x232c765",
          "blockTimestamp": "0x68efec7d",
          "transactionHash": "0x33ac4e28a768ebd35a8382fd73a8b129cf5e937fe24584da0f3baeaa37166f95",
          "transactionIndex": "0x1",
          "logIndex": "0x1",
          "removed": false
        },
        {
          "address": "0x498581ff718922c3f8e6a244956af099b2652b2b",
          "topics": [
            "0xf208f4912782fd25c7f114ca3723a2d5dd6f3bcc3ac8db5af63baa85f711d5ec",
            "0x4b4280210647958f0667d76b31556bad8313e3b10393e6934ea6526ec76f898e",
            "0x0000000000000000000000007c5f5a4bbd8fd63184577525326123b519429bdc"
          ],
          "data": "0xfffffffffffffffffffffffffffffffffffffffffffffffffffffffffffc7c00fffffffffffffffffffffffffffffffffffffffffffffffffffffffffffcbc100000000000000000000000000000000000000000000003c28a47f596c70838ea000000000000000000000000000000000000000000000000000000000005f0e3",
          "blockHash": "0x5acdf9d71608fe0a317f591689753365d0f275636b082d48e0da0239c038556f",
          "blockNumber": "0x232c765",
          "blockTimestamp": "0x68efec7d",
          "transactionHash": "0x33ac4e28a768ebd35a8382fd73a8b129cf5e937fe24584da0f3baeaa37166f95",
          "transactionIndex": "0x1",
          "logIndex": "0x2",
          "removed": false
        },
        {
          "address": "0x7c5f5a4bbd8fd63184577525326123b519429bdc",
          "topics": [
            "0xddf252ad1be2c89b69c2b068fc378daa952ba7f163c4a11628f55a4df523b3ef",
            "0x0000000000000000000000000000000000000000000000000000000000000000",
            "0x000000000000000000000000f39fd6e51aad88f6f4ce6ab8827279cfffb92266",
            "0x000000000000000000000000000000000000000000000000000000000005f0e4"
          ],
          "data": "0x",
          "blockHash": "0x5acdf9d71608fe0a317f591689753365d0f275636b082d48e0da0239c038556f",
          "blockNumber": "0x232c765",
          "blockTimestamp": "0x68efec7d",
          "transactionHash": "0x33ac4e28a768ebd35a8382fd73a8b129cf5e937fe24584da0f3baeaa37166f95",
          "transactionIndex": "0x1",
          "logIndex": "0x3",
          "removed": false
        },
        {
          "address": "0x498581ff718922c3f8e6a244956af099b2652b2b",
          "topics": [
            "0xf208f4912782fd25c7f114ca3723a2d5dd6f3bcc3ac8db5af63baa85f711d5ec",
            "0x4b4280210647958f0667d76b31556bad8313e3b10393e6934ea6526ec76f898e",
            "0x0000000000000000000000007c5f5a4bbd8fd63184577525326123b519429bdc"
          ],
          "data": "0xfffffffffffffffffffffffffffffffffffffffffffffffffffffffffffcbc10fffffffffffffffffffffffffffffffffffffffffffffffffffffffffffda288000000000000000000000000000000000000000000001933d2f0fcc3c4a81d9b000000000000000000000000000000000000000000000000000000000005f0e4",
          "blockHash": "0x5acdf9d71608fe0a317f591689753365d0f275636b082d48e0da0239c038556f",
          "blockNumber": "0x232c765",
          "blockTimestamp": "0x68efec7d",
          "transactionHash": "0x33ac4e28a768ebd35a8382fd73a8b129cf5e937fe24584da0f3baeaa37166f95",
          "transactionIndex": "0x1",
          "logIndex": "0x4",
          "removed": false
        },
        {
          "address": "0x7c5f5a4bbd8fd63184577525326123b519429bdc",
          "topics": [
            "0xddf252ad1be2c89b69c2b068fc378daa952ba7f163c4a11628f55a4df523b3ef",
            "0x0000000000000000000000000000000000000000000000000000000000000000",
            "0x000000000000000000000000f39fd6e51aad88f6f4ce6ab8827279cfffb92266",
            "0x000000000000000000000000000000000000000000000000000000000005f0e5"
          ],
          "data": "0x",
          "blockHash": "0x5acdf9d71608fe0a317f591689753365d0f275636b082d48e0da0239c038556f",
          "blockNumber": "0x232c765",
          "blockTimestamp": "0x68efec7d",
          "transactionHash": "0x33ac4e28a768ebd35a8382fd73a8b129cf5e937fe24584da0f3baeaa37166f95",
          "transactionIndex": "0x1",
          "logIndex": "0x5",
          "removed": false
        },
        {
          "address": "0x498581ff718922c3f8e6a244956af099b2652b2b",
          "topics": [
            "0xf208f4912782fd25c7f114ca3723a2d5dd6f3bcc3ac8db5af63baa85f711d5ec",
            "0x4b4280210647958f0667d76b31556bad8313e3b10393e6934ea6526ec76f898e",
            "0x0000000000000000000000007c5f5a4bbd8fd63184577525326123b519429bdc"
          ],
          "data": "0xfffffffffffffffffffffffffffffffffffffffffffffffffffffffffffceaf0fffffffffffffffffffffffffffffffffffffffffffffffffffffffffffda288000000000000000000000000000000000000000000000e6e74e16047e486ad9c000000000000000000000000000000000000000000000000000000000005f0e5",
          "blockHash": "0x5acdf9d71608fe0a317f591689753365d0f275636b082d48e0da0239c038556f",
          "blockNumber": "0x232c765",
          "blockTimestamp": "0x68efec7d",
          "transactionHash": "0x33ac4e28a768ebd35a8382fd73a8b129cf5e937fe24584da0f3baeaa37166f95",
          "transactionIndex": "0x1",
          "logIndex": "0x6",
          "removed": false
        },
        {
          "address": "0x7c5f5a4bbd8fd63184577525326123b519429bdc",
          "topics": [
            "0xddf252ad1be2c89b69c2b068fc378daa952ba7f163c4a11628f55a4df523b3ef",
            "0x0000000000000000000000000000000000000000000000000000000000000000",
            "0x000000000000000000000000f39fd6e51aad88f6f4ce6ab8827279cfffb92266",
            "0x000000000000000000000000000000000000000000000000000000000005f0e6"
          ],
          "data": "0x",
          "blockHash": "0x5acdf9d71608fe0a317f591689753365d0f275636b082d48e0da0239c038556f",
          "blockNumber": "0x232c765",
          "blockTimestamp": "0x68efec7d",
          "transactionHash": "0x33ac4e28a768ebd35a8382fd73a8b129cf5e937fe24584da0f3baeaa37166f95",
          "transactionIndex": "0x1",
          "logIndex": "0x7",
          "removed": false
        },
        {
          "address": "0x498581ff718922c3f8e6a244956af099b2652b2b",
          "topics": [
            "0xf208f4912782fd25c7f114ca3723a2d5dd6f3bcc3ac8db5af63baa85f711d5ec",
            "0x4b4280210647958f0667d76b31556bad8313e3b10393e6934ea6526ec76f898e",
            "0x0000000000000000000000007c5f5a4bbd8fd63184577525326123b519429bdc"
          ],
          "data": "0xfffffffffffffffffffffffffffffffffffffffffffffffffffffffffffda288fffffffffffffffffffffffffffffffffffffffffffffffffffffffffffe2b4000000000000000000000000000000000000000000000dce275bfe1ba5750554b000000000000000000000000000000000000000000000000000000000005f0e6",
          "blockHash": "0x5acdf9d71608fe0a317f591689753365d0f275636b082d48e0da0239c038556f",
          "blockNumber": "0x232c765",
          "blockTimestamp": "0x68efec7d",
          "transactionHash": "0x33ac4e28a768ebd35a8382fd73a8b129cf5e937fe24584da0f3baeaa37166f95",
          "transactionIndex": "0x1",
          "logIndex": "0x8",
          "removed": false
        },
        {
          "address": "0x7c5f5a4bbd8fd63184577525326123b519429bdc",
          "topics": [
            "0xddf252ad1be2c89b69c2b068fc378daa952ba7f163c4a11628f55a4df523b3ef",
            "0x0000000000000000000000000000000000000000000000000000000000000000",
            "0x000000000000000000000000f39fd6e51aad88f6f4ce6ab8827279cfffb92266",
            "0x000000000000000000000000000000000000000000000000000000000005f0e7"
          ],
          "data": "0x",
          "blockHash": "0x5acdf9d71608fe0a317f591689753365d0f275636b082d48e0da0239c038556f",
          "blockNumber": "0x232c765",
          "blockTimestamp": "0x68efec7d",
          "transactionHash": "0x33ac4e28a768ebd35a8382fd73a8b129cf5e937fe24584da0f3baeaa37166f95",
          "transactionIndex": "0x1",
          "logIndex": "0x9",
          "removed": false
        },
        {
          "address": "0x498581ff718922c3f8e6a244956af099b2652b2b",
          "topics": [
            "0xf208f4912782fd25c7f114ca3723a2d5dd6f3bcc3ac8db5af63baa85f711d5ec",
            "0x4b4280210647958f0667d76b31556bad8313e3b10393e6934ea6526ec76f898e",
            "0x0000000000000000000000007c5f5a4bbd8fd63184577525326123b519429bdc"
          ],
          "data": "0xfffffffffffffffffffffffffffffffffffffffffffffffffffffffffffdd938fffffffffffffffffffffffffffffffffffffffffffffffffffffffffffe2b40000000000000000000000000000000000000000000008d5555cda23fda1cf6a9000000000000000000000000000000000000000000000000000000000005f0e7",
          "blockHash": "0x5acdf9d71608fe0a317f591689753365d0f275636b082d48e0da0239c038556f",
          "blockNumber": "0x232c765",
          "blockTimestamp": "0x68efec7d",
          "transactionHash": "0x33ac4e28a768ebd35a8382fd73a8b129cf5e937fe24584da0f3baeaa37166f95",
          "transactionIndex": "0x1",
          "logIndex": "0xa",
          "removed": false
        },
        {
          "address": "0x239091b1d3123e6d864bf86bb5905c34d858a9f8",
          "topics": [
            "0xddf252ad1be2c89b69c2b068fc378daa952ba7f163c4a11628f55a4df523b3ef",
            "0x000000000000000000000000f39fd6e51aad88f6f4ce6ab8827279cfffb92266",
            "0x000000000000000000000000498581ff718922c3f8e6a244956af099b2652b2b"
          ],
          "data": "0x0000000000000000000000000000000000000000204fce5e3e2502610f29c892",
          "blockHash": "0x5acdf9d71608fe0a317f591689753365d0f275636b082d48e0da0239c038556f",
          "blockNumber": "0x232c765",
          "blockTimestamp": "0x68efec7d",
          "transactionHash": "0x33ac4e28a768ebd35a8382fd73a8b129cf5e937fe24584da0f3baeaa37166f95",
          "transactionIndex": "0x1",
          "logIndex": "0xb",
          "removed": false
        }
      ],
      "logsBloom": "0x00000000000000000000000000404000000000000000000000000000000000000020000000000000000001000000000000000000000000000000000000002400000000000000000000000008000000000000000400000000000000001002000000080000020000000000004100000800040000000000000000000810000000000000000001004000000002000000000000000000000000000000000400000000004004000000000008000000000000840000004000000000000000000020000200000402000001200000000000020000000800002000000000000000000020000000000000000000400000010000000004802400002000000000000000000000",
      "type": "0x2",
      "transactionHash": "0x33ac4e28a768ebd35a8382fd73a8b129cf5e937fe24584da0f3baeaa37166f95",
      "transactionIndex": "0x1",
      "blockHash": "0x5acdf9d71608fe0a317f591689753365d0f275636b082d48e0da0239c038556f",
      "blockNumber": "0x232c765",
      "gasUsed": "0xdde94",
      "effectiveGasPrice": "0x3807db",
      "blobGasPrice": "0x1",
      "from": "0xf39fd6e51aad88f6f4ce6ab8827279cfffb92266",
      "to": "0x7c5f5a4bbd8fd63184577525326123b519429bdc",
      "contractAddress": null
    }
  ],
  "libraries": [],
  "pending": [],
  "returns": {},
  "timestamp": 1760554111,
  "chain": 8453,
  "commit": "258e4d1"
}