{
  "transactions": [
    {
      "hash": "0xb2176d3d935b59c727dc73cc73f41d8262565c1e711e7eba56be3c94da1201d6",
      "transactionType": "CALL",
      "contractName": null,
      "contractAddress": "0x498581ff718922c3f8e6a244956af099b2652b2b",
      "function": "initialize((address,address,uint24,int24,address),uint160)",
      "arguments": [
        "(0x294fBd8037c24a0fEE0F4CB4D939D40518a4b294, 0xC0f028167B0E46a454A02AB08f1CAff4D48f2077, 0, 200, 0xA7CeD7AAe25396D9EA23c82352391805374600C8)",
        "787149618249685149291181"
      ],
      "transaction": {
        "from": "0x2226ae701ecf96e27373e896f3ddbe8a9a676a30",
        "to": "0x498581ff718922c3f8e6a244956af099b2652b2b",
        "gas": "0x11849",
        "value": "0x0",
        "input": "0x6276cbbe000000000000000000000000294fbd8037c24a0fee0f4cb4d939d40518a4b294000000000000000000000000c0f028167b0e46a454a02ab08f1caff4d48f2077000000000000000000000000000000000000000000000000000000000000000000000000000000000000000000000000000000000000000000000000000000c8000000000000000000000000a7ced7aae25396d9ea23c82352391805374600c800000000000000000000000000000000000000000000a6af776004abf4e612ad",
        "nonce": "0x31",
        "chainId": "0x2105"
      },
      "additionalContracts": [],
      "isFixedGasLimit": false
    },
    {
      "hash": "0x410b2cf5104d288680cb35965e210a08829b83f8c77e20b42cc7a4122c157028",
      "transactionType": "CALL",
      "contractName": null,
      "contractAddress": "0x294fbd8037c24a0fee0f4cb4d939d40518a4b294",
      "function": "approve(address,uint256)",
      "arguments": [
        "0x000000000022D473030F116dDEE9F6B43aC78BA3",
        "10000000000000000000000000000"
      ],
      "transaction": {
        "from": "0x2226ae701ecf96e27373e896f3ddbe8a9a676a30",
        "to": "0x294fbd8037c24a0fee0f4cb4d939d40518a4b294",
        "gas": "0xfbe5",
        "value": "0x0",
        "input": "0x095ea7b3000000000000000000000000000000000022d473030f116ddee9f6b43ac78ba30000000000000000000000000000000000000000204fce5e3e25026110000000",
        "nonce": "0x32",
        "chainId": "0x2105"
      },
      "additionalContracts": [],
      "isFixedGasLimit": false
    },
    {
      "hash": "0xbca5ea46441c6988b6626bc6441481b1880ccd843e463ac68bb2d4094ff2d461",
      "transactionType": "CALL",
      "contractName": null,
      "contractAddress": "0x000000000022d473030f116ddee9f6b43ac78ba3",
      "function": "approve(address,address,uint160,uint48)",
      "arguments": [
        "0x294fBd8037c24a0fEE0F4CB4D939D40518a4b294",
        "0x7C5f5A4bBd8fD63184577525326123B519429bDc",
        "10000000000000000000000000000",
        "1792461173"
      ],
      "transaction": {
        "from": "0x2226ae701ecf96e27373e896f3ddbe8a9a676a30",
        "to": "0x000000000022d473030f116ddee9f6b43ac78ba3",
        "gas": "0x10128",
        "value": "0x0",
        "input": "0x87517c45000000000000000000000000294fbd8037c24a0fee0f4cb4d939d40518a4b2940000000000000000000000007c5f5a4bbd8fd63184577525326123b519429bdc0000000000000000000000000000000000000000204fce5e3e25026110000000000000000000000000000000000000000000000000000000000000006ad6c975",
        "nonce": "0x33",
        "chainId": "0x2105"
      },
      "additionalContracts": [],
      "isFixedGasLimit": false
    },
    {
      "hash": "0xed2ea81edd78a9e08211e4742bb70caeced53f3d1f5aab1953442f32b4c081f7",
      "transactionType": "CALL",
      "contractName": "PositionManager",
      "contractAddress": "0x7c5f5a4bbd8fd63184577525326123b519429bdc",
      "function": "modifyLiquidities(bytes,uint256)",
      "arguments": [
        "0x00000000000000000000000000000000000000000000000000000000000000400000000000000000000000000000000000000000000000000000000000000080000000000000000000000000000000000000000000000000000000000000000602020202020d0000000000000000000000000000000000000000000000000000000000000000000000000000000000000000000000000000000000000000000600000000000000000000000000000000000000000000000000000000000000c000000000000000000000000000000000000000000000000000000000000002c000000000000000000000000000000000000000000000000000000000000004c000000000000000000000000000000000000000000000000000000000000006c000000000000000000000000000000000000000000000000000000000000008c00000000000000000000000000000000000000000000000000000000000000ac000000000000000000000000000000000000000000000000000000000000001e0000000000000000000000000294fbd8037c24a0fee0f4cb4d939d40518a4b294000000000000000000000000c0f028167b0e46a454a02ab08f1caff4d48f2077000000000000000000000000000000000000000000000000000000000000000000000000000000000000000000000000000000000000000000000000000000c8000000000000000000000000a7ced7aae25396d9ea23c82352391805374600c8fffffffffffffffffffffffffffffffffffffffffffffffffffffffffffc7c00fffffffffffffffffffffffffffffffffffffffffffffffffffffffffffcbc100000000000000000000000000000000000000000000003c28a47f596c70838ea0000000000000000000000000000000000000000033b2e3c9fd0803ce800000000000000000000000000000000000000000000000000000000000000000000000000000000000000000000002226ae701ecf96e27373e896f3ddbe8a9a676a30000000000000000000000000000000000000000000000000000000000000018000000000000000000000000000000000000000000000000000000000000000400000000000000000000000000000000000000000000000000000000000000020000000000000000000000000000000000000000000000000000000000000000000000000000000000000000000000000000000000000000000000000000001e0000000000000000000000000294fbd8037c24a0fee0f4cb4d939d40518a4b294000000000000000000000000c0f028167b0e46a454a02ab08f1caff4d48f2077000000000000000000000000000000000000000000000000000000000000000000000000000000000000000000000000000000000000000000000000000000c8000000000000000000000000a7ced7aae25396d9ea23c82352391805374600c8fffffffffffffffffffffffffffffffffffffffffffffffffffffffffffcbc10fffffffffffffffffffffffffffffffffffffffffffffffffffffffffffda288000000000000000000000000000000000000000000001933d2f0fcc3c4a81d9b00000000000000000000000000000000000000001027e72f1f1281308800000000000000000000000000000000000000000000000000000000000000000000000000000000000000000000002226ae701ecf96e27373e896f3ddbe8a9a676a30000000000000000000000000000000000000000000000000000000000000018000000000000000000000000000000000000000000000000000000000000000400000000000000000000000000000000000000000000000000000000000000020000000000000000000000000000000000000000000000000000000000000000000000000000000000000000000000000000000000000000000000000000001e0000000000000000000000000294fbd8037c24a0fee0f4cb4d939d40518a4b294000000000000000000000000c0f028167b0e46a454a02ab08f1caff4d48f2077000000000000000000000000000000000000000000000000000000000000000000000000000000000000000000000000000000000000000000000000000000c8000000000000000000000000a7ced7aae25396d9ea23c82352391805374600c8fffffffffffffffffffffffffffffffffffffffffffffffffffffffffffceaf0fffffffffffffffffffffffffffffffffffffffffffffffffffffffffffda288000000000000000000000000000000000000000000000e6e74e16047e486ad9c000000000000000000000000000000000000000004d8c55aefb8c05b5c00000000000000000000000000000000000000000000000000000000000000000000000000000000000000000000002226ae701ecf96e27373e896f3ddbe8a9a676a30000000000000000000000000000000000000000000000000000000000000018000000000000000000000000000000000000000000000000000000000000000400000000000000000000000000000000000000000000000000000000000000020000000000000000000000000000000000000000000000000000000000000000000000000000000000000000000000000000000000000000000000000000001e0000000000000000000000000294fbd8037c24a0fee0f4cb4d939d40518a4b294000000000000000000000000c0f028167b0e46a454a02ab08f1caff4d48f2077000000000000000000000000000000000000000000000000000000000000000000000000000000000000000000000000000000000000000000000000000000c8000000000000000000000000a7ced7aae25396d9ea23c82352391805374600c8fffffffffffffffffffffffffffffffffffffffffffffffffffffffffffda288fffffffffffffffffffffffffffffffffffffffffffffffffffffffffffe2b4000000000000000000000000000000000000000000000dce275bfe1ba5750554b000000000000000000000000000000000000000006765c793fa10079d000000000000000000000000000000000000000000000000000000000000000000000000000000000000000000000002226ae701ecf96e27373e896f3ddbe8a9a676a30000000000000000000000000000000000000000000000000000000000000018000000000000000000000000000000000000000000000000000000000000000400000000000000000000000000000000000000000000000000000000000000020000000000000000000000000000000000000000000000000000000000000000000000000000000000000000000000000000000000000000000000000000001e0000000000000000000000000294fbd8037c24a0fee0f4cb4d939d40518a4b294000000000000000000000000c0f028167b0e46a454a02ab08f1caff4d48f2077000000000000000000000000000000000000000000000000000000000000000000000000000000000000000000000000000000000000000000000000000000c8000000000000000000000000a7ced7aae25396d9ea23c82352391805374600c8fffffffffffffffffffffffffffffffffffffffffffffffffffffffffffdd938fffffffffffffffffffffffffffffffffffffffffffffffffffffffffffe2b40000000000000000000000000000000000000000000008d5555cda23fda1cf6a90000000000000000000000000000000000000000019d971e4fe8401e7400000000000000000000000000000000000000000000000000000000000000000000000000000000000000000000002226ae701ecf96e27373e896f3ddbe8a9a676a3000000000000000000000000000000000000000000000000000000000000001800000000000000000000000000000000000000000000000000000000000000040000000000000000000000000000000000000000000000000000000000000002000000000000000000000000000000000000000000000000000000000000000000000000000000000000000000000000000000000000000000000000000000040000000000000000000000000294fbd8037c24a0fee0f4cb4d939d40518a4b294000000000000000000000000c0f028167b0e46a454a02ab08f1caff4d48f2077",
        "1792461173"
      ],
      "transaction": {
        "from": "0x2226ae701ecf96e27373e896f3ddbe8a9a676a30",
        "to": "0x7c5f5a4bbd8fd63184577525326123b519429bdc",
        "gas": "0x12cb00",
        "value": "0x0",
        "input": "0xdd46508f0000000000000000000000000000000000000000000000000000000000000040000000000000000000000000000000000000000000000000000000006ad6c9750000000000000000000000000000000000000000000000000000000000000bc000000000000000000000000000000000000000000000000000000000000000400000000000000000000000000000000000000000000000000000000000000080000000000000000000000000000000000000000000000000000000000000000602020202020d0000000000000000000000000000000000000000000000000000000000000000000000000000000000000000000000000000000000000000000600000000000000000000000000000000000000000000000000000000000000c000000000000000000000000000000000000000000000000000000000000002c000000000000000000000000000000000000000000000000000000000000004c000000000000000000000000000000000000000000000000000000000000006c000000000000000000000000000000000000000000000000000000000000008c00000000000000000000000000000000000000000000000000000000000000ac000000000000000000000000000000000000000000000000000000000000001e0000000000000000000000000294fbd8037c24a0fee0f4cb4d939d40518a4b294000000000000000000000000c0f028167b0e46a454a02ab08f1caff4d48f2077000000000000000000000000000000000000000000000000000000000000000000000000000000000000000000000000000000000000000000000000000000c8000000000000000000000000a7ced7aae25396d9ea23c82352391805374600c8fffffffffffffffffffffffffffffffffffffffffffffffffffffffffffc7c00fffffffffffffffffffffffffffffffffffffffffffffffffffffffffffcbc100000000000000000000000000000000000000000000003c28a47f596c70838ea0000000000000000000000000000000000000000033b2e3c9fd0803ce800000000000000000000000000000000000000000000000000000000000000000000000000000000000000000000002226ae701ecf96e27373e896f3ddbe8a9a676a30000000000000000000000000000000000000000000000000000000000000018000000000000000000000000000000000000000000000000000000000000000400000000000000000000000000000000000000000000000000000000000000020000000000000000000000000000000000000000000000000000000000000000000000000000000000000000000000000000000000000000000000000000001e0000000000000000000000000294fbd8037c24a0fee0f4cb4d939d40518a4b294000000000000000000000000c0f028167b0e46a454a02ab08f1caff4d48f2077000000000000000000000000000000000000000000000000000000000000000000000000000000000000000000000000000000000000000000000000000000c8000000000000000000000000a7ced7aae25396d9ea23c82352391805374600c8fffffffffffffffffffffffffffffffffffffffffffffffffffffffffffcbc10fffffffffffffffffffffffffffffffffffffffffffffffffffffffffffda288000000000000000000000000000000000000000000001933d2f0fcc3c4a81d9b00000000000000000000000000000000000000001027e72f1f1281308800000000000000000000000000000000000000000000000000000000000000000000000000000000000000000000002226ae701ecf96e27373e896f3ddbe8a9a676a30000000000000000000000000000000000000000000000000000000000000018000000000000000000000000000000000000000000000000000000000000000400000000000000000000000000000000000000000000000000000000000000020000000000000000000000000000000000000000000000000000000000000000000000000000000000000000000000000000000000000000000000000000001e0000000000000000000000000294fbd8037c24a0fee0f4cb4d939d40518a4b294000000000000000000000000c0f028167b0e46a454a02ab08f1caff4d48f2077000000000000000000000000000000000000000000000000000000000000000000000000000000000000000000000000000000000000000000000000000000c8000000000000000000000000a7ced7aae25396d9ea23c82352391805374600c8fffffffffffffffffffffffffffffffffffffffffffffffffffffffffffceaf0fffffffffffffffffffffffffffffffffffffffffffffffffffffffffffda288000000000000000000000000000000000000000000000e6e74e16047e486ad9c000000000000000000000000000000000000000004d8c55aefb8c05b5c00000000000000000000000000000000000000000000000000000000000000000000000000000000000000000000002226ae701ecf96e27373e896f3ddbe8a9a676a30000000000000000000000000000000000000000000000000000000000000018000000000000000000000000000000000000000000000000000000000000000400000000000000000000000000000000000000000000000000000000000000020000000000000000000000000000000000000000000000000000000000000000000000000000000000000000000000000000000000000000000000000000001e0000000000000000000000000294fbd8037c24a0fee0f4cb4d939d40518a4b294000000000000000000000000c0f028167b0e46a454a02ab08f1caff4d48f2077000000000000000000000000000000000000000000000000000000000000000000000000000000000000000000000000000000000000000000000000000000c8000000000000000000000000a7ced7aae25396d9ea23c82352391805374600c8fffffffffffffffffffffffffffffffffffffffffffffffffffffffffffda288fffffffffffffffffffffffffffffffffffffffffffffffffffffffffffe2b4000000000000000000000000000000000000000000000dce275bfe1ba5750554b000000000000000000000000000000000000000006765c793fa10079d000000000000000000000000000000000000000000000000000000000000000000000000000000000000000000000002226ae701ecf96e27373e896f3ddbe8a9a676a30000000000000000000000000000000000000000000000000000000000000018000000000000000000000000000000000000000000000000000000000000000400000000000000000000000000000000000000000000000000000000000000020000000000000000000000000000000000000000000000000000000000000000000000000000000000000000000000000000000000000000000000000000001e0000000000000000000000000294fbd8037c24a0fee0f4cb4d939d40518a4b294000000000000000000000000c0f028167b0e46a454a02ab08f1caff4d48f2077000000000000000000000000000000000000000000000000000000000000000000000000000000000000000000000000000000000000000000000000000000c8000000000000000000000000a7ced7aae25396d9ea23c82352391805374600c8fffffffffffffffffffffffffffffffffffffffffffffffffffffffffffdd938fffffffffffffffffffffffffffffffffffffffffffffffffffffffffffe2b40000000000000000000000000000000000000000000008d5555cda23fda1cf6a90000000000000000000000000000000000000000019d971e4fe8401e7400000000000000000000000000000000000000000000000000000000000000000000000000000000000000000000002226ae701ecf96e27373e896f3ddbe8a9a676a3000000000000000000000000000000000000000000000000000000000000001800000000000000000000000000000000000000000000000000000000000000040000000000000000000000000000000000000000000000000000000000000002000000000000000000000000000000000000000000000000000000000000000000000000000000000000000000000000000000000000000000000000000000040000000000000000000000000294fbd8037c24a0fee0f4cb4d939d40518a4b294000000000000000000000000c0f028167b0e46a454a02ab08f1caff4d48f2077",
        "nonce": "0x34",
        "chainId": "0x2105"
      },
      "additionalContracts": [],
      "isFixedGasLimit": false
    }
  ],
  "receipts": [
    {
      "status": "0x1",
      "cumulativeGasUsed": "0x7db88a",
      "logs": [
        {
          "address": "0x498581ff718922c3f8e6a244956af099b2652b2b",
          "topics": [
            "0xdd466e674ea557f56295e2d0218a125ea4b4f0f6f3307b95f85e6110838d6438",
            "0xad03be88fffb090ed577c2b19d377f86ba5bb8cc337776e99eb5b945c243fcfd",
            "0x000000000000000000000000294fbd8037c24a0fee0f4cb4d939d40518a4b294",
            "0x000000000000000000000000c0f028167b0e46a454a02ab08f1caff4d48f2077"
          ],
          "data": "0x000000000000000000000000000000000000000000000000000000000000000000000000000000000000000000000000000000000000000000000000000000c8000000000000000000000000a7ced7aae25396d9ea23c82352391805374600c800000000000000000000000000000000000000000000a6af776004abf4e612adfffffffffffffffffffffffffffffffffffffffffffffffffffffffffffc7c00",
          "blockHash": "0xb19151779660f4ff0c48893754689df54289740304c89e8e4e0272cdc655178d",
          "blockNumber": "0x2359c8d",
          "blockTimestamp": "0x68f595fd",
          "transactionHash": "0xb2176d3d935b59c727dc73cc73f41d8262565c1e711e7eba56be3c94da1201d6",
          "transactionIndex": "0x24",
          "logIndex": "0xa2",
          "removed": false
        }
      ],
      "logsBloom": "0x00100000000000000000000000000000000000000000000800000000000000000000000000000000000000000000000000000000000000000000000000000000000000000000000000000000000000080000000000000000000000080000000000000040000000000000000000000000000000000000000004000000000000000000000000004008000000000000000000000001000000000000000000200000000000000000000000004000000000000000000000000000000000000000000000000000000000000000000000000000000800000000000000000000000000000000000000440000000000000000000000000400000000000000000000000000",
      "type": "0x2",
      "transactionHash": "0xb2176d3d935b59c727dc73cc73f41d8262565c1e711e7eba56be3c94da1201d6",
      "transactionIndex": "0x24",
      "blockHash": "0xb19151779660f4ff0c48893754689df54289740304c89e8e4e0272cdc655178d",
      "blockNumber": "0x2359c8d",
      "gasUsed": "0xcaed",
      "effectiveGasPrice": "0x12c0fe",
      "from": "0x2226ae701ecf96e27373e896f3ddbe8a9a676a30",
      "to": "0x498581ff718922c3f8e6a244956af099b2652b2b",
      "contractAddress": null,
      "l1BaseFeeScalar": "0x8dd",
      "l1BlobBaseFee": "0x1",
      "l1BlobBaseFeeScalar": "0x101c12",
      "l1Fee": "0x257135cc",
      "l1GasPrice": "0x777dec8",
      "l1GasUsed": "0x8a1"
    },
    {
      "status": "0x1",
      "cumulativeGasUsed": "0x7e6ee9",
      "logs": [
        {
          "address": "0x294fbd8037c24a0fee0f4cb4d939d40518a4b294",
          "topics": [
            "0x8c5be1e5ebec7d5bd14f71427d1e84f3dd0314c0f7b2291e5b200ac8c7c3b925",
            "0x0000000000000000000000002226ae701ecf96e27373e896f3ddbe8a9a676a30",
            "0x000000000000000000000000000000000022d473030f116ddee9f6b43ac78ba3"
          ],
          "data": "0x0000000000000000000000000000000000000000204fce5e3e25026110000000",
          "blockHash": "0xb19151779660f4ff0c48893754689df54289740304c89e8e4e0272cdc655178d",
          "blockNumber": "0x2359c8d",
          "blockTimestamp": "0x68f595fd",
          "transactionHash": "0x410b2cf5104d288680cb35965e210a08829b83f8c77e20b42cc7a4122c157028",
          "transactionIndex": "0x25",
          "logIndex": "0xa3",
          "removed": false
        }
      ],
      "logsBloom": "0x00000000000000000000000000000000000000000000000000000010000000000000000000000000000000000000000000000010800000000000000000200100000000000000000000004000000000000000000000000800000000000000000000000000000000000000000000000000000000000000000000000000010000000000000000000000000000002000000000000000000000000000000000000000020000000000000000000000000000000000000000000000000000000000000000000000000000000000000000000000000000000000000000000000000000000010000000000000000000000000000000000000000400000000000000000000",
      "type": "0x2",
      "transactionHash": "0x410b2cf5104d288680cb35965e210a08829b83f8c77e20b42cc7a4122c157028",
      "transactionIndex": "0x25",
      "blockHash": "0xb19151779660f4ff0c48893754689df54289740304c89e8e4e0272cdc655178d",
      "blockNumber": "0x2359c8d",
      "gasUsed": "0xb65f",
      "effectiveGasPrice": "0x12c0fe",
      "from": "0x2226ae701ecf96e27373e896f3ddbe8a9a676a30",
      "to": "0x294fbd8037c24a0fee0f4cb4d939d40518a4b294",
      "contractAddress": null,
      "l1BaseFeeScalar": "0x8dd",
      "l1BlobBaseFee": "0x1",
      "l1BlobBaseFeeScalar": "0x101c12",
      "l1Fee": "0x1b1cdaf6",
      "l1GasPrice": "0x777dec8",
      "l1GasUsed": "0x640"
    },
    {
      "status": "0x1",
      "cumulativeGasUsed": "0x7f2917",
      "logs": [
        {
          "address": "0x000000000022d473030f116ddee9f6b43ac78ba3",
          "topics": [
            "0xda9fa7c1b00402c17d0161b249b1ab8bbec047c5a52207b9c112deffd817036b",
            "0x0000000000000000000000002226ae701ecf96e27373e896f3ddbe8a9a676a30",
            "0x000000000000000000000000294fbd8037c24a0fee0f4cb4d939d40518a4b294",
            "0x0000000000000000000000007c5f5a4bbd8fd63184577525326123b519429bdc"
          ],
          "data": "0x0000000000000000000000000000000000000000204fce5e3e25026110000000000000000000000000000000000000000000000000000000000000006ad6c975",
          "blockHash": "0xb19151779660f4ff0c48893754689df54289740304c89e8e4e0272cdc655178d",
          "blockNumber": "0x2359c8d",
          "blockTimestamp": "0x68f595fd",
          "transactionHash": "0xbca5ea46441c6988b6626bc6441481b1880ccd843e463ac68bb2d4094ff2d461",
          "transactionIndex": "0x26",
          "logIndex": "0xa4",
          "removed": false
        }
      ],
      "logsBloom": "0x00010000000000000000000000000000000000000000000800000010000000000000000000000000000000000000000000000010000000000000000000082000000000000000000000000000000000000000000000000000000000080000000000000000000000000000000000000000000000000000000000000000000000000020000000000000000000002000000000000000000000000000000000000000000000000000000000000000000000000000000000000000000000080000000200000000000000000000000000000000000000000000000040000000000000000000000000400000000000000000000000000000002000000000000000000400",
      "type": "0x2",
      "transactionHash": "0xbca5ea46441c6988b6626bc6441481b1880ccd843e463ac68bb2d4094ff2d461",
      "transactionIndex": "0x26",
      "blockHash": "0xb19151779660f4ff0c48893754689df54289740304c89e8e4e0272cdc655178d",
      "blockNumber": "0x2359c8d",
      "gasUsed": "0xba2e",
      "effectiveGasPrice": "0x12c0fe",
      "from": "0x2226ae701ecf96e27373e896f3ddbe8a9a676a30",
      "to": "0x000000000022d473030f116ddee9f6b43ac78ba3",
      "contractAddress": null,
      "l1BaseFeeScalar": "0x8dd",
      "l1BlobBaseFee": "0x1",
      "l1BlobBaseFeeScalar": "0x101c12",
      "l1Fee": "0x1fffc398",
      "l1GasPrice": "0x777dec8",
      "l1GasUsed": "0x760"
    },
    {
      "status": "0x1",
      "cumulativeGasUsed": "0x8cc42b",
      "logs": [
        {
          "address": "0x7c5f5a4bbd8fd63184577525326123b519429bdc",
          "topics": [
            "0xddf252ad1be2c89b69c2b068fc378daa952ba7f163c4a11628f55a4df523b3ef",
            "0x0000000000000000000000000000000000000000000000000000000000000000",
            "0x0000000000000000000000002226ae701ecf96e27373e896f3ddbe8a9a676a30",
            "0x0000000000000000000000000000000000000000000000000000000000062a78"
          ],
          "data": "0x",
          "blockHash": "0xb19151779660f4ff0c48893754689df54289740304c89e8e4e0272cdc655178d",
          "blockNumber": "0x2359c8d",
          "blockTimestamp": "0x68f595fd",
          "transactionHash": "0xed2ea81edd78a9e08211e4742bb70caeced53f3d1f5aab1953442f32b4c081f7",
          "transactionIndex": "0x27",
          "logIndex": "0xa5",
          "removed": false
        },
        {
          "address": "0x498581ff718922c3f8e6a244956af099b2652b2b",
          "topics": [
            "0xf208f4912782fd25c7f114ca3723a2d5dd6f3bcc3ac8db5af63baa85f711d5ec",
            "0xad03be88fffb090ed577c2b19d377f86ba5bb8cc337776e99eb5b945c243fcfd",
            "0x0000000000000000000000007c5f5a4bbd8fd63184577525326123b519429bdc"
          ],
          "data": "0xfffffffffffffffffffffffffffffffffffffffffffffffffffffffffffc7c00fffffffffffffffffffffffffffffffffffffffffffffffffffffffffffcbc100000000000000000000000000000000000000000000003c28a47f596c70838ea0000000000000000000000000000000000000000000000000000000000062a78",
          "blockHash": "0xb19151779660f4ff0c48893754689df54289740304c89e8e4e0272cdc655178d",
          "blockNumber": "0x2359c8d",
          "blockTimestamp": "0x68f595fd",
          "transactionHash": "0xed2ea81edd78a9e08211e4742bb70caeced53f3d1f5aab1953442f32b4c081f7",
          "transactionIndex": "0x27",
          "logIndex": "0xa6",
          "removed": false
        },
        {
          "address": "0x7c5f5a4bbd8fd63184577525326123b519429bdc",
          "topics": [
            "0xddf252ad1be2c89b69c2b068fc378daa952ba7f163c4a11628f55a4df523b3ef",
            "0x0000000000000000000000000000000000000000000000000000000000000000",
            "0x0000000000000000000000002226ae701ecf96e27373e896f3ddbe8a9a676a30",
            "0x0000000000000000000000000000000000000000000000000000000000062a79"
          ],
          "data": "0x",
          "blockHash": "0xb19151779660f4ff0c48893754689df54289740304c89e8e4e0272cdc655178d",
          "blockNumber": "0x2359c8d",
          "blockTimestamp": "0x68f595fd",
          "transactionHash": "0xed2ea81edd78a9e08211e4742bb70caeced53f3d1f5aab1953442f32b4c081f7",
          "transactionIndex": "0x27",
          "logIndex": "0xa7",
          "removed": false
        },
        {
          "address": "0x498581ff718922c3f8e6a244956af099b2652b2b",
          "topics": [
            "0xf208f4912782fd25c7f114ca3723a2d5dd6f3bcc3ac8db5af63baa85f711d5ec",
            "0xad03be88fffb090ed577c2b19d377f86ba5bb8cc337776e99eb5b945c243fcfd",
            "0x0000000000000000000000007c5f5a4bbd8fd63184577525326123b519429bdc"
          ],
          "data": "0xfffffffffffffffffffffffffffffffffffffffffffffffffffffffffffcbc10fffffffffffffffffffffffffffffffffffffffffffffffffffffffffffda288000000000000000000000000000000000000000000001933d2f0fcc3c4a81d9b0000000000000000000000000000000000000000000000000000000000062a79",
          "blockHash": "0xb19151779660f4ff0c48893754689df54289740304c89e8e4e0272cdc655178d",
          "blockNumber": "0x2359c8d",
          "blockTimestamp": "0x68f595fd",
          "transactionHash": "0xed2ea81edd78a9e08211e4742bb70caeced53f3d1f5aab1953442f32b4c081f7",
          "transactionIndex": "0x27",
          "logIndex": "0xa8",
          "removed": false
        },
        {
          "address": "0x7c5f5a4bbd8fd63184577525326123b519429bdc",
          "topics": [
            "0xddf252ad1be2c89b69c2b068fc378daa952ba7f163c4a11628f55a4df523b3ef",
            "0x0000000000000000000000000000000000000000000000000000000000000000",
            "0x0000000000000000000000002226ae701ecf96e27373e896f3ddbe8a9a676a30",
            "0x0000000000000000000000000000000000000000000000000000000000062a7a"
          ],
          "data": "0x",
          "blockHash": "0xb19151779660f4ff0c48893754689df54289740304c89e8e4e0272cdc655178d",
          "blockNumber": "0x2359c8d",
          "blockTimestamp": "0x68f595fd",
          "transactionHash": "0xed2ea81edd78a9e08211e4742bb70caeced53f3d1f5aab1953442f32b4c081f7",
          "transactionIndex": "0x27",
          "logIndex": "0xa9",
          "removed": false
        },
        {
          "address": "0x498581ff718922c3f8e6a244956af099b2652b2b",
          "topics": [
            "0xf208f4912782fd25c7f114ca3723a2d5dd6f3bcc3ac8db5af63baa85f711d5ec",
            "0xad03be88fffb090ed577c2b19d377f86ba5bb8cc337776e99eb5b945c243fcfd",
            "0x0000000000000000000000007c5f5a4bbd8fd63184577525326123b519429bdc"
          ],
          "data": "0xfffffffffffffffffffffffffffffffffffffffffffffffffffffffffffceaf0fffffffffffffffffffffffffffffffffffffffffffffffffffffffffffda288000000000000000000000000000000000000000000000e6e74e16047e486ad9c0000000000000000000000000000000000000000000000000000000000062a7a",
          "blockHash": "0xb19151779660f4ff0c48893754689df54289740304c89e8e4e0272cdc655178d",
          "blockNumber": "0x2359c8d",
          "blockTimestamp": "0x68f595fd",
          "transactionHash": "0xed2ea81edd78a9e08211e4742bb70caeced53f3d1f5aab1953442f32b4c081f7",
          "transactionIndex": "0x27",
          "logIndex": "0xaa",
          "removed": false
        },
        {
          "address": "0x7c5f5a4bbd8fd63184577525326123b519429bdc",
          "topics": [
            "0xddf252ad1be2c89b69c2b068fc378daa952ba7f163c4a11628f55a4df523b3ef",
            "0x0000000000000000000000000000000000000000000000000000000000000000",
            "0x0000000000000000000000002226ae701ecf96e27373e896f3ddbe8a9a676a30",
            "0x0000000000000000000000000000000000000000000000000000000000062a7b"
          ],
          "data": "0x",
          "blockHash": "0xb19151779660f4ff0c48893754689df54289740304c89e8e4e0272cdc655178d",
          "blockNumber": "0x2359c8d",
          "blockTimestamp": "0x68f595fd",
          "transactionHash": "0xed2ea81edd78a9e08211e4742bb70caeced53f3d1f5aab1953442f32b4c081f7",
          "transactionIndex": "0x27",
          "logIndex": "0xab",
          "removed": false
        },
        {
          "address": "0x498581ff718922c3f8e6a244956af099b2652b2b",
          "topics": [
            "0xf208f4912782fd25c7f114ca3723a2d5dd6f3bcc3ac8db5af63baa85f711d5ec",
            "0xad03be88fffb090ed577c2b19d377f86ba5bb8cc337776e99eb5b945c243fcfd",
            "0x0000000000000000000000007c5f5a4bbd8fd63184577525326123b519429bdc"
          ],
          "data": "0xfffffffffffffffffffffffffffffffffffffffffffffffffffffffffffda288fffffffffffffffffffffffffffffffffffffffffffffffffffffffffffe2b4000000000000000000000000000000000000000000000dce275bfe1ba5750554b0000000000000000000000000000000000000000000000000000000000062a7b",
          "blockHash": "0xb19151779660f4ff0c48893754689df54289740304c89e8e4e0272cdc655178d",
          "blockNumber": "0x2359c8d",
          "blockTimestamp": "0x68f595fd",
          "transactionHash": "0xed2ea81edd78a9e08211e4742bb70caeced53f3d1f5aab1953442f32b4c081f7",
          "transactionIndex": "0x27",
          "logIndex": "0xac",
          "removed": false
        },
        {
          "address": "0x7c5f5a4bbd8fd63184577525326123b519429bdc",
          "topics": [
            "0xddf252ad1be2c89b69c2b068fc378daa952ba7f163c4a11628f55a4df523b3ef",
            "0x0000000000000000000000000000000000000000000000000000000000000000",
            "0x0000000000000000000000002226ae701ecf96e27373e896f3ddbe8a9a676a30",
            "0x0000000000000000000000000000000000000000000000000000000000062a7c"
          ],
          "data": "0x",
          "blockHash": "0xb19151779660f4ff0c48893754689df54289740304c89e8e4e0272cdc655178d",
          "blockNumber": "0x2359c8d",
          "blockTimestamp": "0x68f595fd",
          "transactionHash": "0xed2ea81edd78a9e08211e4742bb70caeced53f3d1f5aab1953442f32b4c081f7",
          "transactionIndex": "0x27",
          "logIndex": "0xad",
          "removed": false
        },
        {
          "address": "0x498581ff718922c3f8e6a244956af099b2652b2b",
          "topics": [
            "0xf208f4912782fd25c7f114ca3723a2d5dd6f3bcc3ac8db5af63baa85f711d5ec",
            "0xad03be88fffb090ed577c2b19d377f86ba5bb8cc337776e99eb5b945c243fcfd",
            "0x0000000000000000000000007c5f5a4bbd8fd63184577525326123b519429bdc"
          ],
          "data": "0xfffffffffffffffffffffffffffffffffffffffffffffffffffffffffffdd938fffffffffffffffffffffffffffffffffffffffffffffffffffffffffffe2b40000000000000000000000000000000000000000000008d5555cda23fda1cf6a90000000000000000000000000000000000000000000000000000000000062a7c",
          "blockHash": "0xb19151779660f4ff0c48893754689df54289740304c89e8e4e0272cdc655178d",
          "blockNumber": "0x2359c8d",
          "blockTimestamp": "0x68f595fd",
          "transactionHash": "0xed2ea81edd78a9e08211e4742bb70caeced53f3d1f5aab1953442f32b4c081f7",
          "transactionIndex": "0x27",
          "logIndex": "0xae",
          "removed": false
        },
        {
          "address": "0x294fbd8037c24a0fee0f4cb4d939d40518a4b294",
          "topics": [
            "0xddf252ad1be2c89b69c2b068fc378daa952ba7f163c4a11628f55a4df523b3ef",
            "0x0000000000000000000000002226ae701ecf96e27373e896f3ddbe8a9a676a30",
            "0x000000000000000000000000498581ff718922c3f8e6a244956af099b2652b2b"
          ],
          "data": "0x0000000000000000000000000000000000000000204fce5e3e2502610f29c892",
          "blockHash": "0xb19151779660f4ff0c48893754689df54289740304c89e8e4e0272cdc655178d",
          "blockNumber": "0x2359c8d",
          "blockTimestamp": "0x68f595fd",
          "transactionHash": "0xed2ea81edd78a9e08211e4742bb70caeced53f3d1f5aab1953442f32b4c081f7",
          "transactionIndex": "0x27",
          "logIndex": "0xaf",
          "removed": false
        }
      ],
      "logsBloom": "0x00000000000000000000000000000000000000400000000000000010000000020020000010000000000000000040000000000010000000000000000800002100100000000000000000000008000000080000000000000000000000000000000000000000020000000000800000000800040004000400000000000010010000000100000001004000000000002000000000000000000000000000000400000000004004000000000008404000000000000000000000000000000000000000000200000002000001000000000000000000000800002000000000000000000020000000000000040000000000000000000004000400003400000000000000000000",
      "type": "0x2",
      "transactionHash": "0xed2ea81edd78a9e08211e4742bb70caeced53f3d1f5aab1953442f32b4c081f7",
      "transactionIndex": "0x27",
      "blockHash": "0xb19151779660f4ff0c48893754689df54289740304c89e8e4e0272cdc655178d",
      "blockNumber": "0x2359c8d",
      "gasUsed": "0xd9b14",
      "effectiveGasPrice": "0x12c0fe",
      "from": "0x2226ae701ecf96e27373e896f3ddbe8a9a676a30",
      "to": "0x7c5f5a4bbd8fd63184577525326123b519429bdc",
      "contractAddress": null,
      "l1BaseFeeScalar": "0x8dd",
      "l1BlobBaseFee": "0x1",
      "l1BlobBaseFeeScalar": "0x101c12",
      "l1Fee": "0x7a43bed6",
      "l1GasPrice": "0x777dec8",
      "l1GasUsed": "0x1c2f"
    }
  ],
  "libraries": [],
  "pending": [],
  "returns": {},
  "timestamp": 1760925182,
  "chain": 8453,
  "commit": "65077fa"
}