{
  "transactions": [
    {
      "hash": "0x43ccfa687198f1e6f391c0764d9b6ac515ca3b3dc9b1ab9df1357a876f7ab1fe",
      "transactionType": "CALL",
      "contractName": null,
      "contractAddress": "0x498581ff718922c3f8e6a244956af099b2652b2b",
      "function": "initialize((address,address,uint24,int24,address),uint160)",
      "arguments": [
        "(0x52c7f7cb6Fa5a48F6Fde92c823F95e74deC21D52, 0x60d2711F6d6C9BC2bE61F2e02d9911E568BBDA35, 3000, 200, 0xAc118868b91F149dD4becF6020f4c9B2dAC440c8)",
        "787149618249685149291181"
      ],
      "transaction": {
        "from": "0x2226ae701ecf96e27373e896f3ddbe8a9a676a30",
        "to": "0x498581ff718922c3f8e6a244956af099b2652b2b",
        "gas": "0x128fb",
        "value": "0x0",
        "input": "0x6276cbbe00000000000000000000000052c7f7cb6fa5a48f6fde92c823f95e74dec21d5200000000000000000000000060d2711f6d6c9bc2be61f2e02d9911e568bbda350000000000000000000000000000000000000000000000000000000000000bb800000000000000000000000000000000000000000000000000000000000000c8000000000000000000000000ac118868b91f149dd4becf6020f4c9b2dac440c800000000000000000000000000000000000000000000a6af776004abf4e612ad",
        "nonce": "0x4",
        "chainId": "0x2105"
      },
      "additionalContracts": [],
      "isFixedGasLimit": false
    },
    {
      "hash": "0x59a3eaf7118233d736170da9fd8ba3c6532dfcd41078bf96724c5dae74620672",
      "transactionType": "CALL",
      "contractName": null,
      "contractAddress": "0x52c7f7cb6fa5a48f6fde92c823f95e74dec21d52",
      "function": "approve(address,uint256)",
      "arguments": [
        "0x000000000022D473030F116dDEE9F6B43aC78BA3",
        "10000000000000000000000000000"
      ],
      "transaction": {
        "from": "0x2226ae701ecf96e27373e896f3ddbe8a9a676a30",
        "to": "0x52c7f7cb6fa5a48f6fde92c823f95e74dec21d52",
        "gas": "0xfbe5",
        "value": "0x0",
        "input": "0x095ea7b3000000000000000000000000000000000022d473030f116ddee9f6b43ac78ba30000000000000000000000000000000000000000204fce5e3e25026110000000",
        "nonce": "0x5",
        "chainId": "0x2105"
      },
      "additionalContracts": [],
      "isFixedGasLimit": false
    },
    {
      "hash": "0x19ef608c6fbf618aa87a1f5d013a710b3ec27a7726398db0d43a56db2c9087c2",
      "transactionType": "CALL",
      "contractName": null,
      "contractAddress": "0x000000000022d473030f116ddee9f6b43ac78ba3",
      "function": "approve(address,address,uint160,uint48)",
      "arguments": [
        "0x52c7f7cb6Fa5a48F6Fde92c823F95e74deC21D52",
        "0x7C5f5A4bBd8fD63184577525326123B519429bDc",
        "10000000000000000000000000000",
        "1792271855"
      ],
      "transaction": {
        "from": "0x2226ae701ecf96e27373e896f3ddbe8a9a676a30",
        "to": "0x000000000022d473030f116ddee9f6b43ac78ba3",
        "gas": "0x10128",
        "value": "0x0",
        "input": "0x87517c4500000000000000000000000052c7f7cb6fa5a48f6fde92c823f95e74dec21d520000000000000000000000007c5f5a4bbd8fd63184577525326123b519429bdc0000000000000000000000000000000000000000204fce5e3e25026110000000000000000000000000000000000000000000000000000000000000006ad3e5ef",
        "nonce": "0x6",
        "chainId": "0x2105"
      },
      "additionalContracts": [],
      "isFixedGasLimit": false
    },
    {
      "hash": "0x95f68cdbd61f34c7ad70f02285159ec41934bf504ffa9e65622d5b7bd3eed49f",
      "transactionType": "CALL",
      "contractName": null,
      "contractAddress": "0x7c5f5a4bbd8fd63184577525326123b519429bdc",
      "function": "modifyLiquidities(bytes,uint256)",
      "arguments": [
        "0x00000000000000000000000000000000000000000000000000000000000000400000000000000000000000000000000000000000000000000000000000000080000000000000000000000000000000000000000000000000000000000000000602020202020d0000000000000000000000000000000000000000000000000000000000000000000000000000000000000000000000000000000000000000000600000000000000000000000000000000000000000000000000000000000000c000000000000000000000000000000000000000000000000000000000000002c000000000000000000000000000000000000000000000000000000000000004c000000000000000000000000000000000000000000000000000000000000006c000000000000000000000000000000000000000000000000000000000000008c00000000000000000000000000000000000000000000000000000000000000ac000000000000000000000000000000000000000000000000000000000000001e000000000000000000000000052c7f7cb6fa5a48f6fde92c823f95e74dec21d5200000000000000000000000060d2711f6d6c9bc2be61f2e02d9911e568bbda350000000000000000000000000000000000000000000000000000000000000bb800000000000000000000000000000000000000000000000000000000000000c8000000000000000000000000ac118868b91f149dd4becf6020f4c9b2dac440c8fffffffffffffffffffffffffffffffffffffffffffffffffffffffffffc7c00fffffffffffffffffffffffffffffffffffffffffffffffffffffffffffcbc100000000000000000000000000000000000000000000003c28a47f596c70838ea0000000000000000000000000000000000000000033b2e3c9fd0803ce800000000000000000000000000000000000000000000000000000000000000000000000000000000000000000000002226ae701ecf96e27373e896f3ddbe8a9a676a30000000000000000000000000000000000000000000000000000000000000018000000000000000000000000000000000000000000000000000000000000000400000000000000000000000000000000000000000000000000000000000000020000000000000000000000000000000000000000000000000000000000000000000000000000000000000000000000000000000000000000000000000000001e000000000000000000000000052c7f7cb6fa5a48f6fde92c823f95e74dec21d5200000000000000000000000060d2711f6d6c9bc2be61f2e02d9911e568bbda350000000000000000000000000000000000000000000000000000000000000bb800000000000000000000000000000000000000000000000000000000000000c8000000000000000000000000ac118868b91f149dd4becf6020f4c9b2dac440c8fffffffffffffffffffffffffffffffffffffffffffffffffffffffffffcbc10fffffffffffffffffffffffffffffffffffffffffffffffffffffffffffda288000000000000000000000000000000000000000000001933d2f0fcc3c4a81d9b00000000000000000000000000000000000000001027e72f1f1281308800000000000000000000000000000000000000000000000000000000000000000000000000000000000000000000002226ae701ecf96e27373e896f3ddbe8a9a676a30000000000000000000000000000000000000000000000000000000000000018000000000000000000000000000000000000000000000000000000000000000400000000000000000000000000000000000000000000000000000000000000020000000000000000000000000000000000000000000000000000000000000000000000000000000000000000000000000000000000000000000000000000001e000000000000000000000000052c7f7cb6fa5a48f6fde92c823f95e74dec21d5200000000000000000000000060d2711f6d6c9bc2be61f2e02d9911e568bbda350000000000000000000000000000000000000000000000000000000000000bb800000000000000000000000000000000000000000000000000000000000000c8000000000000000000000000ac118868b91f149dd4becf6020f4c9b2dac440c8fffffffffffffffffffffffffffffffffffffffffffffffffffffffffffceaf0fffffffffffffffffffffffffffffffffffffffffffffffffffffffffffda288000000000000000000000000000000000000000000000e6e74e16047e486ad9c000000000000000000000000000000000000000004d8c55aefb8c05b5c00000000000000000000000000000000000000000000000000000000000000000000000000000000000000000000002226ae701ecf96e27373e896f3ddbe8a9a676a30000000000000000000000000000000000000000000000000000000000000018000000000000000000000000000000000000000000000000000000000000000400000000000000000000000000000000000000000000000000000000000000020000000000000000000000000000000000000000000000000000000000000000000000000000000000000000000000000000000000000000000000000000001e000000000000000000000000052c7f7cb6fa5a48f6fde92c823f95e74dec21d5200000000000000000000000060d2711f6d6c9bc2be61f2e02d9911e568bbda350000000000000000000000000000000000000000000000000000000000000bb800000000000000000000000000000000000000000000000000000000000000c8000000000000000000000000ac118868b91f149dd4becf6020f4c9b2dac440c8fffffffffffffffffffffffffffffffffffffffffffffffffffffffffffda288fffffffffffffffffffffffffffffffffffffffffffffffffffffffffffe2b4000000000000000000000000000000000000000000000dce275bfe1ba5750554b000000000000000000000000000000000000000006765c793fa10079d000000000000000000000000000000000000000000000000000000000000000000000000000000000000000000000002226ae701ecf96e27373e896f3ddbe8a9a676a30000000000000000000000000000000000000000000000000000000000000018000000000000000000000000000000000000000000000000000000000000000400000000000000000000000000000000000000000000000000000000000000020000000000000000000000000000000000000000000000000000000000000000000000000000000000000000000000000000000000000000000000000000001e000000000000000000000000052c7f7cb6fa5a48f6fde92c823f95e74dec21d5200000000000000000000000060d2711f6d6c9bc2be61f2e02d9911e568bbda350000000000000000000000000000000000000000000000000000000000000bb800000000000000000000000000000000000000000000000000000000000000c8000000000000000000000000ac118868b91f149dd4becf6020f4c9b2dac440c8fffffffffffffffffffffffffffffffffffffffffffffffffffffffffffdd938fffffffffffffffffffffffffffffffffffffffffffffffffffffffffffe2b40000000000000000000000000000000000000000000008d5555cda23fda1cf6a90000000000000000000000000000000000000000019d971e4fe8401e7400000000000000000000000000000000000000000000000000000000000000000000000000000000000000000000002226ae701ecf96e27373e896f3ddbe8a9a676a300000000000000000000000000000000000000000000000000000000000000180000000000000000000000000000000000000000000000000000000000000004000000000000000000000000000000000000000000000000000000000000000200000000000000000000000000000000000000000000000000000000000000000000000000000000000000000000000000000000000000000000000000000004000000000000000000000000052c7f7cb6fa5a48f6fde92c823f95e74dec21d5200000000000000000000000060d2711f6d6c9bc2be61f2e02d9911e568bbda35",
        "1792271855"
      ],
      "transaction": {
        "from": "0x2226ae701ecf96e27373e896f3ddbe8a9a676a30",
        "to": "0x7c5f5a4bbd8fd63184577525326123b519429bdc",
        "gas": "0x13283c",
        "value": "0x0",
        "input": "0xdd46508f0000000000000000000000000000000000000000000000000000000000000040000000000000000000000000000000000000000000000000000000006ad3e5ef0000000000000000000000000000000000000000000000000000000000000bc000000000000000000000000000000000000000000000000000000000000000400000000000000000000000000000000000000000000000000000000000000080000000000000000000000000000000000000000000000000000000000000000602020202020d0000000000000000000000000000000000000000000000000000000000000000000000000000000000000000000000000000000000000000000600000000000000000000000000000000000000000000000000000000000000c000000000000000000000000000000000000000000000000000000000000002c000000000000000000000000000000000000000000000000000000000000004c000000000000000000000000000000000000000000000000000000000000006c000000000000000000000000000000000000000000000000000000000000008c00000000000000000000000000000000000000000000000000000000000000ac000000000000000000000000000000000000000000000000000000000000001e000000000000000000000000052c7f7cb6fa5a48f6fde92c823f95e74dec21d5200000000000000000000000060d2711f6d6c9bc2be61f2e02d9911e568bbda350000000000000000000000000000000000000000000000000000000000000bb800000000000000000000000000000000000000000000000000000000000000c8000000000000000000000000ac118868b91f149dd4becf6020f4c9b2dac440c8fffffffffffffffffffffffffffffffffffffffffffffffffffffffffffc7c00fffffffffffffffffffffffffffffffffffffffffffffffffffffffffffcbc100000000000000000000000000000000000000000000003c28a47f596c70838ea0000000000000000000000000000000000000000033b2e3c9fd0803ce800000000000000000000000000000000000000000000000000000000000000000000000000000000000000000000002226ae701ecf96e27373e896f3ddbe8a9a676a30000000000000000000000000000000000000000000000000000000000000018000000000000000000000000000000000000000000000000000000000000000400000000000000000000000000000000000000000000000000000000000000020000000000000000000000000000000000000000000000000000000000000000000000000000000000000000000000000000000000000000000000000000001e000000000000000000000000052c7f7cb6fa5a48f6fde92c823f95e74dec21d5200000000000000000000000060d2711f6d6c9bc2be61f2e02d9911e568bbda350000000000000000000000000000000000000000000000000000000000000bb800000000000000000000000000000000000000000000000000000000000000c8000000000000000000000000ac118868b91f149dd4becf6020f4c9b2dac440c8fffffffffffffffffffffffffffffffffffffffffffffffffffffffffffcbc10fffffffffffffffffffffffffffffffffffffffffffffffffffffffffffda288000000000000000000000000000000000000000000001933d2f0fcc3c4a81d9b00000000000000000000000000000000000000001027e72f1f1281308800000000000000000000000000000000000000000000000000000000000000000000000000000000000000000000002226ae701ecf96e27373e896f3ddbe8a9a676a30000000000000000000000000000000000000000000000000000000000000018000000000000000000000000000000000000000000000000000000000000000400000000000000000000000000000000000000000000000000000000000000020000000000000000000000000000000000000000000000000000000000000000000000000000000000000000000000000000000000000000000000000000001e000000000000000000000000052c7f7cb6fa5a48f6fde92c823f95e74dec21d5200000000000000000000000060d2711f6d6c9bc2be61f2e02d9911e568bbda350000000000000000000000000000000000000000000000000000000000000bb800000000000000000000000000000000000000000000000000000000000000c8000000000000000000000000ac118868b91f149dd4becf6020f4c9b2dac440c8fffffffffffffffffffffffffffffffffffffffffffffffffffffffffffceaf0fffffffffffffffffffffffffffffffffffffffffffffffffffffffffffda288000000000000000000000000000000000000000000000e6e74e16047e486ad9c000000000000000000000000000000000000000004d8c55aefb8c05b5c00000000000000000000000000000000000000000000000000000000000000000000000000000000000000000000002226ae701ecf96e27373e896f3ddbe8a9a676a30000000000000000000000000000000000000000000000000000000000000018000000000000000000000000000000000000000000000000000000000000000400000000000000000000000000000000000000000000000000000000000000020000000000000000000000000000000000000000000000000000000000000000000000000000000000000000000000000000000000000000000000000000001e000000000000000000000000052c7f7cb6fa5a48f6fde92c823f95e74dec21d5200000000000000000000000060d2711f6d6c9bc2be61f2e02d9911e568bbda350000000000000000000000000000000000000000000000000000000000000bb800000000000000000000000000000000000000000000000000000000000000c8000000000000000000000000ac118868b91f149dd4becf6020f4c9b2dac440c8fffffffffffffffffffffffffffffffffffffffffffffffffffffffffffda288fffffffffffffffffffffffffffffffffffffffffffffffffffffffffffe2b4000000000000000000000000000000000000000000000dce275bfe1ba5750554b000000000000000000000000000000000000000006765c793fa10079d000000000000000000000000000000000000000000000000000000000000000000000000000000000000000000000002226ae701ecf96e27373e896f3ddbe8a9a676a30000000000000000000000000000000000000000000000000000000000000018000000000000000000000000000000000000000000000000000000000000000400000000000000000000000000000000000000000000000000000000000000020000000000000000000000000000000000000000000000000000000000000000000000000000000000000000000000000000000000000000000000000000001e000000000000000000000000052c7f7cb6fa5a48f6fde92c823f95e74dec21d5200000000000000000000000060d2711f6d6c9bc2be61f2e02d9911e568bbda350000000000000000000000000000000000000000000000000000000000000bb800000000000000000000000000000000000000000000000000000000000000c8000000000000000000000000ac118868b91f149dd4becf6020f4c9b2dac440c8fffffffffffffffffffffffffffffffffffffffffffffffffffffffffffdd938fffffffffffffffffffffffffffffffffffffffffffffffffffffffffffe2b40000000000000000000000000000000000000000000008d5555cda23fda1cf6a90000000000000000000000000000000000000000019d971e4fe8401e7400000000000000000000000000000000000000000000000000000000000000000000000000000000000000000000002226ae701ecf96e27373e896f3ddbe8a9a676a300000000000000000000000000000000000000000000000000000000000000180000000000000000000000000000000000000000000000000000000000000004000000000000000000000000000000000000000000000000000000000000000200000000000000000000000000000000000000000000000000000000000000000000000000000000000000000000000000000000000000000000000000000004000000000000000000000000052c7f7cb6fa5a48f6fde92c823f95e74dec21d5200000000000000000000000060d2711f6d6c9bc2be61f2e02d9911e568bbda35",
        "nonce": "0x7",
        "chainId": "0x2105"
      },
      "additionalContracts": [],
      "isFixedGasLimit": false
    }
  ],
  "receipts": [
    {
      "status": "0x1",
      "cumulativeGasUsed": "0x30d76e6",
      "logs": [
        {
          "address": "0x498581ff718922c3f8e6a244956af099b2652b2b",
          "topics": [
            "0xdd466e674ea557f56295e2d0218a125ea4b4f0f6f3307b95f85e6110838d6438",
            "0x6debcce48276cdc72fd82819a7aca4df1f7bd4c6cc602b6fbd4c0b3abba20e00",
            "0x00000000000000000000000052c7f7cb6fa5a48f6fde92c823f95e74dec21d52",
            "0x00000000000000000000000060d2711f6d6c9bc2be61f2e02d9911e568bbda35"
          ],
          "data": "0x0000000000000000000000000000000000000000000000000000000000000bb800000000000000000000000000000000000000000000000000000000000000c8000000000000000000000000ac118868b91f149dd4becf6020f4c9b2dac440c800000000000000000000000000000000000000000000a6af776004abf4e612adfffffffffffffffffffffffffffffffffffffffffffffffffffffffffffc7c00",
          "blockHash": "0x39362c0919b926f73e615c1c939911b94dc42bb1601c5d57d22f5353eef266b0",
          "blockNumber": "0x2342aca",
          "blockTimestamp": "0x68f2b277",
          "transactionHash": "0x43ccfa687198f1e6f391c0764d9b6ac515ca3b3dc9b1ab9df1357a876f7ab1fe",
          "transactionIndex": "0x11a",
          "logIndex": "0x2a7",
          "removed": false
        }
      ],
      "logsBloom": "0x00000000000000000000000000000000000000200000000000000000000000000000000000000000000000000000000000000000000000000000000000000000000000000000000000000000000040000120000000000000000000000000000080000000000000000000000000000000000000000000000000001000000000000000000000004008000000000000000000000001000000000000000000200000000000004000000000000000000000000000000000000000000000000000000000200000000000000000000000000000000800000000000000000000000000000001000000000000000000000000000000000400000000000000000000000000",
      "type": "0x2",
      "transactionHash": "0x43ccfa687198f1e6f391c0764d9b6ac515ca3b3dc9b1ab9df1357a876f7ab1fe",
      "transactionIndex": "0x11a",
      "blockHash": "0x39362c0919b926f73e615c1c939911b94dc42bb1601c5d57d22f5353eef266b0",
      "blockNumber": "0x2342aca",
      "gasUsed": "0xcb11",
      "effectiveGasPrice": "0x4e0274",
      "from": "0x2226ae701ecf96e27373e896f3ddbe8a9a676a30",
      "to": "0x498581ff718922c3f8e6a244956af099b2652b2b",
      "contractAddress": null,
      "l1BaseFeeScalar": "0x8dd",
      "l1BlobBaseFee": "0x1",
      "l1BlobBaseFeeScalar": "0x101c12",
      "l1Fee": "0x5cbc98ec",
      "l1GasPrice": "0x1170dc97",
      "l1GasUsed": "0x927"
    },
    {
      "status": "0x1",
      "cumulativeGasUsed": "0x30e2d45",
      "logs": [
        {
          "address": "0x52c7f7cb6fa5a48f6fde92c823f95e74dec21d52",
          "topics": [
            "0x8c5be1e5ebec7d5bd14f71427d1e84f3dd0314c0f7b2291e5b200ac8c7c3b925",
            "0x0000000000000000000000002226ae701ecf96e27373e896f3ddbe8a9a676a30",
            "0x000000000000000000000000000000000022d473030f116ddee9f6b43ac78ba3"
          ],
          "data": "0x0000000000000000000000000000000000000000204fce5e3e25026110000000",
          "blockHash": "0x39362c0919b926f73e615c1c939911b94dc42bb1601c5d57d22f5353eef266b0",
          "blockNumber": "0x2342aca",
          "blockTimestamp": "0x68f2b277",
          "transactionHash": "0x59a3eaf7118233d736170da9fd8ba3c6532dfcd41078bf96724c5dae74620672",
          "transactionIndex": "0x11b",
          "logIndex": "0x2a8",
          "removed": false
        }
      ],
      "logsBloom": "0x00000000000000000000020000000000000000000000000000000010000000000000000000000000000000000000000000000010800000000000000000200000000000000000000000004000000000000000000000000800000000000000000000000000000400000000000000000000000000000000000000000000000000000000000000000000000000002000000100000000000000000000000000000000020000000000000000000000000000000000000000000000000000000000000000000000000000000000000000000000000000000000000000000000000000000010000000000000000000000000000000000000000000000000000000000000",
      "type": "0x2",
      "transactionHash": "0x59a3eaf7118233d736170da9fd8ba3c6532dfcd41078bf96724c5dae74620672",
      "transactionIndex": "0x11b",
      "blockHash": "0x39362c0919b926f73e615c1c939911b94dc42bb1601c5d57d22f5353eef266b0",
      "blockNumber": "0x2342aca",
      "gasUsed": "0xb65f",
      "effectiveGasPrice": "0x4e0274",
      "from": "0x2226ae701ecf96e27373e896f3ddbe8a9a676a30",
      "to": "0x52c7f7cb6fa5a48f6fde92c823f95e74dec21d52",
      "contractAddress": null,
      "l1BaseFeeScalar": "0x8dd",
      "l1BlobBaseFee": "0x1",
      "l1BlobBaseFeeScalar": "0x101c12",
      "l1Fee": "0x3f513c46",
      "l1GasPrice": "0x1170dc97",
      "l1GasUsed": "0x640"
    },
    {
      "status": "0x1",
      "cumulativeGasUsed": "0x30ee773",
      "logs": [
        {
          "address": "0x000000000022d473030f116ddee9f6b43ac78ba3",
          "topics": [
            "0xda9fa7c1b00402c17d0161b249b1ab8bbec047c5a52207b9c112deffd817036b",
            "0x0000000000000000000000002226ae701ecf96e27373e896f3ddbe8a9a676a30",
            "0x00000000000000000000000052c7f7cb6fa5a48f6fde92c823f95e74dec21d52",
            "0x0000000000000000000000007c5f5a4bbd8fd63184577525326123b519429bdc"
          ],
          "data": "0x0000000000000000000000000000000000000000204fce5e3e25026110000000000000000000000000000000000000000000000000000000000000006ad3e5ef",
          "blockHash": "0x39362c0919b926f73e615c1c939911b94dc42bb1601c5d57d22f5353eef266b0",
          "blockNumber": "0x2342aca",
          "blockTimestamp": "0x68f2b277",
          "transactionHash": "0x19ef608c6fbf618aa87a1f5d013a710b3ec27a7726398db0d43a56db2c9087c2",
          "transactionIndex": "0x11c",
          "logIndex": "0x2a9",
          "removed": false
        }
      ],
      "logsBloom": "0x00010000000000000000000000000000000000000000000000000010000000000000000000000000000000000000000000000010000000000000000000082000000000000000000000000000000040000100000000000000000000000000000080000000000000000000000000000000000000000000000000000000000000000020000000000000000000002000000000000000000000000000000000000000000000000000000000000000000000000000000000000000000000080000000200000000000000000000000000000000000000000000000040000000000000000000000000000000000000000000000000000000002000000000000000000400",
      "type": "0x2",
      "transactionHash": "0x19ef608c6fbf618aa87a1f5d013a710b3ec27a7726398db0d43a56db2c9087c2",
      "transactionIndex": "0x11c",
      "blockHash": "0x39362c0919b926f73e615c1c939911b94dc42bb1601c5d57d22f5353eef266b0",
      "blockNumber": "0x2342aca",
      "gasUsed": "0xba2e",
      "effectiveGasPrice": "0x4e0274",
      "from": "0x2226ae701ecf96e27373e896f3ddbe8a9a676a30",
      "to": "0x000000000022d473030f116ddee9f6b43ac78ba3",
      "contractAddress": null,
      "l1BaseFeeScalar": "0x8dd",
      "l1BlobBaseFee": "0x1",
      "l1BlobBaseFeeScalar": "0x101c12",
      "l1Fee": "0x4b421e73",
      "l1GasPrice": "0x1170dc97",
      "l1GasUsed": "0x76d"
    },
    {
      "status": "0x1",
      "cumulativeGasUsed": "0x31dac5e",
      "logs": [
        {
          "address": "0x7c5f5a4bbd8fd63184577525326123b519429bdc",
          "topics": [
            "0xddf252ad1be2c89b69c2b068fc378daa952ba7f163c4a11628f55a4df523b3ef",
            "0x0000000000000000000000000000000000000000000000000000000000000000",
            "0x0000000000000000000000002226ae701ecf96e27373e896f3ddbe8a9a676a30",
            "0x00000000000000000000000000000000000000000000000000000000000612f1"
          ],
          "data": "0x",
          "blockHash": "0x39362c0919b926f73e615c1c939911b94dc42bb1601c5d57d22f5353eef266b0",
          "blockNumber": "0x2342aca",
          "blockTimestamp": "0x68f2b277",
          "transactionHash": "0x95f68cdbd61f34c7ad70f02285159ec41934bf504ffa9e65622d5b7bd3eed49f",
          "transactionIndex": "0x11e",
          "logIndex": "0x2ab",
          "removed": false
        },
        {
          "address": "0x498581ff718922c3f8e6a244956af099b2652b2b",
          "topics": [
            "0xf208f4912782fd25c7f114ca3723a2d5dd6f3bcc3ac8db5af63baa85f711d5ec",
            "0x6debcce48276cdc72fd82819a7aca4df1f7bd4c6cc602b6fbd4c0b3abba20e00",
            "0x0000000000000000000000007c5f5a4bbd8fd63184577525326123b519429bdc"
          ],
          "data": "0xfffffffffffffffffffffffffffffffffffffffffffffffffffffffffffc7c00fffffffffffffffffffffffffffffffffffffffffffffffffffffffffffcbc100000000000000000000000000000000000000000000003c28a47f596c70838ea00000000000000000000000000000000000000000000000000000000000612f1",
          "blockHash": "0x39362c0919b926f73e615c1c939911b94dc42bb1601c5d57d22f5353eef266b0",
          "blockNumber": "0x2342aca",
          "blockTimestamp": "0x68f2b277",
          "transactionHash": "0x95f68cdbd61f34c7ad70f02285159ec41934bf504ffa9e65622d5b7bd3eed49f",
          "transactionIndex": "0x11e",
          "logIndex": "0x2ac",
          "removed": false
        },
        {
          "address": "0x7c5f5a4bbd8fd63184577525326123b519429bdc",
          "topics": [
            "0xddf252ad1be2c89b69c2b068fc378daa952ba7f163c4a11628f55a4df523b3ef",
            "0x0000000000000000000000000000000000000000000000000000000000000000",
            "0x0000000000000000000000002226ae701ecf96e27373e896f3ddbe8a9a676a30",
            "0x00000000000000000000000000000000000000000000000000000000000612f2"
          ],
          "data": "0x",
          "blockHash": "0x39362c0919b926f73e615c1c939911b94dc42bb1601c5d57d22f5353eef266b0",
          "blockNumber": "0x2342aca",
          "blockTimestamp": "0x68f2b277",
          "transactionHash": "0x95f68cdbd61f34c7ad70f02285159ec41934bf504ffa9e65622d5b7bd3eed49f",
          "transactionIndex": "0x11e",
          "logIndex": "0x2ad",
          "removed": false
        },
        {
          "address": "0x498581ff718922c3f8e6a244956af099b2652b2b",
          "topics": [
            "0xf208f4912782fd25c7f114ca3723a2d5dd6f3bcc3ac8db5af63baa85f711d5ec",
            "0x6debcce48276cdc72fd82819a7aca4df1f7bd4c6cc602b6fbd4c0b3abba20e00",
            "0x0000000000000000000000007c5f5a4bbd8fd63184577525326123b519429bdc"
          ],
          "data": "0xfffffffffffffffffffffffffffffffffffffffffffffffffffffffffffcbc10fffffffffffffffffffffffffffffffffffffffffffffffffffffffffffda288000000000000000000000000000000000000000000001933d2f0fcc3c4a81d9b00000000000000000000000000000000000000000000000000000000000612f2",
          "blockHash": "0x39362c0919b926f73e615c1c939911b94dc42bb1601c5d57d22f5353eef266b0",
          "blockNumber": "0x2342aca",
          "blockTimestamp": "0x68f2b277",
          "transactionHash": "0x95f68cdbd61f34c7ad70f02285159ec41934bf504ffa9e65622d5b7bd3eed49f",
          "transactionIndex": "0x11e",
          "logIndex": "0x2ae",
          "removed": false
        },
        {
          "address": "0x7c5f5a4bbd8fd63184577525326123b519429bdc",
          "topics": [
            "0xddf252ad1be2c89b69c2b068fc378daa952ba7f163c4a11628f55a4df523b3ef",
            "0x0000000000000000000000000000000000000000000000000000000000000000",
            "0x0000000000000000000000002226ae701ecf96e27373e896f3ddbe8a9a676a30",
            "0x00000000000000000000000000000000000000000000000000000000000612f3"
          ],
          "data": "0x",
          "blockHash": "0x39362c0919b926f73e615c1c939911b94dc42bb1601c5d57d22f5353eef266b0",
          "blockNumber": "0x2342aca",
          "blockTimestamp": "0x68f2b277",
          "transactionHash": "0x95f68cdbd61f34c7ad70f02285159ec41934bf504ffa9e65622d5b7bd3eed49f",
          "transactionIndex": "0x11e",
          "logIndex": "0x2af",
          "removed": false
        },
        {
          "address": "0x498581ff718922c3f8e6a244956af099b2652b2b",
          "topics": [
            "0xf208f4912782fd25c7f114ca3723a2d5dd6f3bcc3ac8db5af63baa85f711d5ec",
            "0x6debcce48276cdc72fd82819a7aca4df1f7bd4c6cc602b6fbd4c0b3abba20e00",
            "0x0000000000000000000000007c5f5a4bbd8fd63184577525326123b519429bdc"
          ],
          "data": "0xfffffffffffffffffffffffffffffffffffffffffffffffffffffffffffceaf0fffffffffffffffffffffffffffffffffffffffffffffffffffffffffffda288000000000000000000000000000000000000000000000e6e74e16047e486ad9c00000000000000000000000000000000000000000000000000000000000612f3",
          "blockHash": "0x39362c0919b926f73e615c1c939911b94dc42bb1601c5d57d22f5353eef266b0",
          "blockNumber": "0x2342aca",
          "blockTimestamp": "0x68f2b277",
          "transactionHash": "0x95f68cdbd61f34c7ad70f02285159ec41934bf504ffa9e65622d5b7bd3eed49f",
          "transactionIndex": "0x11e",
          "logIndex": "0x2b0",
          "removed": false
        },
        {
          "address": "0x7c5f5a4bbd8fd63184577525326123b519429bdc",
          "topics": [
            "0xddf252ad1be2c89b69c2b068fc378daa952ba7f163c4a11628f55a4df523b3ef",
            "0x0000000000000000000000000000000000000000000000000000000000000000",
            "0x0000000000000000000000002226ae701ecf96e27373e896f3ddbe8a9a676a30",
            "0x00000000000000000000000000000000000000000000000000000000000612f4"
          ],
          "data": "0x",
          "blockHash": "0x39362c0919b926f73e615c1c939911b94dc42bb1601c5d57d22f5353eef266b0",
          "blockNumber": "0x2342aca",
          "blockTimestamp": "0x68f2b277",
          "transactionHash": "0x95f68cdbd61f34c7ad70f02285159ec41934bf504ffa9e65622d5b7bd3eed49f",
          "transactionIndex": "0x11e",
          "logIndex": "0x2b1",
          "removed": false
        },
        {
          "address": "0x498581ff718922c3f8e6a244956af099b2652b2b",
          "topics": [
            "0xf208f4912782fd25c7f114ca3723a2d5dd6f3bcc3ac8db5af63baa85f711d5ec",
            "0x6debcce48276cdc72fd82819a7aca4df1f7bd4c6cc602b6fbd4c0b3abba20e00",
            "0x0000000000000000000000007c5f5a4bbd8fd63184577525326123b519429bdc"
          ],
          "data": "0xfffffffffffffffffffffffffffffffffffffffffffffffffffffffffffda288fffffffffffffffffffffffffffffffffffffffffffffffffffffffffffe2b4000000000000000000000000000000000000000000000dce275bfe1ba5750554b00000000000000000000000000000000000000000000000000000000000612f4",
          "blockHash": "0x39362c0919b926f73e615c1c939911b94dc42bb1601c5d57d22f5353eef266b0",
          "blockNumber": "0x2342aca",
          "blockTimestamp": "0x68f2b277",
          "transactionHash": "0x95f68cdbd61f34c7ad70f02285159ec41934bf504ffa9e65622d5b7bd3eed49f",
          "transactionIndex": "0x11e",
          "logIndex": "0x2b2",
          "removed": false
        },
        {
          "address": "0x7c5f5a4bbd8fd63184577525326123b519429bdc",
          "topics": [
            "0xddf252ad1be2c89b69c2b068fc378daa952ba7f163c4a11628f55a4df523b3ef",
            "0x0000000000000000000000000000000000000000000000000000000000000000",
            "0x0000000000000000000000002226ae701ecf96e27373e896f3ddbe8a9a676a30",
            "0x00000000000000000000000000000000000000000000000000000000000612f5"
          ],
          "data": "0x",
          "blockHash": "0x39362c0919b926f73e615c1c939911b94dc42bb1601c5d57d22f5353eef266b0",
          "blockNumber": "0x2342aca",
          "blockTimestamp": "0x68f2b277",
          "transactionHash": "0x95f68cdbd61f34c7ad70f02285159ec41934bf504ffa9e65622d5b7bd3eed49f",
          "transactionIndex": "0x11e",
          "logIndex": "0x2b3",
          "removed": false
        },
        {
          "address": "0x498581ff718922c3f8e6a244956af099b2652b2b",
          "topics": [
            "0xf208f4912782fd25c7f114ca3723a2d5dd6f3bcc3ac8db5af63baa85f711d5ec",
            "0x6debcce48276cdc72fd82819a7aca4df1f7bd4c6cc602b6fbd4c0b3abba20e00",
            "0x0000000000000000000000007c5f5a4bbd8fd63184577525326123b519429bdc"
          ],
          "data": "0xfffffffffffffffffffffffffffffffffffffffffffffffffffffffffffdd938fffffffffffffffffffffffffffffffffffffffffffffffffffffffffffe2b40000000000000000000000000000000000000000000008d5555cda23fda1cf6a900000000000000000000000000000000000000000000000000000000000612f5",
          "blockHash": "0x39362c0919b926f73e615c1c939911b94dc42bb1601c5d57d22f5353eef266b0",
          "blockNumber": "0x2342aca",
          "blockTimestamp": "0x68f2b277",
          "transactionHash": "0x95f68cdbd61f34c7ad70f02285159ec41934bf504ffa9e65622d5b7bd3eed49f",
          "transactionIndex": "0x11e",
          "logIndex": "0x2b4",
          "removed": false
        },
        {
          "address": "0x52c7f7cb6fa5a48f6fde92c823f95e74dec21d52",
          "topics": [
            "0xddf252ad1be2c89b69c2b068fc378daa952ba7f163c4a11628f55a4df523b3ef",
            "0x0000000000000000000000002226ae701ecf96e27373e896f3ddbe8a9a676a30",
            "0x000000000000000000000000498581ff718922c3f8e6a244956af099b2652b2b"
          ],
          "data": "0x0000000000000000000000000000000000000000204fce5e3e2502610f29c892",
          "blockHash": "0x39362c0919b926f73e615c1c939911b94dc42bb1601c5d57d22f5353eef266b0",
          "blockNumber": "0x2342aca",
          "blockTimestamp": "0x68f2b277",
          "transactionHash": "0x95f68cdbd61f34c7ad70f02285159ec41934bf504ffa9e65622d5b7bd3eed49f",
          "transactionIndex": "0x11e",
          "logIndex": "0x2b5",
          "removed": false
        }
      ],
      "logsBloom": "0x00000000000000000000020000000000000000200000000000000010000000000020000000000000000000000000000000000090000000000020000000002000000000000000000000000088000000040000084000000000000000000000000000000000020400000000000000000800040000000000000000001010000000000000000001004000000000012001000100000200000000000400000400000000084004000000000008000000000100000000000000000000000400000000000200200002000001000000000000000000000800000000000000000000000020000000000000000000000000004000000004000400002000000000000000000000",
      "type": "0x2",
      "transactionHash": "0x95f68cdbd61f34c7ad70f02285159ec41934bf504ffa9e65622d5b7bd3eed49f",
      "transactionIndex": "0x11e",
      "blockHash": "0x39362c0919b926f73e615c1c939911b94dc42bb1601c5d57d22f5353eef266b0",
      "blockNumber": "0x2342aca",
      "gasUsed": "0xdde94",
      "effectiveGasPrice": "0x4e0274",
      "from": "0x2226ae701ecf96e27373e896f3ddbe8a9a676a30",
      "to": "0x7c5f5a4bbd8fd63184577525326123b519429bdc",
      "contractAddress": null,
      "l1BaseFeeScalar": "0x8dd",
      "l1BlobBaseFee": "0x1",
      "l1BlobBaseFeeScalar": "0x101c12",
      "l1Fee": "0x120b4fdd5",
      "l1GasPrice": "0x1170dc97",
      "l1GasUsed": "0x1c7f"
    }
  ],
  "libraries": [],
  "pending": [],
  "returns": {},
  "timestamp": 1760735863,
  "chain": 8453,
  "commit": "65077fa"
}