{
  "transactions": [
    {
      "hash": "0x78dd0d26ffff4badf5e5986ba483db4cd0834f0e8283d88d228ef137a553332a",
      "transactionType": "CALL",
      "contractName": null,
      "contractAddress": "0x498581ff718922c3f8e6a244956af099b2652b2b",
      "function": "initialize((address,address,uint24,int24,address),uint160)",
      "arguments": [
        "(0x995D12a9099956e0dDe775475cc7f17895b52474, 0xd98413706F8C9F18d406544812E99568534352C8, 0, 200, 0xc6A995E1A75C1fAE86c47D65344f28CeD5548044)",
        "787149618249685149291181"
      ],
      "transaction": {
        "from": "0x2226ae701ecf96e27373e896f3ddbe8a9a676a30",
        "to": "0x498581ff718922c3f8e6a244956af099b2652b2b",
        "gas": "0x11882",
        "value": "0x0",
        "input": "0x6276cbbe000000000000000000000000995d12a9099956e0dde775475cc7f17895b52474000000000000000000000000d98413706f8c9f18d406544812e99568534352c8000000000000000000000000000000000000000000000000000000000000000000000000000000000000000000000000000000000000000000000000000000c8000000000000000000000000c6a995e1a75c1fae86c47d65344f28ced554804400000000000000000000000000000000000000000000a6af776004abf4e612ad",
        "nonce": "0x3e",
        "chainId": "0x2105"
      },
      "additionalContracts": [],
      "isFixedGasLimit": false
    },
    {
      "hash": "0x8ab0799951ed54e6da841ef5beb7595be082ae1b4f72d5c914aefcf2300733fc",
      "transactionType": "CALL",
      "contractName": null,
      "contractAddress": "0x995d12a9099956e0dde775475cc7f17895b52474",
      "function": "approve(address,uint256)",
      "arguments": [
        "0x000000000022D473030F116dDEE9F6B43aC78BA3",
        "10000000000000000000000000000"
      ],
      "transaction": {
        "from": "0x2226ae701ecf96e27373e896f3ddbe8a9a676a30",
        "to": "0x995d12a9099956e0dde775475cc7f17895b52474",
        "gas": "0xfbe5",
        "value": "0x0",
        "input": "0x095ea7b3000000000000000000000000000000000022d473030f116ddee9f6b43ac78ba30000000000000000000000000000000000000000204fce5e3e25026110000000",
        "nonce": "0x3f",
        "chainId": "0x2105"
      },
      "additionalContracts": [],
      "isFixedGasLimit": false
    },
    {
      "hash": "0x67d63566c817b022be76ae395d328ea1728536f3a94de431fa1dbd1e1a73de53",
      "transactionType": "CALL",
      "contractName": null,
      "contractAddress": "0x000000000022d473030f116ddee9f6b43ac78ba3",
      "function": "approve(address,address,uint160,uint48)",
      "arguments": [
        "0x995D12a9099956e0dDe775475cc7f17895b52474",
        "0x7C5f5A4bBd8fD63184577525326123B519429bDc",
        "10000000000000000000000000000",
        "1792461851"
      ],
      "transaction": {
        "from": "0x2226ae701ecf96e27373e896f3ddbe8a9a676a30",
        "to": "0x000000000022d473030f116ddee9f6b43ac78ba3",
        "gas": "0x10128",
        "value": "0x0",
        "input": "0x87517c45000000000000000000000000995d12a9099956e0dde775475cc7f17895b524740000000000000000000000007c5f5a4bbd8fd63184577525326123b519429bdc0000000000000000000000000000000000000000204fce5e3e25026110000000000000000000000000000000000000000000000000000000000000006ad6cc1b",
        "nonce": "0x40",
        "chainId": "0x2105"
      },
      "additionalContracts": [],
      "isFixedGasLimit": false
    },
    {
      "hash": "0xf51bbaebea2a173dce6e355e3547651705b16e6aa5ef3113fed34156342f457c",
      "transactionType": "CALL",
      "contractName": "PositionManager",
      "contractAddress": "0x7c5f5a4bbd8fd63184577525326123b519429bdc",
      "function": "modifyLiquidities(bytes,uint256)",
      "arguments": [
        "0x00000000000000000000000000000000000000000000000000000000000000400000000000000000000000000000000000000000000000000000000000000080000000000000000000000000000000000000000000000000000000000000000602020202020d0000000000000000000000000000000000000000000000000000000000000000000000000000000000000000000000000000000000000000000600000000000000000000000000000000000000000000000000000000000000c000000000000000000000000000000000000000000000000000000000000002c000000000000000000000000000000000000000000000000000000000000004c000000000000000000000000000000000000000000000000000000000000006c000000000000000000000000000000000000000000000000000000000000008c00000000000000000000000000000000000000000000000000000000000000ac000000000000000000000000000000000000000000000000000000000000001e0000000000000000000000000995d12a9099956e0dde775475cc7f17895b52474000000000000000000000000d98413706f8c9f18d406544812e99568534352c8000000000000000000000000000000000000000000000000000000000000000000000000000000000000000000000000000000000000000000000000000000c8000000000000000000000000c6a995e1a75c1fae86c47d65344f28ced5548044fffffffffffffffffffffffffffffffffffffffffffffffffffffffffffc7c00fffffffffffffffffffffffffffffffffffffffffffffffffffffffffffcbc100000000000000000000000000000000000000000000003c28a47f596c70838ea0000000000000000000000000000000000000000033b2e3c9fd0803ce800000000000000000000000000000000000000000000000000000000000000000000000000000000000000000000002226ae701ecf96e27373e896f3ddbe8a9a676a30000000000000000000000000000000000000000000000000000000000000018000000000000000000000000000000000000000000000000000000000000000400000000000000000000000000000000000000000000000000000000000000020000000000000000000000000000000000000000000000000000000000000000000000000000000000000000000000000000000000000000000000000000001e0000000000000000000000000995d12a9099956e0dde775475cc7f17895b52474000000000000000000000000d98413706f8c9f18d406544812e99568534352c8000000000000000000000000000000000000000000000000000000000000000000000000000000000000000000000000000000000000000000000000000000c8000000000000000000000000c6a995e1a75c1fae86c47d65344f28ced5548044fffffffffffffffffffffffffffffffffffffffffffffffffffffffffffcbc10fffffffffffffffffffffffffffffffffffffffffffffffffffffffffffda288000000000000000000000000000000000000000000001933d2f0fcc3c4a81d9b00000000000000000000000000000000000000001027e72f1f1281308800000000000000000000000000000000000000000000000000000000000000000000000000000000000000000000002226ae701ecf96e27373e896f3ddbe8a9a676a30000000000000000000000000000000000000000000000000000000000000018000000000000000000000000000000000000000000000000000000000000000400000000000000000000000000000000000000000000000000000000000000020000000000000000000000000000000000000000000000000000000000000000000000000000000000000000000000000000000000000000000000000000001e0000000000000000000000000995d12a9099956e0dde775475cc7f17895b52474000000000000000000000000d98413706f8c9f18d406544812e99568534352c8000000000000000000000000000000000000000000000000000000000000000000000000000000000000000000000000000000000000000000000000000000c8000000000000000000000000c6a995e1a75c1fae86c47d65344f28ced5548044fffffffffffffffffffffffffffffffffffffffffffffffffffffffffffceaf0fffffffffffffffffffffffffffffffffffffffffffffffffffffffffffda288000000000000000000000000000000000000000000000e6e74e16047e486ad9c000000000000000000000000000000000000000004d8c55aefb8c05b5c00000000000000000000000000000000000000000000000000000000000000000000000000000000000000000000002226ae701ecf96e27373e896f3ddbe8a9a676a30000000000000000000000000000000000000000000000000000000000000018000000000000000000000000000000000000000000000000000000000000000400000000000000000000000000000000000000000000000000000000000000020000000000000000000000000000000000000000000000000000000000000000000000000000000000000000000000000000000000000000000000000000001e0000000000000000000000000995d12a9099956e0dde775475cc7f17895b52474000000000000000000000000d98413706f8c9f18d406544812e99568534352c8000000000000000000000000000000000000000000000000000000000000000000000000000000000000000000000000000000000000000000000000000000c8000000000000000000000000c6a995e1a75c1fae86c47d65344f28ced5548044fffffffffffffffffffffffffffffffffffffffffffffffffffffffffffda288fffffffffffffffffffffffffffffffffffffffffffffffffffffffffffe2b4000000000000000000000000000000000000000000000dce275bfe1ba5750554b000000000000000000000000000000000000000006765c793fa10079d000000000000000000000000000000000000000000000000000000000000000000000000000000000000000000000002226ae701ecf96e27373e896f3ddbe8a9a676a30000000000000000000000000000000000000000000000000000000000000018000000000000000000000000000000000000000000000000000000000000000400000000000000000000000000000000000000000000000000000000000000020000000000000000000000000000000000000000000000000000000000000000000000000000000000000000000000000000000000000000000000000000001e0000000000000000000000000995d12a9099956e0dde775475cc7f17895b52474000000000000000000000000d98413706f8c9f18d406544812e99568534352c8000000000000000000000000000000000000000000000000000000000000000000000000000000000000000000000000000000000000000000000000000000c8000000000000000000000000c6a995e1a75c1fae86c47d65344f28ced5548044fffffffffffffffffffffffffffffffffffffffffffffffffffffffffffdd938fffffffffffffffffffffffffffffffffffffffffffffffffffffffffffe2b40000000000000000000000000000000000000000000008d5555cda23fda1cf6a90000000000000000000000000000000000000000019d971e4fe8401e7400000000000000000000000000000000000000000000000000000000000000000000000000000000000000000000002226ae701ecf96e27373e896f3ddbe8a9a676a3000000000000000000000000000000000000000000000000000000000000001800000000000000000000000000000000000000000000000000000000000000040000000000000000000000000000000000000000000000000000000000000002000000000000000000000000000000000000000000000000000000000000000000000000000000000000000000000000000000000000000000000000000000040000000000000000000000000995d12a9099956e0dde775475cc7f17895b52474000000000000000000000000d98413706f8c9f18d406544812e99568534352c8",
        "1792461851"
      ],
      "transaction": {
        "from": "0x2226ae701ecf96e27373e896f3ddbe8a9a676a30",
        "to": "0x7c5f5a4bbd8fd63184577525326123b519429bdc",
        "gas": "0x12cb53",
        "value": "0x0",
        "input": "0xdd46508f0000000000000000000000000000000000000000000000000000000000000040000000000000000000000000000000000000000000000000000000006ad6cc1b0000000000000000000000000000000000000000000000000000000000000bc000000000000000000000000000000000000000000000000000000000000000400000000000000000000000000000000000000000000000000000000000000080000000000000000000000000000000000000000000000000000000000000000602020202020d0000000000000000000000000000000000000000000000000000000000000000000000000000000000000000000000000000000000000000000600000000000000000000000000000000000000000000000000000000000000c000000000000000000000000000000000000000000000000000000000000002c000000000000000000000000000000000000000000000000000000000000004c000000000000000000000000000000000000000000000000000000000000006c000000000000000000000000000000000000000000000000000000000000008c00000000000000000000000000000000000000000000000000000000000000ac000000000000000000000000000000000000000000000000000000000000001e0000000000000000000000000995d12a9099956e0dde775475cc7f17895b52474000000000000000000000000d98413706f8c9f18d406544812e99568534352c8000000000000000000000000000000000000000000000000000000000000000000000000000000000000000000000000000000000000000000000000000000c8000000000000000000000000c6a995e1a75c1fae86c47d65344f28ced5548044fffffffffffffffffffffffffffffffffffffffffffffffffffffffffffc7c00fffffffffffffffffffffffffffffffffffffffffffffffffffffffffffcbc100000000000000000000000000000000000000000000003c28a47f596c70838ea0000000000000000000000000000000000000000033b2e3c9fd0803ce800000000000000000000000000000000000000000000000000000000000000000000000000000000000000000000002226ae701ecf96e27373e896f3ddbe8a9a676a30000000000000000000000000000000000000000000000000000000000000018000000000000000000000000000000000000000000000000000000000000000400000000000000000000000000000000000000000000000000000000000000020000000000000000000000000000000000000000000000000000000000000000000000000000000000000000000000000000000000000000000000000000001e0000000000000000000000000995d12a9099956e0dde775475cc7f17895b52474000000000000000000000000d98413706f8c9f18d406544812e99568534352c8000000000000000000000000000000000000000000000000000000000000000000000000000000000000000000000000000000000000000000000000000000c8000000000000000000000000c6a995e1a75c1fae86c47d65344f28ced5548044fffffffffffffffffffffffffffffffffffffffffffffffffffffffffffcbc10fffffffffffffffffffffffffffffffffffffffffffffffffffffffffffda288000000000000000000000000000000000000000000001933d2f0fcc3c4a81d9b00000000000000000000000000000000000000001027e72f1f1281308800000000000000000000000000000000000000000000000000000000000000000000000000000000000000000000002226ae701ecf96e27373e896f3ddbe8a9a676a30000000000000000000000000000000000000000000000000000000000000018000000000000000000000000000000000000000000000000000000000000000400000000000000000000000000000000000000000000000000000000000000020000000000000000000000000000000000000000000000000000000000000000000000000000000000000000000000000000000000000000000000000000001e0000000000000000000000000995d12a9099956e0dde775475cc7f17895b52474000000000000000000000000d98413706f8c9f18d406544812e99568534352c8000000000000000000000000000000000000000000000000000000000000000000000000000000000000000000000000000000000000000000000000000000c8000000000000000000000000c6a995e1a75c1fae86c47d65344f28ced5548044fffffffffffffffffffffffffffffffffffffffffffffffffffffffffffceaf0fffffffffffffffffffffffffffffffffffffffffffffffffffffffffffda288000000000000000000000000000000000000000000000e6e74e16047e486ad9c000000000000000000000000000000000000000004d8c55aefb8c05b5c00000000000000000000000000000000000000000000000000000000000000000000000000000000000000000000002226ae701ecf96e27373e896f3ddbe8a9a676a30000000000000000000000000000000000000000000000000000000000000018000000000000000000000000000000000000000000000000000000000000000400000000000000000000000000000000000000000000000000000000000000020000000000000000000000000000000000000000000000000000000000000000000000000000000000000000000000000000000000000000000000000000001e0000000000000000000000000995d12a9099956e0dde775475cc7f17895b52474000000000000000000000000d98413706f8c9f18d406544812e99568534352c8000000000000000000000000000000000000000000000000000000000000000000000000000000000000000000000000000000000000000000000000000000c8000000000000000000000000c6a995e1a75c1fae86c47d65344f28ced5548044fffffffffffffffffffffffffffffffffffffffffffffffffffffffffffda288fffffffffffffffffffffffffffffffffffffffffffffffffffffffffffe2b4000000000000000000000000000000000000000000000dce275bfe1ba5750554b000000000000000000000000000000000000000006765c793fa10079d000000000000000000000000000000000000000000000000000000000000000000000000000000000000000000000002226ae701ecf96e27373e896f3ddbe8a9a676a30000000000000000000000000000000000000000000000000000000000000018000000000000000000000000000000000000000000000000000000000000000400000000000000000000000000000000000000000000000000000000000000020000000000000000000000000000000000000000000000000000000000000000000000000000000000000000000000000000000000000000000000000000001e0000000000000000000000000995d12a9099956e0dde775475cc7f17895b52474000000000000000000000000d98413706f8c9f18d406544812e99568534352c8000000000000000000000000000000000000000000000000000000000000000000000000000000000000000000000000000000000000000000000000000000c8000000000000000000000000c6a995e1a75c1fae86c47d65344f28ced5548044fffffffffffffffffffffffffffffffffffffffffffffffffffffffffffdd938fffffffffffffffffffffffffffffffffffffffffffffffffffffffffffe2b40000000000000000000000000000000000000000000008d5555cda23fda1cf6a90000000000000000000000000000000000000000019d971e4fe8401e7400000000000000000000000000000000000000000000000000000000000000000000000000000000000000000000002226ae701ecf96e27373e896f3ddbe8a9a676a3000000000000000000000000000000000000000000000000000000000000001800000000000000000000000000000000000000000000000000000000000000040000000000000000000000000000000000000000000000000000000000000002000000000000000000000000000000000000000000000000000000000000000000000000000000000000000000000000000000000000000000000000000000040000000000000000000000000995d12a9099956e0dde775475cc7f17895b52474000000000000000000000000d98413706f8c9f18d406544812e99568534352c8",
        "nonce": "0x41",
        "chainId": "0x2105"
      },
      "additionalContracts": [],
      "isFixedGasLimit": false
    }
  ],
  "receipts": [
    {
      "status": "0x1",
      "cumulativeGasUsed": "0x121e430",
      "logs": [
        {
          "address": "0x498581ff718922c3f8e6a244956af099b2652b2b",
          "topics": [
            "0xdd466e674ea557f56295e2d0218a125ea4b4f0f6f3307b95f85e6110838d6438",
            "0x86ca393b3d5373bc9fe22bbb138dab30ee3583afec01e1268d3e21ecbaf1c708",
            "0x000000000000000000000000995d12a9099956e0dde775475cc7f17895b52474",
            "0x000000000000000000000000d98413706f8c9f18d406544812e99568534352c8"
          ],
          "data": "0x000000000000000000000000000000000000000000000000000000000000000000000000000000000000000000000000000000000000000000000000000000c8000000000000000000000000c6a995e1a75c1fae86c47d65344f28ced554804400000000000000000000000000000000000000000000a6af776004abf4e612adfffffffffffffffffffffffffffffffffffffffffffffffffffffffffffc7c00",
          "blockHash": "0x9f44727df045deb4081d30e08ff97c590dbed77721279b6990ccdf48527f3f30",
          "blockNumber": "0x2359de0",
          "blockTimestamp": "0x68f598a3",
          "transactionHash": "0x78dd0d26ffff4badf5e5986ba483db4cd0834f0e8283d88d228ef137a553332a",
          "transactionIndex": "0x5c",
          "logIndex": "0x142",
          "removed": false
        }
      ],
      "logsBloom": "0x00000000000020000000000000002000000000000000008000000000000000000000000000000000004000000000000000000000000000000000000000000000000000000000000000000000000000000000080000000000000000000000000000000000000000000000000000000000000800000000000000000000000000000000000000004008000000000000000000000001000000000000000000200000000000000000000000004000000000000000000000000000000000000000000000000020000000000000000000000000000800008000000000000000000000000000000000000000000000000000000000000400000000000000000000000000",
      "type": "0x2",
      "transactionHash": "0x78dd0d26ffff4badf5e5986ba483db4cd0834f0e8283d88d228ef137a553332a",
      "transactionIndex": "0x5c",
      "blockHash": "0x9f44727df045deb4081d30e08ff97c590dbed77721279b6990ccdf48527f3f30",
      "blockNumber": "0x2359de0",
      "gasUsed": "0xcb16",
      "effectiveGasPrice": "0x1257fe",
      "from": "0x2226ae701ecf96e27373e896f3ddbe8a9a676a30",
      "to": "0x498581ff718922c3f8e6a244956af099b2652b2b",
      "contractAddress": null,
      "l1BaseFeeScalar": "0x8dd",
      "l1BlobBaseFee": "0x1",
      "l1BlobBaseFeeScalar": "0x101c12",
      "l1Fee": "0x20244e06",
      "l1GasPrice": "0x68798e3",
      "l1GasUsed": "0x879"
    },
    {
      "status": "0x1",
      "cumulativeGasUsed": "0x1229a8f",
      "logs": [
        {
          "address": "0x995d12a9099956e0dde775475cc7f17895b52474",
          "topics": [
            "0x8c5be1e5ebec7d5bd14f71427d1e84f3dd0314c0f7b2291e5b200ac8c7c3b925",
            "0x0000000000000000000000002226ae701ecf96e27373e896f3ddbe8a9a676a30",
            "0x000000000000000000000000000000000022d473030f116ddee9f6b43ac78ba3"
          ],
          "data": "0x0000000000000000000000000000000000000000204fce5e3e25026110000000",
          "blockHash": "0x9f44727df045deb4081d30e08ff97c590dbed77721279b6990ccdf48527f3f30",
          "blockNumber": "0x2359de0",
          "blockTimestamp": "0x68f598a3",
          "transactionHash": "0x8ab0799951ed54e6da841ef5beb7595be082ae1b4f72d5c914aefcf2300733fc",
          "transactionIndex": "0x5d",
          "logIndex": "0x143",
          "removed": false
        }
      ],
      "logsBloom": "0x00000000000000000000000000000000000000000000000000000010000000010000000000000000000000000000000000000010800000000000000000200000000000000000000000004000000000000000000000000800000000000000000000000000000000000000000000000000000000000000000000000000000000000000000000000002000000002000000000000000000000000000000000000000020000000000000000200000000000000000000000000000000000000000000000000000000000000000000000000000000000000000000000000000000000000010000000000000000000000000000000000000000000000000000000000000",
      "type": "0x2",
      "transactionHash": "0x8ab0799951ed54e6da841ef5beb7595be082ae1b4f72d5c914aefcf2300733fc",
      "transactionIndex": "0x5d",
      "blockHash": "0x9f44727df045deb4081d30e08ff97c590dbed77721279b6990ccdf48527f3f30",
      "blockNumber": "0x2359de0",
      "gasUsed": "0xb65f",
      "effectiveGasPrice": "0x1257fe",
      "from": "0x2226ae701ecf96e27373e896f3ddbe8a9a676a30",
      "to": "0x995d12a9099956e0dde775475cc7f17895b52474",
      "contractAddress": null,
      "l1BaseFeeScalar": "0x8dd",
      "l1BlobBaseFee": "0x1",
      "l1BlobBaseFeeScalar": "0x101c12",
      "l1Fee": "0x17b49171",
      "l1GasPrice": "0x68798e3",
      "l1GasUsed": "0x640"
    },
    {
      "status": "0x1",
      "cumulativeGasUsed": "0x12354bd",
      "logs": [
        {
          "address": "0x000000000022d473030f116ddee9f6b43ac78ba3",
          "topics": [
            "0xda9fa7c1b00402c17d0161b249b1ab8bbec047c5a52207b9c112deffd817036b",
            "0x0000000000000000000000002226ae701ecf96e27373e896f3ddbe8a9a676a30",
            "0x000000000000000000000000995d12a9099956e0dde775475cc7f17895b52474",
            "0x0000000000000000000000007c5f5a4bbd8fd63184577525326123b519429bdc"
          ],
          "data": "0x0000000000000000000000000000000000000000204fce5e3e25026110000000000000000000000000000000000000000000000000000000000000006ad6cc1b",
          "blockHash": "0x9f44727df045deb4081d30e08ff97c590dbed77721279b6990ccdf48527f3f30",
          "blockNumber": "0x2359de0",
          "blockTimestamp": "0x68f598a3",
          "transactionHash": "0x67d63566c817b022be76ae395d328ea1728536f3a94de431fa1dbd1e1a73de53",
          "transactionIndex": "0x5e",
          "logIndex": "0x144",
          "removed": false
        }
      ],
      "logsBloom": "0x00010000000020000000000000000000000000000000000000000010000000000000000000000000000000000000000000000010000000000000000000082000000000000000000000000000000000000000000000000000000000000000000000000000000000000000000000000000000000000000000000000000000000000020000000000000000000002000000000000000000000000000000000000000000000000000000000000000000000000000000000000000000000080000000200000020000000000000000000000000000000008000000040000000000000000000000000000000000000000000000000000000002000000000000000000400",
      "type": "0x2",
      "transactionHash": "0x67d63566c817b022be76ae395d328ea1728536f3a94de431fa1dbd1e1a73de53",
      "transactionIndex": "0x5e",
      "blockHash": "0x9f44727df045deb4081d30e08ff97c590dbed77721279b6990ccdf48527f3f30",
      "blockNumber": "0x2359de0",
      "gasUsed": "0xba2e",
      "effectiveGasPrice": "0x1257fe",
      "from": "0x2226ae701ecf96e27373e896f3ddbe8a9a676a30",
      "to": "0x000000000022d473030f116ddee9f6b43ac78ba3",
      "contractAddress": null,
      "l1BaseFeeScalar": "0x8dd",
      "l1BlobBaseFee": "0x1",
      "l1BlobBaseFeeScalar": "0x101c12",
      "l1Fee": "0x1c2d0888",
      "l1GasPrice": "0x68798e3",
      "l1GasUsed": "0x76d"
    },
    {
      "status": "0x1",
      "cumulativeGasUsed": "0x130f00d",
      "logs": [
        {
          "address": "0x7c5f5a4bbd8fd63184577525326123b519429bdc",
          "topics": [
            "0xddf252ad1be2c89b69c2b068fc378daa952ba7f163c4a11628f55a4df523b3ef",
            "0x0000000000000000000000000000000000000000000000000000000000000000",
            "0x0000000000000000000000002226ae701ecf96e27373e896f3ddbe8a9a676a30",
            "0x0000000000000000000000000000000000000000000000000000000000062a8e"
          ],
          "data": "0x",
          "blockHash": "0x9f44727df045deb4081d30e08ff97c590dbed77721279b6990ccdf48527f3f30",
          "blockNumber": "0x2359de0",
          "blockTimestamp": "0x68f598a3",
          "transactionHash": "0xf51bbaebea2a173dce6e355e3547651705b16e6aa5ef3113fed34156342f457c",
          "transactionIndex": "0x5f",
          "logIndex": "0x145",
          "removed": false
        },
        {
          "address": "0x498581ff718922c3f8e6a244956af099b2652b2b",
          "topics": [
            "0xf208f4912782fd25c7f114ca3723a2d5dd6f3bcc3ac8db5af63baa85f711d5ec",
            "0x86ca393b3d5373bc9fe22bbb138dab30ee3583afec01e1268d3e21ecbaf1c708",
            "0x0000000000000000000000007c5f5a4bbd8fd63184577525326123b519429bdc"
          ],
          "data": "0xfffffffffffffffffffffffffffffffffffffffffffffffffffffffffffc7c00fffffffffffffffffffffffffffffffffffffffffffffffffffffffffffcbc100000000000000000000000000000000000000000000003c28a47f596c70838ea0000000000000000000000000000000000000000000000000000000000062a8e",
          "blockHash": "0x9f44727df045deb4081d30e08ff97c590dbed77721279b6990ccdf48527f3f30",
          "blockNumber": "0x2359de0",
          "blockTimestamp": "0x68f598a3",
          "transactionHash": "0xf51bbaebea2a173dce6e355e3547651705b16e6aa5ef3113fed34156342f457c",
          "transactionIndex": "0x5f",
          "logIndex": "0x146",
          "removed": false
        },
        {
          "address": "0x7c5f5a4bbd8fd63184577525326123b519429bdc",
          "topics": [
            "0xddf252ad1be2c89b69c2b068fc378daa952ba7f163c4a11628f55a4df523b3ef",
            "0x0000000000000000000000000000000000000000000000000000000000000000",
            "0x0000000000000000000000002226ae701ecf96e27373e896f3ddbe8a9a676a30",
            "0x0000000000000000000000000000000000000000000000000000000000062a8f"
          ],
          "data": "0x",
          "blockHash": "0x9f44727df045deb4081d30e08ff97c590dbed77721279b6990ccdf48527f3f30",
          "blockNumber": "0x2359de0",
          "blockTimestamp": "0x68f598a3",
          "transactionHash": "0xf51bbaebea2a173dce6e355e3547651705b16e6aa5ef3113fed34156342f457c",
          "transactionIndex": "0x5f",
          "logIndex": "0x147",
          "removed": false
        },
        {
          "address": "0x498581ff718922c3f8e6a244956af099b2652b2b",
          "topics": [
            "0xf208f4912782fd25c7f114ca3723a2d5dd6f3bcc3ac8db5af63baa85f711d5ec",
            "0x86ca393b3d5373bc9fe22bbb138dab30ee3583afec01e1268d3e21ecbaf1c708",
            "0x0000000000000000000000007c5f5a4bbd8fd63184577525326123b519429bdc"
          ],
          "data": "0xfffffffffffffffffffffffffffffffffffffffffffffffffffffffffffcbc10fffffffffffffffffffffffffffffffffffffffffffffffffffffffffffda288000000000000000000000000000000000000000000001933d2f0fcc3c4a81d9b0000000000000000000000000000000000000000000000000000000000062a8f",
          "blockHash": "0x9f44727df045deb4081d30e08ff97c590dbed77721279b6990ccdf48527f3f30",
          "blockNumber": "0x2359de0",
          "blockTimestamp": "0x68f598a3",
          "transactionHash": "0xf51bbaebea2a173dce6e355e3547651705b16e6aa5ef3113fed34156342f457c",
          "transactionIndex": "0x5f",
          "logIndex": "0x148",
          "removed": false
        },
        {
          "address": "0x7c5f5a4bbd8fd63184577525326123b519429bdc",
          "topics": [
            "0xddf252ad1be2c89b69c2b068fc378daa952ba7f163c4a11628f55a4df523b3ef",
            "0x0000000000000000000000000000000000000000000000000000000000000000",
            "0x0000000000000000000000002226ae701ecf96e27373e896f3ddbe8a9a676a30",
            "0x0000000000000000000000000000000000000000000000000000000000062a90"
          ],
          "data": "0x",
          "blockHash": "0x9f44727df045deb4081d30e08ff97c590dbed77721279b6990ccdf48527f3f30",
          "blockNumber": "0x2359de0",
          "blockTimestamp": "0x68f598a3",
          "transactionHash": "0xf51bbaebea2a173dce6e355e3547651705b16e6aa5ef3113fed34156342f457c",
          "transactionIndex": "0x5f",
          "logIndex": "0x149",
          "removed": false
        },
        {
          "address": "0x498581ff718922c3f8e6a244956af099b2652b2b",
          "topics": [
            "0xf208f4912782fd25c7f114ca3723a2d5dd6f3bcc3ac8db5af63baa85f711d5ec",
            "0x86ca393b3d5373bc9fe22bbb138dab30ee3583afec01e1268d3e21ecbaf1c708",
            "0x0000000000000000000000007c5f5a4bbd8fd63184577525326123b519429bdc"
          ],
          "data": "0xfffffffffffffffffffffffffffffffffffffffffffffffffffffffffffceaf0fffffffffffffffffffffffffffffffffffffffffffffffffffffffffffda288000000000000000000000000000000000000000000000e6e74e16047e486ad9c0000000000000000000000000000000000000000000000000000000000062a90",
          "blockHash": "0x9f44727df045deb4081d30e08ff97c590dbed77721279b6990ccdf48527f3f30",
          "blockNumber": "0x2359de0",
          "blockTimestamp": "0x68f598a3",
          "transactionHash": "0xf51bbaebea2a173dce6e355e3547651705b16e6aa5ef3113fed34156342f457c",
          "transactionIndex": "0x5f",
          "logIndex": "0x14a",
          "removed": false
        },
        {
          "address": "0x7c5f5a4bbd8fd63184577525326123b519429bdc",
          "topics": [
            "0xddf252ad1be2c89b69c2b068fc378daa952ba7f163c4a11628f55a4df523b3ef",
            "0x0000000000000000000000000000000000000000000000000000000000000000",
            "0x0000000000000000000000002226ae701ecf96e27373e896f3ddbe8a9a676a30",
            "0x0000000000000000000000000000000000000000000000000000000000062a91"
          ],
          "data": "0x",
          "blockHash": "0x9f44727df045deb4081d30e08ff97c590dbed77721279b6990ccdf48527f3f30",
          "blockNumber": "0x2359de0",
          "blockTimestamp": "0x68f598a3",
          "transactionHash": "0xf51bbaebea2a173dce6e355e3547651705b16e6aa5ef3113fed34156342f457c",
          "transactionIndex": "0x5f",
          "logIndex": "0x14b",
          "removed": false
        },
        {
          "address": "0x498581ff718922c3f8e6a244956af099b2652b2b",
          "topics": [
            "0xf208f4912782fd25c7f114ca3723a2d5dd6f3bcc3ac8db5af63baa85f711d5ec",
            "0x86ca393b3d5373bc9fe22bbb138dab30ee3583afec01e1268d3e21ecbaf1c708",
            "0x0000000000000000000000007c5f5a4bbd8fd63184577525326123b519429bdc"
          ],
          "data": "0xfffffffffffffffffffffffffffffffffffffffffffffffffffffffffffda288fffffffffffffffffffffffffffffffffffffffffffffffffffffffffffe2b4000000000000000000000000000000000000000000000dce275bfe1ba5750554b0000000000000000000000000000000000000000000000000000000000062a91",
          "blockHash": "0x9f44727df045deb4081d30e08ff97c590dbed77721279b6990ccdf48527f3f30",
          "blockNumber": "0x2359de0",
          "blockTimestamp": "0x68f598a3",
          "transactionHash": "0xf51bbaebea2a173dce6e355e3547651705b16e6aa5ef3113fed34156342f457c",
          "transactionIndex": "0x5f",
          "logIndex": "0x14c",
          "removed": false
        },
        {
          "address": "0x7c5f5a4bbd8fd63184577525326123b519429bdc",
          "topics": [
            "0xddf252ad1be2c89b69c2b068fc378daa952ba7f163c4a11628f55a4df523b3ef",
            "0x0000000000000000000000000000000000000000000000000000000000000000",
            "0x0000000000000000000000002226ae701ecf96e27373e896f3ddbe8a9a676a30",
            "0x0000000000000000000000000000000000000000000000000000000000062a92"
          ],
          "data": "0x",
          "blockHash": "0x9f44727df045deb4081d30e08ff97c590dbed77721279b6990ccdf48527f3f30",
          "blockNumber": "0x2359de0",
          "blockTimestamp": "0x68f598a3",
          "transactionHash": "0xf51bbaebea2a173dce6e355e3547651705b16e6aa5ef3113fed34156342f457c",
          "transactionIndex": "0x5f",
          "logIndex": "0x14d",
          "removed": false
        },
        {
          "address": "0x498581ff718922c3f8e6a244956af099b2652b2b",
          "topics": [
            "0xf208f4912782fd25c7f114ca3723a2d5dd6f3bcc3ac8db5af63baa85f711d5ec",
            "0x86ca393b3d5373bc9fe22bbb138dab30ee3583afec01e1268d3e21ecbaf1c708",
            "0x0000000000000000000000007c5f5a4bbd8fd63184577525326123b519429bdc"
          ],
          "data": "0xfffffffffffffffffffffffffffffffffffffffffffffffffffffffffffdd938fffffffffffffffffffffffffffffffffffffffffffffffffffffffffffe2b40000000000000000000000000000000000000000000008d5555cda23fda1cf6a90000000000000000000000000000000000000000000000000000000000062a92",
          "blockHash": "0x9f44727df045deb4081d30e08ff97c590dbed77721279b6990ccdf48527f3f30",
          "blockNumber": "0x2359de0",
          "blockTimestamp": "0x68f598a3",
          "transactionHash": "0xf51bbaebea2a173dce6e355e3547651705b16e6aa5ef3113fed34156342f457c",
          "transactionIndex": "0x5f",
          "logIndex": "0x14e",
          "removed": false
        },
        {
          "address": "0x995d12a9099956e0dde775475cc7f17895b52474",
          "topics": [
            "0xddf252ad1be2c89b69c2b068fc378daa952ba7f163c4a11628f55a4df523b3ef",
            "0x0000000000000000000000002226ae701ecf96e27373e896f3ddbe8a9a676a30",
            "0x000000000000000000000000498581ff718922c3f8e6a244956af099b2652b2b"
          ],
          "data": "0x0000000000000000000000000000000000000000204fce5e3e2502610f29c892",
          "blockHash": "0x9f44727df045deb4081d30e08ff97c590dbed77721279b6990ccdf48527f3f30",
          "blockNumber": "0x2359de0",
          "blockTimestamp": "0x68f598a3",
          "transactionHash": "0xf51bbaebea2a173dce6e355e3547651705b16e6aa5ef3113fed34156342f457c",
          "transactionIndex": "0x5f",
          "logIndex": "0x14f",
          "removed": false
        }
      ],
      "logsBloom": "0x00000000008000010000000000000000000000000200008000000010000000010020000000000000004000000000000000000010000000000040000200002000000000000000000000000008000000020000000000004000000010000000000000000000020000000000000000000800040800000000000000000010000000000000010001004006000000002000000000000000000000000000000400000000004004000000000008200002000000000000000000000000000000000000000200000002000001000001000000000000000800000000000000000000000022000000000000000000000100000000000004000400002000004000000000000000",
      "type": "0x2",
      "transactionHash": "0xf51bbaebea2a173dce6e355e3547651705b16e6aa5ef3113fed34156342f457c",
      "transactionIndex": "0x5f",
      "blockHash": "0x9f44727df045deb4081d30e08ff97c590dbed77721279b6990ccdf48527f3f30",
      "blockNumber": "0x2359de0",
      "gasUsed": "0xd9b50",
      "effectiveGasPrice": "0x1257fe",
      "from": "0x2226ae701ecf96e27373e896f3ddbe8a9a676a30",
      "to": "0x7c5f5a4bbd8fd63184577525326123b519429bdc",
      "contractAddress": null,
      "l1BaseFeeScalar": "0x8dd",
      "l1BlobBaseFee": "0x1",
      "l1BlobBaseFeeScalar": "0x101c12",
      "l1Fee": "0x69501021",
      "l1GasPrice": "0x68798e3",
      "l1GasUsed": "0x1bc4"
    }
  ],
  "libraries": [],
  "pending": [],
  "returns": {},
  "timestamp": 1760925859,
  "chain": 8453,
  "commit": "65077fa"
}