{
  "transactions": [
    {
      "hash": "0xf864959dabeac87cba2132d6bf3b641b962d1521d05b756a1d0807fc44cb3e92",
      "transactionType": "CALL",
      "contractName": null,
      "contractAddress": "0x498581ff718922c3f8e6a244956af099b2652b2b",
      "function": "initialize((address,address,uint24,int24,address),uint160)",
      "arguments": [
        "(0x6a851098f207A1B2FD7D2393100702fC763BaF4c, 0xFda4F52264b9edCf18011F755397c31a30c0C9C1, 0, 200, 0x9894703d41FD1Ff4aA5f88951F07bEcDDD83C044)",
        "788646028052082204129091943"
      ],
      "transaction": {
        "from": "0x2226ae701ecf96e27373e896f3ddbe8a9a676a30",
        "to": "0x498581ff718922c3f8e6a244956af099b2652b2b",
        "gas": "0x118fb",
        "value": "0x0",
        "input": "0x6276cbbe0000000000000000000000006a851098f207a1b2fd7d2393100702fc763baf4c000000000000000000000000fda4f52264b9edcf18011f755397c31a30c0c9c1000000000000000000000000000000000000000000000000000000000000000000000000000000000000000000000000000000000000000000000000000000c80000000000000000000000009894703d41fd1ff4aa5f88951f07becddd83c0440000000000000000000000000000000000000000028c5a4ad8c850e6c6ebe167",
        "nonce": "0x4b",
        "chainId": "0x2105"
      },
      "additionalContracts": [],
      "isFixedGasLimit": false
    },
    {
      "hash": "0xbd806e52420f77be95c70c5f2f5935380e69239914fa40a0052cc5cebd17cf1c",
      "transactionType": "CALL",
      "contractName": null,
      "contractAddress": "0x6a851098f207a1b2fd7d2393100702fc763baf4c",
      "function": "approve(address,uint256)",
      "arguments": [
        "0x000000000022D473030F116dDEE9F6B43aC78BA3",
        "10000000000000000000000000000"
      ],
      "transaction": {
        "from": "0x2226ae701ecf96e27373e896f3ddbe8a9a676a30",
        "to": "0x6a851098f207a1b2fd7d2393100702fc763baf4c",
        "gas": "0xfbe5",
        "value": "0x0",
        "input": "0x095ea7b3000000000000000000000000000000000022d473030f116ddee9f6b43ac78ba30000000000000000000000000000000000000000204fce5e3e25026110000000",
        "nonce": "0x4c",
        "chainId": "0x2105"
      },
      "additionalContracts": [],
      "isFixedGasLimit": false
    },
    {
      "hash": "0x1623c45def4527a13590e0b859f180450d2568e2a20d907c3e62a77b5d233ed3",
      "transactionType": "CALL",
      "contractName": null,
      "contractAddress": "0x000000000022d473030f116ddee9f6b43ac78ba3",
      "function": "approve(address,address,uint160,uint48)",
      "arguments": [
        "0x6a851098f207A1B2FD7D2393100702fC763BaF4c",
        "0x7C5f5A4bBd8fD63184577525326123B519429bDc",
        "10000000000000000000000000000",
        "1792699533"
      ],
      "transaction": {
        "from": "0x2226ae701ecf96e27373e896f3ddbe8a9a676a30",
        "to": "0x000000000022d473030f116ddee9f6b43ac78ba3",
        "gas": "0x10128",
        "value": "0x0",
        "input": "0x87517c450000000000000000000000006a851098f207a1b2fd7d2393100702fc763baf4c0000000000000000000000007c5f5a4bbd8fd63184577525326123b519429bdc0000000000000000000000000000000000000000204fce5e3e25026110000000000000000000000000000000000000000000000000000000000000006ada6c8d",
        "nonce": "0x4d",
        "chainId": "0x2105"
      },
      "additionalContracts": [],
      "isFixedGasLimit": false
    },
    {
      "hash": "0x82db542abaaa92fff8b98eca1fe479df11a01224163d7aeead6efaa7879d7d0a",
      "transactionType": "CALL",
      "contractName": "PositionManager",
      "contractAddress": "0x7c5f5a4bbd8fd63184577525326123b519429bdc",
      "function": "modifyLiquidities(bytes,uint256)",
      "arguments": [
        "0x00000000000000000000000000000000000000000000000000000000000000400000000000000000000000000000000000000000000000000000000000000080000000000000000000000000000000000000000000000000000000000000000602020202020d0000000000000000000000000000000000000000000000000000000000000000000000000000000000000000000000000000000000000000000600000000000000000000000000000000000000000000000000000000000000c000000000000000000000000000000000000000000000000000000000000002c000000000000000000000000000000000000000000000000000000000000004c000000000000000000000000000000000000000000000000000000000000006c000000000000000000000000000000000000000000000000000000000000008c00000000000000000000000000000000000000000000000000000000000000ac000000000000000000000000000000000000000000000000000000000000001e00000000000000000000000006a851098f207a1b2fd7d2393100702fc763baf4c000000000000000000000000fda4f52264b9edcf18011f755397c31a30c0c9c1000000000000000000000000000000000000000000000000000000000000000000000000000000000000000000000000000000000000000000000000000000c80000000000000000000000009894703d41fd1ff4aa5f88951f07becddd83c044fffffffffffffffffffffffffffffffffffffffffffffffffffffffffffe97d8fffffffffffffffffffffffffffffffffffffffffffffffffffffffffffeb71800000000000000000000000000000000000000000063e7b9af2c36e427cc001b00000000000000000000000000000000000000000cecb8f27f4200f3a000000000000000000000000000000000000000000000000000000000000000000000000000000000000000000000002226ae701ecf96e27373e896f3ddbe8a9a676a30000000000000000000000000000000000000000000000000000000000000018000000000000000000000000000000000000000000000000000000000000000400000000000000000000000000000000000000000000000000000000000000020000000000000000000000000000000000000000000000000000000000000000000000000000000000000000000000000000000000000000000000000000001e00000000000000000000000006a851098f207a1b2fd7d2393100702fc763baf4c000000000000000000000000fda4f52264b9edcf18011f755397c31a30c0c9c1000000000000000000000000000000000000000000000000000000000000000000000000000000000000000000000000000000000000000000000000000000c80000000000000000000000009894703d41fd1ff4aa5f88951f07becddd83c044fffffffffffffffffffffffffffffffffffffffffffffffffffffffffffeb718fffffffffffffffffffffffffffffffffffffffffffffffffffffffffffed6580000000000000000000000000000000000000000004a84de2a9676b3e9f350cf000000000000000000000000000000000000000006765c793fa10079d000000000000000000000000000000000000000000000000000000000000000000000000000000000000000000000002226ae701ecf96e27373e896f3ddbe8a9a676a30000000000000000000000000000000000000000000000000000000000000018000000000000000000000000000000000000000000000000000000000000000400000000000000000000000000000000000000000000000000000000000000020000000000000000000000000000000000000000000000000000000000000000000000000000000000000000000000000000000000000000000000000000001e00000000000000000000000006a851098f207a1b2fd7d2393100702fc763baf4c000000000000000000000000fda4f52264b9edcf18011f755397c31a30c0c9c1000000000000000000000000000000000000000000000000000000000000000000000000000000000000000000000000000000000000000000000000000000c80000000000000000000000009894703d41fd1ff4aa5f88951f07becddd83c044fffffffffffffffffffffffffffffffffffffffffffffffffffffffffffed658fffffffffffffffffffffffffffffffffffffffffffffffffffffffffffef59800000000000000000000000000000000000000000042b3439a190bb8cf3545e5000000000000000000000000000000000000000003e09de2596099e2b000000000000000000000000000000000000000000000000000000000000000000000000000000000000000000000002226ae701ecf96e27373e896f3ddbe8a9a676a30000000000000000000000000000000000000000000000000000000000000018000000000000000000000000000000000000000000000000000000000000000400000000000000000000000000000000000000000000000000000000000000020000000000000000000000000000000000000000000000000000000000000000000000000000000000000000000000000000000000000000000000000000001e00000000000000000000000006a851098f207a1b2fd7d2393100702fc763baf4c000000000000000000000000fda4f52264b9edcf18011f755397c31a30c0c9c1000000000000000000000000000000000000000000000000000000000000000000000000000000000000000000000000000000000000000000000000000000c80000000000000000000000009894703d41fd1ff4aa5f88951f07becddd83c044fffffffffffffffffffffffffffffffffffffffffffffffffffffffffffef598ffffffffffffffffffffffffffffffffffffffffffffffffffffffffffff14d80000000000000000000000000000000000000000004255dc5ec4839730cefb6a00000000000000000000000000000000000000000295be96e64066972000000000000000000000000000000000000000000000000000000000000000000000000000000000000000000000002226ae701ecf96e27373e896f3ddbe8a9a676a30000000000000000000000000000000000000000000000000000000000000018000000000000000000000000000000000000000000000000000000000000000400000000000000000000000000000000000000000000000000000000000000020000000000000000000000000000000000000000000000000000000000000000000000000000000000000000000000000000000000000000000000000000001e00000000000000000000000006a851098f207a1b2fd7d2393100702fc763baf4c000000000000000000000000fda4f52264b9edcf18011f755397c31a30c0c9c1000000000000000000000000000000000000000000000000000000000000000000000000000000000000000000000000000000000000000000000000000000c80000000000000000000000009894703d41fd1ff4aa5f88951f07becddd83c044ffffffffffffffffffffffffffffffffffffffffffffffffffffffffffff14d8000000000000000000000000000000000000000000000000000000000000000000000000000000000000000000000000000000000055c9ab9aafb527780fc6c6000000000000000000000000000000000000000006765c793fa10079d000000000000000000000000000000000000000000000000000000000000000000000000000000000000000000000002226ae701ecf96e27373e896f3ddbe8a9a676a30000000000000000000000000000000000000000000000000000000000000018000000000000000000000000000000000000000000000000000000000000000400000000000000000000000000000000000000000000000000000000000000020000000000000000000000000000000000000000000000000000000000000000000000000000000000000000000000000000000000000000000000000000000400000000000000000000000006a851098f207a1b2fd7d2393100702fc763baf4c000000000000000000000000fda4f52264b9edcf18011f755397c31a30c0c9c1",
        "1792699533"
      ],
      "transaction": {
        "from": "0x2226ae701ecf96e27373e896f3ddbe8a9a676a30",
        "to": "0x7c5f5a4bbd8fd63184577525326123b519429bdc",
        "gas": "0x136528",
        "value": "0x0",
        "input": "0xdd46508f0000000000000000000000000000000000000000000000000000000000000040000000000000000000000000000000000000000000000000000000006ada6c8d0000000000000000000000000000000000000000000000000000000000000bc000000000000000000000000000000000000000000000000000000000000000400000000000000000000000000000000000000000000000000000000000000080000000000000000000000000000000000000000000000000000000000000000602020202020d0000000000000000000000000000000000000000000000000000000000000000000000000000000000000000000000000000000000000000000600000000000000000000000000000000000000000000000000000000000000c000000000000000000000000000000000000000000000000000000000000002c000000000000000000000000000000000000000000000000000000000000004c000000000000000000000000000000000000000000000000000000000000006c000000000000000000000000000000000000000000000000000000000000008c00000000000000000000000000000000000000000000000000000000000000ac000000000000000000000000000000000000000000000000000000000000001e00000000000000000000000006a851098f207a1b2fd7d2393100702fc763baf4c000000000000000000000000fda4f52264b9edcf18011f755397c31a30c0c9c1000000000000000000000000000000000000000000000000000000000000000000000000000000000000000000000000000000000000000000000000000000c80000000000000000000000009894703d41fd1ff4aa5f88951f07becddd83c044fffffffffffffffffffffffffffffffffffffffffffffffffffffffffffe97d8fffffffffffffffffffffffffffffffffffffffffffffffffffffffffffeb71800000000000000000000000000000000000000000063e7b9af2c36e427cc001b00000000000000000000000000000000000000000cecb8f27f4200f3a000000000000000000000000000000000000000000000000000000000000000000000000000000000000000000000002226ae701ecf96e27373e896f3ddbe8a9a676a30000000000000000000000000000000000000000000000000000000000000018000000000000000000000000000000000000000000000000000000000000000400000000000000000000000000000000000000000000000000000000000000020000000000000000000000000000000000000000000000000000000000000000000000000000000000000000000000000000000000000000000000000000001e00000000000000000000000006a851098f207a1b2fd7d2393100702fc763baf4c000000000000000000000000fda4f52264b9edcf18011f755397c31a30c0c9c1000000000000000000000000000000000000000000000000000000000000000000000000000000000000000000000000000000000000000000000000000000c80000000000000000000000009894703d41fd1ff4aa5f88951f07becddd83c044fffffffffffffffffffffffffffffffffffffffffffffffffffffffffffeb718fffffffffffffffffffffffffffffffffffffffffffffffffffffffffffed6580000000000000000000000000000000000000000004a84de2a9676b3e9f350cf000000000000000000000000000000000000000006765c793fa10079d000000000000000000000000000000000000000000000000000000000000000000000000000000000000000000000002226ae701ecf96e27373e896f3ddbe8a9a676a30000000000000000000000000000000000000000000000000000000000000018000000000000000000000000000000000000000000000000000000000000000400000000000000000000000000000000000000000000000000000000000000020000000000000000000000000000000000000000000000000000000000000000000000000000000000000000000000000000000000000000000000000000001e00000000000000000000000006a851098f207a1b2fd7d2393100702fc763baf4c000000000000000000000000fda4f52264b9edcf18011f755397c31a30c0c9c1000000000000000000000000000000000000000000000000000000000000000000000000000000000000000000000000000000000000000000000000000000c80000000000000000000000009894703d41fd1ff4aa5f88951f07becddd83c044fffffffffffffffffffffffffffffffffffffffffffffffffffffffffffed658fffffffffffffffffffffffffffffffffffffffffffffffffffffffffffef59800000000000000000000000000000000000000000042b3439a190bb8cf3545e5000000000000000000000000000000000000000003e09de2596099e2b000000000000000000000000000000000000000000000000000000000000000000000000000000000000000000000002226ae701ecf96e27373e896f3ddbe8a9a676a30000000000000000000000000000000000000000000000000000000000000018000000000000000000000000000000000000000000000000000000000000000400000000000000000000000000000000000000000000000000000000000000020000000000000000000000000000000000000000000000000000000000000000000000000000000000000000000000000000000000000000000000000000001e00000000000000000000000006a851098f207a1b2fd7d2393100702fc763baf4c000000000000000000000000fda4f52264b9edcf18011f755397c31a30c0c9c1000000000000000000000000000000000000000000000000000000000000000000000000000000000000000000000000000000000000000000000000000000c80000000000000000000000009894703d41fd1ff4aa5f88951f07becddd83c044fffffffffffffffffffffffffffffffffffffffffffffffffffffffffffef598ffffffffffffffffffffffffffffffffffffffffffffffffffffffffffff14d80000000000000000000000000000000000000000004255dc5ec4839730cefb6a00000000000000000000000000000000000000000295be96e64066972000000000000000000000000000000000000000000000000000000000000000000000000000000000000000000000002226ae701ecf96e27373e896f3ddbe8a9a676a30000000000000000000000000000000000000000000000000000000000000018000000000000000000000000000000000000000000000000000000000000000400000000000000000000000000000000000000000000000000000000000000020000000000000000000000000000000000000000000000000000000000000000000000000000000000000000000000000000000000000000000000000000001e00000000000000000000000006a851098f207a1b2fd7d2393100702fc763baf4c000000000000000000000000fda4f52264b9edcf18011f755397c31a30c0c9c1000000000000000000000000000000000000000000000000000000000000000000000000000000000000000000000000000000000000000000000000000000c80000000000000000000000009894703d41fd1ff4aa5f88951f07becddd83c044ffffffffffffffffffffffffffffffffffffffffffffffffffffffffffff14d8000000000000000000000000000000000000000000000000000000000000000000000000000000000000000000000000000000000055c9ab9aafb527780fc6c6000000000000000000000000000000000000000006765c793fa10079d000000000000000000000000000000000000000000000000000000000000000000000000000000000000000000000002226ae701ecf96e27373e896f3ddbe8a9a676a30000000000000000000000000000000000000000000000000000000000000018000000000000000000000000000000000000000000000000000000000000000400000000000000000000000000000000000000000000000000000000000000020000000000000000000000000000000000000000000000000000000000000000000000000000000000000000000000000000000000000000000000000000000400000000000000000000000006a851098f207a1b2fd7d2393100702fc763baf4c000000000000000000000000fda4f52264b9edcf18011f755397c31a30c0c9c1",
        "nonce": "0x4e",
        "chainId": "0x2105"
      },
      "additionalContracts": [],
      "isFixedGasLimit": false
    }
  ],
  "receipts": [
    {
      "status": "0x1",
      "cumulativeGasUsed": "0x2126c8f",
      "logs": [
        {
          "address": "0x498581ff718922c3f8e6a244956af099b2652b2b",
          "topics": [
            "0xdd466e674ea557f56295e2d0218a125ea4b4f0f6f3307b95f85e6110838d6438",
            "0x6d118053aafd072269b45b34513a131f9bbe72384a4afa30b1472a5557c4127f",
            "0x0000000000000000000000006a851098f207a1b2fd7d2393100702fc763baf4c",
            "0x000000000000000000000000fda4f52264b9edcf18011f755397c31a30c0c9c1"
          ],
          "data": "0x000000000000000000000000000000000000000000000000000000000000000000000000000000000000000000000000000000000000000000000000000000c80000000000000000000000009894703d41fd1ff4aa5f88951f07becddd83c0440000000000000000000000000000000000000000028c5a4ad8c850e6c6ebe167fffffffffffffffffffffffffffffffffffffffffffffffffffffffffffe97d8",
          "blockHash": "0xb7f6e192250547bc279655e2f359d984b702b915a7266cc1f9543f5c78c84c3d",
          "blockNumber": "0x2376e19",
          "blockTimestamp": "0x68f93915",
          "transactionHash": "0xf864959dabeac87cba2132d6bf3b641b962d1521d05b756a1d0807fc44cb3e92",
          "transactionIndex": "0xd3",
          "logIndex": "0x238",
          "removed": false
        }
      ],
      "logsBloom": "0x00000000100000000000000000000000000000000000000000000000000000400000004000000000000000000000000000000000000000000000000000000000004000000000000000000000000000000000000000000000000000000002000000000000000000000000000000000000000020000000000000000000000000000000000000004008000000000000400000000001000000000000000000200008000000000000000000000000000000000000000000000000000000000000000000000000000000000000000000000000000800000000000000000000000000000000000000040000000000000000000000000400000000000000000000000000",
      "type": "0x2",
      "transactionHash": "0xf864959dabeac87cba2132d6bf3b641b962d1521d05b756a1d0807fc44cb3e92",
      "transactionIndex": "0xd3",
      "blockHash": "0xb7f6e192250547bc279655e2f359d984b702b915a7266cc1f9543f5c78c84c3d",
      "blockNumber": "0x2376e19",
      "gasUsed": "0xcb6e",
      "effectiveGasPrice": "0x520498",
      "from": "0x2226ae701ecf96e27373e896f3ddbe8a9a676a30",
      "to": "0x498581ff718922c3f8e6a244956af099b2652b2b",
      "contractAddress": null,
      "l1BaseFeeScalar": "0x8dd",
      "l1BlobBaseFee": "0x1",
      "l1BlobBaseFeeScalar": "0x101c12",
      "l1Fee": "0x3c7cd707",
      "l1GasPrice": "0xbd97d3e",
      "l1GasUsed": "0x8c9"
    },
    {
      "status": "0x1",
      "cumulativeGasUsed": "0x21322ee",
      "logs": [
        {
          "address": "0x6a851098f207a1b2fd7d2393100702fc763baf4c",
          "topics": [
            "0x8c5be1e5ebec7d5bd14f71427d1e84f3dd0314c0f7b2291e5b200ac8c7c3b925",
            "0x0000000000000000000000002226ae701ecf96e27373e896f3ddbe8a9a676a30",
            "0x000000000000000000000000000000000022d473030f116ddee9f6b43ac78ba3"
          ],
          "data": "0x0000000000000000000000000000000000000000204fce5e3e25026110000000",
          "blockHash": "0xb7f6e192250547bc279655e2f359d984b702b915a7266cc1f9543f5c78c84c3d",
          "blockNumber": "0x2376e19",
          "blockTimestamp": "0x68f93915",
          "transactionHash": "0xbd806e52420f77be95c70c5f2f5935380e69239914fa40a0052cc5cebd17cf1c",
          "transactionIndex": "0xd4",
          "logIndex": "0x239",
          "removed": false
        }
      ],
      "logsBloom": "0x00000000000000000000000000000000000000000000000000002010000000000000000000000000000000000000000000000010800000000000000000200000000000000000000000004000000000000000000000000800000000000000000000000000000000000000000000000000000000000000000000000000000000000000000000000400000000002000000000000000000000000000000000000000020000000000000000000000000000000000000000000000000000000000000000000000000000000000000000000000000200000000000000000000000000000010000000000000000000000000000000000000000000000000000000000000",
      "type": "0x2",
      "transactionHash": "0xbd806e52420f77be95c70c5f2f5935380e69239914fa40a0052cc5cebd17cf1c",
      "transactionIndex": "0xd4",
      "blockHash": "0xb7f6e192250547bc279655e2f359d984b702b915a7266cc1f9543f5c78c84c3d",
      "blockNumber": "0x2376e19",
      "gasUsed": "0xb65f",
      "effectiveGasPrice": "0x520498",
      "from": "0x2226ae701ecf96e27373e896f3ddbe8a9a676a30",
      "to": "0x6a851098f207a1b2fd7d2393100702fc763baf4c",
      "contractAddress": null,
      "l1BaseFeeScalar": "0x8dd",
      "l1BlobBaseFee": "0x1",
      "l1BlobBaseFeeScalar": "0x101c12",
      "l1Fee": "0x2b04c7e9",
      "l1GasPrice": "0xbd97d3e",
      "l1GasUsed": "0x640"
    },
    {
      "status": "0x1",
      "cumulativeGasUsed": "0x213dd1c",
      "logs": [
        {
          "address": "0x000000000022d473030f116ddee9f6b43ac78ba3",
          "topics": [
            "0xda9fa7c1b00402c17d0161b249b1ab8bbec047c5a52207b9c112deffd817036b",
            "0x0000000000000000000000002226ae701ecf96e27373e896f3ddbe8a9a676a30",
            "0x0000000000000000000000006a851098f207a1b2fd7d2393100702fc763baf4c",
            "0x0000000000000000000000007c5f5a4bbd8fd63184577525326123b519429bdc"
          ],
          "data": "0x0000000000000000000000000000000000000000204fce5e3e25026110000000000000000000000000000000000000000000000000000000000000006ada6c8d",
          "blockHash": "0xb7f6e192250547bc279655e2f359d984b702b915a7266cc1f9543f5c78c84c3d",
          "blockNumber": "0x2376e19",
          "blockTimestamp": "0x68f93915",
          "transactionHash": "0x1623c45def4527a13590e0b859f180450d2568e2a20d907c3e62a77b5d233ed3",
          "transactionIndex": "0xd5",
          "logIndex": "0x23a",
          "removed": false
        }
      ],
      "logsBloom": "0x00010000100000000000000000000000000000000000000000000010000000400000004000000000000000000000000000000010000000000000000000082000000000000000000000000000000000000000000000000000000000000000000000000000000000000000000000000000000000000000000000000000000000000020000000000000000000002000000000000000000000000000000000000000000000000000000000000000000000000000000000000000000000080000000200000000000000000000000000000000000000000000000040000000000000000000000000000000000000000000000000000000002000000000000000000400",
      "type": "0x2",
      "transactionHash": "0x1623c45def4527a13590e0b859f180450d2568e2a20d907c3e62a77b5d233ed3",
      "transactionIndex": "0xd5",
      "blockHash": "0xb7f6e192250547bc279655e2f359d984b702b915a7266cc1f9543f5c78c84c3d",
      "blockNumber": "0x2376e19",
      "gasUsed": "0xba2e",
      "effectiveGasPrice": "0x520498",
      "from": "0x2226ae701ecf96e27373e896f3ddbe8a9a676a30",
      "to": "0x000000000022d473030f116ddee9f6b43ac78ba3",
      "contractAddress": null,
      "l1BaseFeeScalar": "0x8dd",
      "l1BlobBaseFee": "0x1",
      "l1BlobBaseFeeScalar": "0x101c12",
      "l1Fee": "0x3321ab94",
      "l1GasPrice": "0xbd97d3e",
      "l1GasUsed": "0x76d"
    },
    {
      "status": "0x1",
      "cumulativeGasUsed": "0x2212017",
      "logs": [
        {
          "address": "0x7c5f5a4bbd8fd63184577525326123b519429bdc",
          "topics": [
            "0xddf252ad1be2c89b69c2b068fc378daa952ba7f163c4a11628f55a4df523b3ef",
            "0x0000000000000000000000000000000000000000000000000000000000000000",
            "0x0000000000000000000000002226ae701ecf96e27373e896f3ddbe8a9a676a30",
            "0x0000000000000000000000000000000000000000000000000000000000065445"
          ],
          "data": "0x",
          "blockHash": "0xb7f6e192250547bc279655e2f359d984b702b915a7266cc1f9543f5c78c84c3d",
          "blockNumber": "0x2376e19",
          "blockTimestamp": "0x68f93915",
          "transactionHash": "0x82db542abaaa92fff8b98eca1fe479df11a01224163d7aeead6efaa7879d7d0a",
          "transactionIndex": "0xd6",
          "logIndex": "0x23b",
          "removed": false
        },
        {
          "address": "0x498581ff718922c3f8e6a244956af099b2652b2b",
          "topics": [
            "0xf208f4912782fd25c7f114ca3723a2d5dd6f3bcc3ac8db5af63baa85f711d5ec",
            "0x6d118053aafd072269b45b34513a131f9bbe72384a4afa30b1472a5557c4127f",
            "0x0000000000000000000000007c5f5a4bbd8fd63184577525326123b519429bdc"
          ],
          "data": "0xfffffffffffffffffffffffffffffffffffffffffffffffffffffffffffe97d8fffffffffffffffffffffffffffffffffffffffffffffffffffffffffffeb71800000000000000000000000000000000000000000063e7b9af2c36e427cc001b0000000000000000000000000000000000000000000000000000000000065445",
          "blockHash": "0xb7f6e192250547bc279655e2f359d984b702b915a7266cc1f9543f5c78c84c3d",
          "blockNumber": "0x2376e19",
          "blockTimestamp": "0x68f93915",
          "transactionHash": "0x82db542abaaa92fff8b98eca1fe479df11a01224163d7aeead6efaa7879d7d0a",
          "transactionIndex": "0xd6",
          "logIndex": "0x23c",
          "removed": false
        },
        {
          "address": "0x7c5f5a4bbd8fd63184577525326123b519429bdc",
          "topics": [
            "0xddf252ad1be2c89b69c2b068fc378daa952ba7f163c4a11628f55a4df523b3ef",
            "0x0000000000000000000000000000000000000000000000000000000000000000",
            "0x0000000000000000000000002226ae701ecf96e27373e896f3ddbe8a9a676a30",
            "0x0000000000000000000000000000000000000000000000000000000000065446"
          ],
          "data": "0x",
          "blockHash": "0xb7f6e192250547bc279655e2f359d984b702b915a7266cc1f9543f5c78c84c3d",
          "blockNumber": "0x2376e19",
          "blockTimestamp": "0x68f93915",
          "transactionHash": "0x82db542abaaa92fff8b98eca1fe479df11a01224163d7aeead6efaa7879d7d0a",
          "transactionIndex": "0xd6",
          "logIndex": "0x23d",
          "removed": false
        },
        {
          "address": "0x498581ff718922c3f8e6a244956af099b2652b2b",
          "topics": [
            "0xf208f4912782fd25c7f114ca3723a2d5dd6f3bcc3ac8db5af63baa85f711d5ec",
            "0x6d118053aafd072269b45b34513a131f9bbe72384a4afa30b1472a5557c4127f",
            "0x0000000000000000000000007c5f5a4bbd8fd63184577525326123b519429bdc"
          ],
          "data": "0xfffffffffffffffffffffffffffffffffffffffffffffffffffffffffffeb718fffffffffffffffffffffffffffffffffffffffffffffffffffffffffffed6580000000000000000000000000000000000000000004a84de2a9676b3e9f350cf0000000000000000000000000000000000000000000000000000000000065446",
          "blockHash": "0xb7f6e192250547bc279655e2f359d984b702b915a7266cc1f9543f5c78c84c3d",
          "blockNumber": "0x2376e19",
          "blockTimestamp": "0x68f93915",
          "transactionHash": "0x82db542abaaa92fff8b98eca1fe479df11a01224163d7aeead6efaa7879d7d0a",
          "transactionIndex": "0xd6",
          "logIndex": "0x23e",
          "removed": false
        },
        {
          "address": "0x7c5f5a4bbd8fd63184577525326123b519429bdc",
          "topics": [
            "0xddf252ad1be2c89b69c2b068fc378daa952ba7f163c4a11628f55a4df523b3ef",
            "0x0000000000000000000000000000000000000000000000000000000000000000",
            "0x0000000000000000000000002226ae701ecf96e27373e896f3ddbe8a9a676a30",
            "0x0000000000000000000000000000000000000000000000000000000000065447"
          ],
          "data": "0x",
          "blockHash": "0xb7f6e192250547bc279655e2f359d984b702b915a7266cc1f9543f5c78c84c3d",
          "blockNumber": "0x2376e19",
          "blockTimestamp": "0x68f93915",
          "transactionHash": "0x82db542abaaa92fff8b98eca1fe479df11a01224163d7aeead6efaa7879d7d0a",
          "transactionIndex": "0xd6",
          "logIndex": "0x23f",
          "removed": false
        },
        {
          "address": "0x498581ff718922c3f8e6a244956af099b2652b2b",
          "topics": [
            "0xf208f4912782fd25c7f114ca3723a2d5dd6f3bcc3ac8db5af63baa85f711d5ec",
            "0x6d118053aafd072269b45b34513a131f9bbe72384a4afa30b1472a5557c4127f",
            "0x0000000000000000000000007c5f5a4bbd8fd63184577525326123b519429bdc"
          ],
          "data": "0xfffffffffffffffffffffffffffffffffffffffffffffffffffffffffffed658fffffffffffffffffffffffffffffffffffffffffffffffffffffffffffef59800000000000000000000000000000000000000000042b3439a190bb8cf3545e50000000000000000000000000000000000000000000000000000000000065447",
          "blockHash": "0xb7f6e192250547bc279655e2f359d984b702b915a7266cc1f9543f5c78c84c3d",
          "blockNumber": "0x2376e19",
          "blockTimestamp": "0x68f93915",
          "transactionHash": "0x82db542abaaa92fff8b98eca1fe479df11a01224163d7aeead6efaa7879d7d0a",
          "transactionIndex": "0xd6",
          "logIndex": "0x240",
          "removed": false
        },
        {
          "address": "0x7c5f5a4bbd8fd63184577525326123b519429bdc",
          "topics": [
            "0xddf252ad1be2c89b69c2b068fc378daa952ba7f163c4a11628f55a4df523b3ef",
            "0x0000000000000000000000000000000000000000000000000000000000000000",
            "0x0000000000000000000000002226ae701ecf96e27373e896f3ddbe8a9a676a30",
            "0x0000000000000000000000000000000000000000000000000000000000065448"
          ],
          "data": "0x",
          "blockHash": "0xb7f6e192250547bc279655e2f359d984b702b915a7266cc1f9543f5c78c84c3d",
          "blockNumber": "0x2376e19",
          "blockTimestamp": "0x68f93915",
          "transactionHash": "0x82db542abaaa92fff8b98eca1fe479df11a01224163d7aeead6efaa7879d7d0a",
          "transactionIndex": "0xd6",
          "logIndex": "0x241",
          "removed": false
        },
        {
          "address": "0x498581ff718922c3f8e6a244956af099b2652b2b",
          "topics": [
            "0xf208f4912782fd25c7f114ca3723a2d5dd6f3bcc3ac8db5af63baa85f711d5ec",
            "0x6d118053aafd072269b45b34513a131f9bbe72384a4afa30b1472a5557c4127f",
            "0x0000000000000000000000007c5f5a4bbd8fd63184577525326123b519429bdc"
          ],
          "data": "0xfffffffffffffffffffffffffffffffffffffffffffffffffffffffffffef598ffffffffffffffffffffffffffffffffffffffffffffffffffffffffffff14d80000000000000000000000000000000000000000004255dc5ec4839730cefb6a0000000000000000000000000000000000000000000000000000000000065448",
          "blockHash": "0xb7f6e192250547bc279655e2f359d984b702b915a7266cc1f9543f5c78c84c3d",
          "blockNumber": "0x2376e19",
          "blockTimestamp": "0x68f93915",
          "transactionHash": "0x82db542abaaa92fff8b98eca1fe479df11a01224163d7aeead6efaa7879d7d0a",
          "transactionIndex": "0xd6",
          "logIndex": "0x242",
          "removed": false
        },
        {
          "address": "0x7c5f5a4bbd8fd63184577525326123b519429bdc",
          "topics": [
            "0xddf252ad1be2c89b69c2b068fc378daa952ba7f163c4a11628f55a4df523b3ef",
            "0x0000000000000000000000000000000000000000000000000000000000000000",
            "0x0000000000000000000000002226ae701ecf96e27373e896f3ddbe8a9a676a30",
            "0x0000000000000000000000000000000000000000000000000000000000065449"
          ],
          "data": "0x",
          "blockHash": "0xb7f6e192250547bc279655e2f359d984b702b915a7266cc1f9543f5c78c84c3d",
          "blockNumber": "0x2376e19",
          "blockTimestamp": "0x68f93915",
          "transactionHash": "0x82db542abaaa92fff8b98eca1fe479df11a01224163d7aeead6efaa7879d7d0a",
          "transactionIndex": "0xd6",
          "logIndex": "0x243",
          "removed": false
        },
        {
          "address": "0x498581ff718922c3f8e6a244956af099b2652b2b",
          "topics": [
            "0xf208f4912782fd25c7f114ca3723a2d5dd6f3bcc3ac8db5af63baa85f711d5ec",
            "0x6d118053aafd072269b45b34513a131f9bbe72384a4afa30b1472a5557c4127f",
            "0x0000000000000000000000007c5f5a4bbd8fd63184577525326123b519429bdc"
          ],
          "data": "0xffffffffffffffffffffffffffffffffffffffffffffffffffffffffffff14d8000000000000000000000000000000000000000000000000000000000000000000000000000000000000000000000000000000000055c9ab9aafb527780fc6c60000000000000000000000000000000000000000000000000000000000065449",
          "blockHash": "0xb7f6e192250547bc279655e2f359d984b702b915a7266cc1f9543f5c78c84c3d",
          "blockNumber": "0x2376e19",
          "blockTimestamp": "0x68f93915",
          "transactionHash": "0x82db542abaaa92fff8b98eca1fe479df11a01224163d7aeead6efaa7879d7d0a",
          "transactionIndex": "0xd6",
          "logIndex": "0x244",
          "removed": false
        },
        {
          "address": "0x6a851098f207a1b2fd7d2393100702fc763baf4c",
          "topics": [
            "0xddf252ad1be2c89b69c2b068fc378daa952ba7f163c4a11628f55a4df523b3ef",
            "0x0000000000000000000000002226ae701ecf96e27373e896f3ddbe8a9a676a30",
            "0x000000000000000000000000498581ff718922c3f8e6a244956af099b2652b2b"
          ],
          "data": "0x0000000000000000000000000000000000000000204fce5e3e2502610fffff31",
          "blockHash": "0xb7f6e192250547bc279655e2f359d984b702b915a7266cc1f9543f5c78c84c3d",
          "blockNumber": "0x2376e19",
          "blockTimestamp": "0x68f93915",
          "transactionHash": "0x82db542abaaa92fff8b98eca1fe479df11a01224163d7aeead6efaa7879d7d0a",
          "transactionIndex": "0xd6",
          "logIndex": "0x245",
          "removed": false
        }
      ],
      "logsBloom": "0x00000000000004001000000000000000000000000000000000002010000000000020000000000000000000000000000000000010000000000000000000002000000000000000010000000008000000000000000000000000000000000000000000000040020000000000000000000800040020000000000000080010010000000000000001004400000000002000000000000000002000000000100400000008004004000000001008000000000000000000000000000000800000000000000200000002000001000000001000010000000a00000000000000000000000020000000004000040000040000000000000004000600002000000000000000000000",
      "type": "0x2",
      "transactionHash": "0x82db542abaaa92fff8b98eca1fe479df11a01224163d7aeead6efaa7879d7d0a",
      "transactionIndex": "0xd6",
      "blockHash": "0xb7f6e192250547bc279655e2f359d984b702b915a7266cc1f9543f5c78c84c3d",
      "blockNumber": "0x2376e19",
      "gasUsed": "0xd42fb",
      "effectiveGasPrice": "0x520498",
      "from": "0x2226ae701ecf96e27373e896f3ddbe8a9a676a30",
      "to": "0x7c5f5a4bbd8fd63184577525326123b519429bdc",
      "contractAddress": null,
      "l1BaseFeeScalar": "0x8dd",
      "l1BlobBaseFee": "0x1",
      "l1BlobBaseFeeScalar": "0x101c12",
      "l1Fee": "0xbcf45cd5",
      "l1GasPrice": "0xbd97d3e",
      "l1GasUsed": "0x1b73"
    }
  ],
  "libraries": [],
  "pending": [],
  "returns": {},
  "timestamp": 1761163542,
  "chain": 8453,
  "commit": "65077fa"
}