{
  "transactions": [
    {
      "hash": "0x8a1bf65a88e3f5b460f787b4b3f308692ba071e0affa6163481361d024e15038",
      "transactionType": "CALL",
      "contractName": null,
      "contractAddress": "0x498581ff718922c3f8e6a244956af099b2652b2b",
      "function": "initialize((address,address,uint24,int24,address),uint160)",
      "arguments": [
        "(0x9940016d558B91F5f11eB77a3B757062Ba867Ca2, 0xbd5e7aAd08eB34faE98FcD5F5EA927Af6d3521FF, 0, 200, 0x485076c5aFb128E8B2Ee923ACCE156A9695C80c8)",
        "787149618249685149291181"
      ],
      "transaction": {
        "from": "0x2226ae701ecf96e27373e896f3ddbe8a9a676a30",
        "to": "0x498581ff718922c3f8e6a244956af099b2652b2b",
        "gas": "0x128d8",
        "value": "0x0",
        "input": "0x6276cbbe0000000000000000000000009940016d558b91f5f11eb77a3b757062ba867ca2000000000000000000000000bd5e7aad08eb34fae98fcd5f5ea927af6d3521ff000000000000000000000000000000000000000000000000000000000000000000000000000000000000000000000000000000000000000000000000000000c8000000000000000000000000485076c5afb128e8b2ee923acce156a9695c80c800000000000000000000000000000000000000000000a6af776004abf4e612ad",
        "nonce": "0x23",
        "chainId": "0x2105"
      },
      "additionalContracts": [],
      "isFixedGasLimit": false
    },
    {
      "hash": "0xd2d70b6c51d11bfd31280f84b22a1ace56acba41148d5593176c6bc4f2280c63",
      "transactionType": "CALL",
      "contractName": null,
      "contractAddress": "0x9940016d558b91f5f11eb77a3b757062ba867ca2",
      "function": "approve(address,uint256)",
      "arguments": [
        "0x000000000022D473030F116dDEE9F6B43aC78BA3",
        "10000000000000000000000000000"
      ],
      "transaction": {
        "from": "0x2226ae701ecf96e27373e896f3ddbe8a9a676a30",
        "to": "0x9940016d558b91f5f11eb77a3b757062ba867ca2",
        "gas": "0xfbe5",
        "value": "0x0",
        "input": "0x095ea7b3000000000000000000000000000000000022d473030f116ddee9f6b43ac78ba30000000000000000000000000000000000000000204fce5e3e25026110000000",
        "nonce": "0x24",
        "chainId": "0x2105"
      },
      "additionalContracts": [],
      "isFixedGasLimit": false
    },
    {
      "hash": "0x4c82f56c9a96b76b49c14aa14c1c938df81e092e6c723e82f697b702fa7d6809",
      "transactionType": "CALL",
      "contractName": null,
      "contractAddress": "0x000000000022d473030f116ddee9f6b43ac78ba3",
      "function": "approve(address,address,uint160,uint48)",
      "arguments": [
        "0x9940016d558B91F5f11eB77a3B757062Ba867Ca2",
        "0x7C5f5A4bBd8fD63184577525326123B519429bDc",
        "10000000000000000000000000000",
        "1792460183"
      ],
      "transaction": {
        "from": "0x2226ae701ecf96e27373e896f3ddbe8a9a676a30",
        "to": "0x000000000022d473030f116ddee9f6b43ac78ba3",
        "gas": "0x10128",
        "value": "0x0",
        "input": "0x87517c450000000000000000000000009940016d558b91f5f11eb77a3b757062ba867ca20000000000000000000000007c5f5a4bbd8fd63184577525326123b519429bdc0000000000000000000000000000000000000000204fce5e3e25026110000000000000000000000000000000000000000000000000000000000000006ad6c597",
        "nonce": "0x25",
        "chainId": "0x2105"
      },
      "additionalContracts": [],
      "isFixedGasLimit": false
    },
    {
      "hash": "0x277c83705f238bfb5c9d0bbad533012614e936f01a0604eca0b5f7fe0417d257",
      "transactionType": "CALL",
      "contractName": "PositionManager",
      "contractAddress": "0x7c5f5a4bbd8fd63184577525326123b519429bdc",
      "function": "modifyLiquidities(bytes,uint256)",
      "arguments": [
        "0x00000000000000000000000000000000000000000000000000000000000000400000000000000000000000000000000000000000000000000000000000000080000000000000000000000000000000000000000000000000000000000000000602020202020d0000000000000000000000000000000000000000000000000000000000000000000000000000000000000000000000000000000000000000000600000000000000000000000000000000000000000000000000000000000000c000000000000000000000000000000000000000000000000000000000000002c000000000000000000000000000000000000000000000000000000000000004c000000000000000000000000000000000000000000000000000000000000006c000000000000000000000000000000000000000000000000000000000000008c00000000000000000000000000000000000000000000000000000000000000ac000000000000000000000000000000000000000000000000000000000000001e00000000000000000000000009940016d558b91f5f11eb77a3b757062ba867ca2000000000000000000000000bd5e7aad08eb34fae98fcd5f5ea927af6d3521ff000000000000000000000000000000000000000000000000000000000000000000000000000000000000000000000000000000000000000000000000000000c8000000000000000000000000485076c5afb128e8b2ee923acce156a9695c80c8fffffffffffffffffffffffffffffffffffffffffffffffffffffffffffc7c00fffffffffffffffffffffffffffffffffffffffffffffffffffffffffffcbc100000000000000000000000000000000000000000000003c28a47f596c70838ea0000000000000000000000000000000000000000033b2e3c9fd0803ce800000000000000000000000000000000000000000000000000000000000000000000000000000000000000000000002226ae701ecf96e27373e896f3ddbe8a9a676a30000000000000000000000000000000000000000000000000000000000000018000000000000000000000000000000000000000000000000000000000000000400000000000000000000000000000000000000000000000000000000000000020000000000000000000000000000000000000000000000000000000000000000000000000000000000000000000000000000000000000000000000000000001e00000000000000000000000009940016d558b91f5f11eb77a3b757062ba867ca2000000000000000000000000bd5e7aad08eb34fae98fcd5f5ea927af6d3521ff000000000000000000000000000000000000000000000000000000000000000000000000000000000000000000000000000000000000000000000000000000c8000000000000000000000000485076c5afb128e8b2ee923acce156a9695c80c8fffffffffffffffffffffffffffffffffffffffffffffffffffffffffffcbc10fffffffffffffffffffffffffffffffffffffffffffffffffffffffffffda288000000000000000000000000000000000000000000001933d2f0fcc3c4a81d9b00000000000000000000000000000000000000001027e72f1f1281308800000000000000000000000000000000000000000000000000000000000000000000000000000000000000000000002226ae701ecf96e27373e896f3ddbe8a9a676a30000000000000000000000000000000000000000000000000000000000000018000000000000000000000000000000000000000000000000000000000000000400000000000000000000000000000000000000000000000000000000000000020000000000000000000000000000000000000000000000000000000000000000000000000000000000000000000000000000000000000000000000000000001e00000000000000000000000009940016d558b91f5f11eb77a3b757062ba867ca2000000000000000000000000bd5e7aad08eb34fae98fcd5f5ea927af6d3521ff000000000000000000000000000000000000000000000000000000000000000000000000000000000000000000000000000000000000000000000000000000c8000000000000000000000000485076c5afb128e8b2ee923acce156a9695c80c8fffffffffffffffffffffffffffffffffffffffffffffffffffffffffffceaf0fffffffffffffffffffffffffffffffffffffffffffffffffffffffffffda288000000000000000000000000000000000000000000000e6e74e16047e486ad9c000000000000000000000000000000000000000004d8c55aefb8c05b5c00000000000000000000000000000000000000000000000000000000000000000000000000000000000000000000002226ae701ecf96e27373e896f3ddbe8a9a676a30000000000000000000000000000000000000000000000000000000000000018000000000000000000000000000000000000000000000000000000000000000400000000000000000000000000000000000000000000000000000000000000020000000000000000000000000000000000000000000000000000000000000000000000000000000000000000000000000000000000000000000000000000001e00000000000000000000000009940016d558b91f5f11eb77a3b757062ba867ca2000000000000000000000000bd5e7aad08eb34fae98fcd5f5ea927af6d3521ff000000000000000000000000000000000000000000000000000000000000000000000000000000000000000000000000000000000000000000000000000000c8000000000000000000000000485076c5afb128e8b2ee923acce156a9695c80c8fffffffffffffffffffffffffffffffffffffffffffffffffffffffffffda288fffffffffffffffffffffffffffffffffffffffffffffffffffffffffffe2b4000000000000000000000000000000000000000000000dce275bfe1ba5750554b000000000000000000000000000000000000000006765c793fa10079d000000000000000000000000000000000000000000000000000000000000000000000000000000000000000000000002226ae701ecf96e27373e896f3ddbe8a9a676a30000000000000000000000000000000000000000000000000000000000000018000000000000000000000000000000000000000000000000000000000000000400000000000000000000000000000000000000000000000000000000000000020000000000000000000000000000000000000000000000000000000000000000000000000000000000000000000000000000000000000000000000000000001e00000000000000000000000009940016d558b91f5f11eb77a3b757062ba867ca2000000000000000000000000bd5e7aad08eb34fae98fcd5f5ea927af6d3521ff000000000000000000000000000000000000000000000000000000000000000000000000000000000000000000000000000000000000000000000000000000c8000000000000000000000000485076c5afb128e8b2ee923acce156a9695c80c8fffffffffffffffffffffffffffffffffffffffffffffffffffffffffffdd938fffffffffffffffffffffffffffffffffffffffffffffffffffffffffffe2b40000000000000000000000000000000000000000000008d5555cda23fda1cf6a90000000000000000000000000000000000000000019d971e4fe8401e7400000000000000000000000000000000000000000000000000000000000000000000000000000000000000000000002226ae701ecf96e27373e896f3ddbe8a9a676a30000000000000000000000000000000000000000000000000000000000000018000000000000000000000000000000000000000000000000000000000000000400000000000000000000000000000000000000000000000000000000000000020000000000000000000000000000000000000000000000000000000000000000000000000000000000000000000000000000000000000000000000000000000400000000000000000000000009940016d558b91f5f11eb77a3b757062ba867ca2000000000000000000000000bd5e7aad08eb34fae98fcd5f5ea927af6d3521ff",
        "1792460183"
      ],
      "transaction": {
        "from": "0x2226ae701ecf96e27373e896f3ddbe8a9a676a30",
        "to": "0x7c5f5a4bbd8fd63184577525326123b519429bdc",
        "gas": "0x12cb53",
        "value": "0x0",
        "input": "0xdd46508f0000000000000000000000000000000000000000000000000000000000000040000000000000000000000000000000000000000000000000000000006ad6c5970000000000000000000000000000000000000000000000000000000000000bc000000000000000000000000000000000000000000000000000000000000000400000000000000000000000000000000000000000000000000000000000000080000000000000000000000000000000000000000000000000000000000000000602020202020d0000000000000000000000000000000000000000000000000000000000000000000000000000000000000000000000000000000000000000000600000000000000000000000000000000000000000000000000000000000000c000000000000000000000000000000000000000000000000000000000000002c000000000000000000000000000000000000000000000000000000000000004c000000000000000000000000000000000000000000000000000000000000006c000000000000000000000000000000000000000000000000000000000000008c00000000000000000000000000000000000000000000000000000000000000ac000000000000000000000000000000000000000000000000000000000000001e00000000000000000000000009940016d558b91f5f11eb77a3b757062ba867ca2000000000000000000000000bd5e7aad08eb34fae98fcd5f5ea927af6d3521ff000000000000000000000000000000000000000000000000000000000000000000000000000000000000000000000000000000000000000000000000000000c8000000000000000000000000485076c5afb128e8b2ee923acce156a9695c80c8fffffffffffffffffffffffffffffffffffffffffffffffffffffffffffc7c00fffffffffffffffffffffffffffffffffffffffffffffffffffffffffffcbc100000000000000000000000000000000000000000000003c28a47f596c70838ea0000000000000000000000000000000000000000033b2e3c9fd0803ce800000000000000000000000000000000000000000000000000000000000000000000000000000000000000000000002226ae701ecf96e27373e896f3ddbe8a9a676a30000000000000000000000000000000000000000000000000000000000000018000000000000000000000000000000000000000000000000000000000000000400000000000000000000000000000000000000000000000000000000000000020000000000000000000000000000000000000000000000000000000000000000000000000000000000000000000000000000000000000000000000000000001e00000000000000000000000009940016d558b91f5f11eb77a3b757062ba867ca2000000000000000000000000bd5e7aad08eb34fae98fcd5f5ea927af6d3521ff000000000000000000000000000000000000000000000000000000000000000000000000000000000000000000000000000000000000000000000000000000c8000000000000000000000000485076c5afb128e8b2ee923acce156a9695c80c8fffffffffffffffffffffffffffffffffffffffffffffffffffffffffffcbc10fffffffffffffffffffffffffffffffffffffffffffffffffffffffffffda288000000000000000000000000000000000000000000001933d2f0fcc3c4a81d9b00000000000000000000000000000000000000001027e72f1f1281308800000000000000000000000000000000000000000000000000000000000000000000000000000000000000000000002226ae701ecf96e27373e896f3ddbe8a9a676a30000000000000000000000000000000000000000000000000000000000000018000000000000000000000000000000000000000000000000000000000000000400000000000000000000000000000000000000000000000000000000000000020000000000000000000000000000000000000000000000000000000000000000000000000000000000000000000000000000000000000000000000000000001e00000000000000000000000009940016d558b91f5f11eb77a3b757062ba867ca2000000000000000000000000bd5e7aad08eb34fae98fcd5f5ea927af6d3521ff000000000000000000000000000000000000000000000000000000000000000000000000000000000000000000000000000000000000000000000000000000c8000000000000000000000000485076c5afb128e8b2ee923acce156a9695c80c8fffffffffffffffffffffffffffffffffffffffffffffffffffffffffffceaf0fffffffffffffffffffffffffffffffffffffffffffffffffffffffffffda288000000000000000000000000000000000000000000000e6e74e16047e486ad9c000000000000000000000000000000000000000004d8c55aefb8c05b5c00000000000000000000000000000000000000000000000000000000000000000000000000000000000000000000002226ae701ecf96e27373e896f3ddbe8a9a676a30000000000000000000000000000000000000000000000000000000000000018000000000000000000000000000000000000000000000000000000000000000400000000000000000000000000000000000000000000000000000000000000020000000000000000000000000000000000000000000000000000000000000000000000000000000000000000000000000000000000000000000000000000001e00000000000000000000000009940016d558b91f5f11eb77a3b757062ba867ca2000000000000000000000000bd5e7aad08eb34fae98fcd5f5ea927af6d3521ff000000000000000000000000000000000000000000000000000000000000000000000000000000000000000000000000000000000000000000000000000000c8000000000000000000000000485076c5afb128e8b2ee923acce156a9695c80c8fffffffffffffffffffffffffffffffffffffffffffffffffffffffffffda288fffffffffffffffffffffffffffffffffffffffffffffffffffffffffffe2b4000000000000000000000000000000000000000000000dce275bfe1ba5750554b000000000000000000000000000000000000000006765c793fa10079d000000000000000000000000000000000000000000000000000000000000000000000000000000000000000000000002226ae701ecf96e27373e896f3ddbe8a9a676a30000000000000000000000000000000000000000000000000000000000000018000000000000000000000000000000000000000000000000000000000000000400000000000000000000000000000000000000000000000000000000000000020000000000000000000000000000000000000000000000000000000000000000000000000000000000000000000000000000000000000000000000000000001e00000000000000000000000009940016d558b91f5f11eb77a3b757062ba867ca2000000000000000000000000bd5e7aad08eb34fae98fcd5f5ea927af6d3521ff000000000000000000000000000000000000000000000000000000000000000000000000000000000000000000000000000000000000000000000000000000c8000000000000000000000000485076c5afb128e8b2ee923acce156a9695c80c8fffffffffffffffffffffffffffffffffffffffffffffffffffffffffffdd938fffffffffffffffffffffffffffffffffffffffffffffffffffffffffffe2b40000000000000000000000000000000000000000000008d5555cda23fda1cf6a90000000000000000000000000000000000000000019d971e4fe8401e7400000000000000000000000000000000000000000000000000000000000000000000000000000000000000000000002226ae701ecf96e27373e896f3ddbe8a9a676a30000000000000000000000000000000000000000000000000000000000000018000000000000000000000000000000000000000000000000000000000000000400000000000000000000000000000000000000000000000000000000000000020000000000000000000000000000000000000000000000000000000000000000000000000000000000000000000000000000000000000000000000000000000400000000000000000000000009940016d558b91f5f11eb77a3b757062ba867ca2000000000000000000000000bd5e7aad08eb34fae98fcd5f5ea927af6d3521ff",
        "nonce": "0x26",
        "chainId": "0x2105"
      },
      "additionalContracts": [],
      "isFixedGasLimit": false
    }
  ],
  "receipts": [
    {
      "status": "0x1",
      "cumulativeGasUsed": "0x20c4828",
      "logs": [
        {
          "address": "0x498581ff718922c3f8e6a244956af099b2652b2b",
          "topics": [
            "0xdd466e674ea557f56295e2d0218a125ea4b4f0f6f3307b95f85e6110838d6438",
            "0xf2e389cc15d720e16496ea8cc395cdea273d661a7fe5dbdf0a3664bd804724cc",
            "0x0000000000000000000000009940016d558b91f5f11eb77a3b757062ba867ca2",
            "0x000000000000000000000000bd5e7aad08eb34fae98fcd5f5ea927af6d3521ff"
          ],
          "data": "0x000000000000000000000000000000000000000000000000000000000000000000000000000000000000000000000000000000000000000000000000000000c8000000000000000000000000485076c5afb128e8b2ee923acce156a9695c80c800000000000000000000000000000000000000000000a6af776004abf4e612adfffffffffffffffffffffffffffffffffffffffffffffffffffffffffffc7c00",
          "blockHash": "0x8df26e698df81d022497f22c45b42a43d9e20960e713f854bcb47f82709f3105",
          "blockNumber": "0x2359a9e",
          "blockTimestamp": "0x68f5921f",
          "transactionHash": "0x8a1bf65a88e3f5b460f787b4b3f308692ba071e0affa6163481361d024e15038",
          "transactionIndex": "0xdc",
          "logIndex": "0x1cd",
          "removed": false
        }
      ],
      "logsBloom": "0x00000000000000000000000000000000000000000000000000000000000000000000000000000000000000401000000000000000000000000000000000000000000000000000080000000000000000000000000000000000000000000000000000000000000000000000000000000000000000000000000000000000000000000000000000004008000000000000000000000101000000000000000000200000000000000000000080000000000000000000000000000000000000000200000000000000000000000000000000000000000800000000000000100010000000000000000000000000000000000000000000000400000000040000000000000000",
      "type": "0x2",
      "transactionHash": "0x8a1bf65a88e3f5b460f787b4b3f308692ba071e0affa6163481361d024e15038",
      "transactionIndex": "0xdc",
      "blockHash": "0x8df26e698df81d022497f22c45b42a43d9e20960e713f854bcb47f82709f3105",
      "blockNumber": "0x2359a9e",
      "gasUsed": "0xcaf9",
      "effectiveGasPrice": "0xc536f",
      "from": "0x2226ae701ecf96e27373e896f3ddbe8a9a676a30",
      "to": "0x498581ff718922c3f8e6a244956af099b2652b2b",
      "contractAddress": null,
      "l1BaseFeeScalar": "0x8dd",
      "l1BlobBaseFee": "0x1",
      "l1BlobBaseFeeScalar": "0x101c12",
      "l1Fee": "0x1b58aeb7",
      "l1GasPrice": "0x6c418a4",
      "l1GasUsed": "0x8ae"
    },
    {
      "status": "0x1",
      "cumulativeGasUsed": "0x243206f",
      "logs": [
        {
          "address": "0x9940016d558b91f5f11eb77a3b757062ba867ca2",
          "topics": [
            "0x8c5be1e5ebec7d5bd14f71427d1e84f3dd0314c0f7b2291e5b200ac8c7c3b925",
            "0x0000000000000000000000002226ae701ecf96e27373e896f3ddbe8a9a676a30",
            "0x000000000000000000000000000000000022d473030f116ddee9f6b43ac78ba3"
          ],
          "data": "0x0000000000000000000000000000000000000000204fce5e3e25026110000000",
          "blockHash": "0xfc59342ed523d70955bb6bd5d521def27c97764f2edc549fbf0505269b279222",
          "blockNumber": "0x2359a9e",
          "blockTimestamp": "0x68f5921f",
          "transactionHash": "0xd2d70b6c51d11bfd31280f84b22a1ace56acba41148d5593176c6bc4f2280c63",
          "transactionIndex": "0xf3",
          "logIndex": "0x20a",
          "removed": false
        }
      ],
      "logsBloom": "0x00000000000000000000000000000000000000000000000000000010000000000000000000000000000000000000000000000010800000000000000000200000000000000000000000004000000000000000000000000800000000000000000000000000000000000000000000000000000000000000000000000000000000000000000000000000000000002000000000000000000000080000000000000000020000000000000002000000000000000000000000000000000000000000000000000000000000000002000000000000000000000000000000000000000000000010000000000000000000000000000000000000000000000000000000000000",
      "type": "0x2",
      "transactionHash": "0xd2d70b6c51d11bfd31280f84b22a1ace56acba41148d5593176c6bc4f2280c63",
      "transactionIndex": "0xf3",
      "blockHash": "0xfc59342ed523d70955bb6bd5d521def27c97764f2edc549fbf0505269b279222",
      "blockNumber": "0x2359a9e",
      "gasUsed": "0xb65f",
      "effectiveGasPrice": "0xc536f",
      "from": "0x2226ae701ecf96e27373e896f3ddbe8a9a676a30",
      "to": "0x9940016d558b91f5f11eb77a3b757062ba867ca2",
      "contractAddress": null,
      "l1BaseFeeScalar": "0x8dd",
      "l1BlobBaseFee": "0x1",
      "l1BlobBaseFeeScalar": "0x101c12",
      "l1Fee": "0x1890342f",
      "l1GasPrice": "0x6c418a4",
      "l1GasUsed": "0x640"
    },
    {
      "status": "0x1",
      "cumulativeGasUsed": "0x243da9d",
      "logs": [
        {
          "address": "0x000000000022d473030f116ddee9f6b43ac78ba3",
          "topics": [
            "0xda9fa7c1b00402c17d0161b249b1ab8bbec047c5a52207b9c112deffd817036b",
            "0x0000000000000000000000002226ae701ecf96e27373e896f3ddbe8a9a676a30",
            "0x0000000000000000000000009940016d558b91f5f11eb77a3b757062ba867ca2",
            "0x0000000000000000000000007c5f5a4bbd8fd63184577525326123b519429bdc"
          ],
          "data": "0x0000000000000000000000000000000000000000204fce5e3e25026110000000000000000000000000000000000000000000000000000000000000006ad6c597",
          "blockHash": "0xfc59342ed523d70955bb6bd5d521def27c97764f2edc549fbf0505269b279222",
          "blockNumber": "0x2359a9e",
          "blockTimestamp": "0x68f5921f",
          "transactionHash": "0x4c82f56c9a96b76b49c14aa14c1c938df81e092e6c723e82f697b702fa7d6809",
          "transactionIndex": "0xf4",
          "logIndex": "0x20b",
          "removed": false
        }
      ],
      "logsBloom": "0x00010000000000000000000000000000000000000000000000000010000000000000000000000000000000001000000000000010000000000000000000082000000000000000000000000000000000000000000000000000000000000000000000000000000000000000000000000000000000000000000000000000000000000020000000000000000000002000000000000100000000000000000000000000000000000000000000000000000000000000000000000000000000080200000200000000000000000000000000000000000000000000000040000000000000000000000000000000000000000000000000000000002000000000000000000400",
      "type": "0x2",
      "transactionHash": "0x4c82f56c9a96b76b49c14aa14c1c938df81e092e6c723e82f697b702fa7d6809",
      "transactionIndex": "0xf4",
      "blockHash": "0xfc59342ed523d70955bb6bd5d521def27c97764f2edc549fbf0505269b279222",
      "blockNumber": "0x2359a9e",
      "gasUsed": "0xba2e",
      "effectiveGasPrice": "0xc536f",
      "from": "0x2226ae701ecf96e27373e896f3ddbe8a9a676a30",
      "to": "0x000000000022d473030f116ddee9f6b43ac78ba3",
      "contractAddress": null,
      "l1BaseFeeScalar": "0x8dd",
      "l1BlobBaseFee": "0x1",
      "l1BlobBaseFeeScalar": "0x101c12",
      "l1Fee": "0x1d321705",
      "l1GasPrice": "0x6c418a4",
      "l1GasUsed": "0x76d"
    },
    {
      "status": "0x1",
      "cumulativeGasUsed": "0x25175ed",
      "logs": [
        {
          "address": "0x7c5f5a4bbd8fd63184577525326123b519429bdc",
          "topics": [
            "0xddf252ad1be2c89b69c2b068fc378daa952ba7f163c4a11628f55a4df523b3ef",
            "0x0000000000000000000000000000000000000000000000000000000000000000",
            "0x0000000000000000000000002226ae701ecf96e27373e896f3ddbe8a9a676a30",
            "0x0000000000000000000000000000000000000000000000000000000000062a67"
          ],
          "data": "0x",
          "blockHash": "0xfc59342ed523d70955bb6bd5d521def27c97764f2edc549fbf0505269b279222",
          "blockNumber": "0x2359a9e",
          "blockTimestamp": "0x68f5921f",
          "transactionHash": "0x277c83705f238bfb5c9d0bbad533012614e936f01a0604eca0b5f7fe0417d257",
          "transactionIndex": "0xf5",
          "logIndex": "0x20c",
          "removed": false
        },
        {
          "address": "0x498581ff718922c3f8e6a244956af099b2652b2b",
          "topics": [
            "0xf208f4912782fd25c7f114ca3723a2d5dd6f3bcc3ac8db5af63baa85f711d5ec",
            "0xf2e389cc15d720e16496ea8cc395cdea273d661a7fe5dbdf0a3664bd804724cc",
            "0x0000000000000000000000007c5f5a4bbd8fd63184577525326123b519429bdc"
          ],
          "data": "0xfffffffffffffffffffffffffffffffffffffffffffffffffffffffffffc7c00fffffffffffffffffffffffffffffffffffffffffffffffffffffffffffcbc100000000000000000000000000000000000000000000003c28a47f596c70838ea0000000000000000000000000000000000000000000000000000000000062a67",
          "blockHash": "0xfc59342ed523d70955bb6bd5d521def27c97764f2edc549fbf0505269b279222",
          "blockNumber": "0x2359a9e",
          "blockTimestamp": "0x68f5921f",
          "transactionHash": "0x277c83705f238bfb5c9d0bbad533012614e936f01a0604eca0b5f7fe0417d257",
          "transactionIndex": "0xf5",
          "logIndex": "0x20d",
          "removed": false
        },
        {
          "address": "0x7c5f5a4bbd8fd63184577525326123b519429bdc",
          "topics": [
            "0xddf252ad1be2c89b69c2b068fc378daa952ba7f163c4a11628f55a4df523b3ef",
            "0x0000000000000000000000000000000000000000000000000000000000000000",
            "0x0000000000000000000000002226ae701ecf96e27373e896f3ddbe8a9a676a30",
            "0x0000000000000000000000000000000000000000000000000000000000062a68"
          ],
          "data": "0x",
          "blockHash": "0xfc59342ed523d70955bb6bd5d521def27c97764f2edc549fbf0505269b279222",
          "blockNumber": "0x2359a9e",
          "blockTimestamp": "0x68f5921f",
          "transactionHash": "0x277c83705f238bfb5c9d0bbad533012614e936f01a0604eca0b5f7fe0417d257",
          "transactionIndex": "0xf5",
          "logIndex": "0x20e",
          "removed": false
        },
        {
          "address": "0x498581ff718922c3f8e6a244956af099b2652b2b",
          "topics": [
            "0xf208f4912782fd25c7f114ca3723a2d5dd6f3bcc3ac8db5af63baa85f711d5ec",
            "0xf2e389cc15d720e16496ea8cc395cdea273d661a7fe5dbdf0a3664bd804724cc",
            "0x0000000000000000000000007c5f5a4bbd8fd63184577525326123b519429bdc"
          ],
          "data": "0xfffffffffffffffffffffffffffffffffffffffffffffffffffffffffffcbc10fffffffffffffffffffffffffffffffffffffffffffffffffffffffffffda288000000000000000000000000000000000000000000001933d2f0fcc3c4a81d9b0000000000000000000000000000000000000000000000000000000000062a68",
          "blockHash": "0xfc59342ed523d70955bb6bd5d521def27c97764f2edc549fbf0505269b279222",
          "blockNumber": "0x2359a9e",
          "blockTimestamp": "0x68f5921f",
          "transactionHash": "0x277c83705f238bfb5c9d0bbad533012614e936f01a0604eca0b5f7fe0417d257",
          "transactionIndex": "0xf5",
          "logIndex": "0x20f",
          "removed": false
        },
        {
          "address": "0x7c5f5a4bbd8fd63184577525326123b519429bdc",
          "topics": [
            "0xddf252ad1be2c89b69c2b068fc378daa952ba7f163c4a11628f55a4df523b3ef",
            "0x0000000000000000000000000000000000000000000000000000000000000000",
            "0x0000000000000000000000002226ae701ecf96e27373e896f3ddbe8a9a676a30",
            "0x0000000000000000000000000000000000000000000000000000000000062a69"
          ],
          "data": "0x",
          "blockHash": "0xfc59342ed523d70955bb6bd5d521def27c97764f2edc549fbf0505269b279222",
          "blockNumber": "0x2359a9e",
          "blockTimestamp": "0x68f5921f",
          "transactionHash": "0x277c83705f238bfb5c9d0bbad533012614e936f01a0604eca0b5f7fe0417d257",
          "transactionIndex": "0xf5",
          "logIndex": "0x210",
          "removed": false
        },
        {
          "address": "0x498581ff718922c3f8e6a244956af099b2652b2b",
          "topics": [
            "0xf208f4912782fd25c7f114ca3723a2d5dd6f3bcc3ac8db5af63baa85f711d5ec",
            "0xf2e389cc15d720e16496ea8cc395cdea273d661a7fe5dbdf0a3664bd804724cc",
            "0x0000000000000000000000007c5f5a4bbd8fd63184577525326123b519429bdc"
          ],
          "data": "0xfffffffffffffffffffffffffffffffffffffffffffffffffffffffffffceaf0fffffffffffffffffffffffffffffffffffffffffffffffffffffffffffda288000000000000000000000000000000000000000000000e6e74e16047e486ad9c0000000000000000000000000000000000000000000000000000000000062a69",
          "blockHash": "0xfc59342ed523d70955bb6bd5d521def27c97764f2edc549fbf0505269b279222",
          "blockNumber": "0x2359a9e",
          "blockTimestamp": "0x68f5921f",
          "transactionHash": "0x277c83705f238bfb5c9d0bbad533012614e936f01a0604eca0b5f7fe0417d257",
          "transactionIndex": "0xf5",
          "logIndex": "0x211",
          "removed": false
        },
        {
          "address": "0x7c5f5a4bbd8fd63184577525326123b519429bdc",
          "topics": [
            "0xddf252ad1be2c89b69c2b068fc378daa952ba7f163c4a11628f55a4df523b3ef",
            "0x0000000000000000000000000000000000000000000000000000000000000000",
            "0x0000000000000000000000002226ae701ecf96e27373e896f3ddbe8a9a676a30",
            "0x0000000000000000000000000000000000000000000000000000000000062a6a"
          ],
          "data": "0x",
          "blockHash": "0xfc59342ed523d70955bb6bd5d521def27c97764f2edc549fbf0505269b279222",
          "blockNumber": "0x2359a9e",
          "blockTimestamp": "0x68f5921f",
          "transactionHash": "0x277c83705f238bfb5c9d0bbad533012614e936f01a0604eca0b5f7fe0417d257",
          "transactionIndex": "0xf5",
          "logIndex": "0x212",
          "removed": false
        },
        {
          "address": "0x498581ff718922c3f8e6a244956af099b2652b2b",
          "topics": [
            "0xf208f4912782fd25c7f114ca3723a2d5dd6f3bcc3ac8db5af63baa85f711d5ec",
            "0xf2e389cc15d720e16496ea8cc395cdea273d661a7fe5dbdf0a3664bd804724cc",
            "0x0000000000000000000000007c5f5a4bbd8fd63184577525326123b519429bdc"
          ],
          "data": "0xfffffffffffffffffffffffffffffffffffffffffffffffffffffffffffda288fffffffffffffffffffffffffffffffffffffffffffffffffffffffffffe2b4000000000000000000000000000000000000000000000dce275bfe1ba5750554b0000000000000000000000000000000000000000000000000000000000062a6a",
          "blockHash": "0xfc59342ed523d70955bb6bd5d521def27c97764f2edc549fbf0505269b279222",
          "blockNumber": "0x2359a9e",
          "blockTimestamp": "0x68f5921f",
          "transactionHash": "0x277c83705f238bfb5c9d0bbad533012614e936f01a0604eca0b5f7fe0417d257",
          "transactionIndex": "0xf5",
          "logIndex": "0x213",
          "removed": false
        },
        {
          "address": "0x7c5f5a4bbd8fd63184577525326123b519429bdc",
          "topics": [
            "0xddf252ad1be2c89b69c2b068fc378daa952ba7f163c4a11628f55a4df523b3ef",
            "0x0000000000000000000000000000000000000000000000000000000000000000",
            "0x0000000000000000000000002226ae701ecf96e27373e896f3ddbe8a9a676a30",
            "0x0000000000000000000000000000000000000000000000000000000000062a6b"
          ],
          "data": "0x",
          "blockHash": "0xfc59342ed523d70955bb6bd5d521def27c97764f2edc549fbf0505269b279222",
          "blockNumber": "0x2359a9e",
          "blockTimestamp": "0x68f5921f",
          "transactionHash": "0x277c83705f238bfb5c9d0bbad533012614e936f01a0604eca0b5f7fe0417d257",
          "transactionIndex": "0xf5",
          "logIndex": "0x214",
          "removed": false
        },
        {
          "address": "0x498581ff718922c3f8e6a244956af099b2652b2b",
          "topics": [
            "0xf208f4912782fd25c7f114ca3723a2d5dd6f3bcc3ac8db5af63baa85f711d5ec",
            "0xf2e389cc15d720e16496ea8cc395cdea273d661a7fe5dbdf0a3664bd804724cc",
            "0x0000000000000000000000007c5f5a4bbd8fd63184577525326123b519429bdc"
          ],
          "data": "0xfffffffffffffffffffffffffffffffffffffffffffffffffffffffffffdd938fffffffffffffffffffffffffffffffffffffffffffffffffffffffffffe2b40000000000000000000000000000000000000000000008d5555cda23fda1cf6a90000000000000000000000000000000000000000000000000000000000062a6b",
          "blockHash": "0xfc59342ed523d70955bb6bd5d521def27c97764f2edc549fbf0505269b279222",
          "blockNumber": "0x2359a9e",
          "blockTimestamp": "0x68f5921f",
          "transactionHash": "0x277c83705f238bfb5c9d0bbad533012614e936f01a0604eca0b5f7fe0417d257",
          "transactionIndex": "0xf5",
          "logIndex": "0x215",
          "removed": false
        },
        {
          "address": "0x9940016d558b91f5f11eb77a3b757062ba867ca2",
          "topics": [
            "0xddf252ad1be2c89b69c2b068fc378daa952ba7f163c4a11628f55a4df523b3ef",
            "0x0000000000000000000000002226ae701ecf96e27373e896f3ddbe8a9a676a30",
            "0x000000000000000000000000498581ff718922c3f8e6a244956af099b2652b2b"
          ],
          "data": "0x0000000000000000000000000000000000000000204fce5e3e2502610f29c892",
          "blockHash": "0xfc59342ed523d70955bb6bd5d521def27c97764f2edc549fbf0505269b279222",
          "blockNumber": "0x2359a9e",
          "blockTimestamp": "0x68f5921f",
          "transactionHash": "0x277c83705f238bfb5c9d0bbad533012614e936f01a0604eca0b5f7fe0417d257",
          "transactionIndex": "0xf5",
          "logIndex": "0x216",
          "removed": false
        }
      ],
      "logsBloom": "0x0800000000000000400000000000000000000000000040000000001000000400002000000000000000000020000000000000001000000001000000000000204000000000000008000000010800000000000000000000000000000000000000000000000002000000080002000000080004000000000000000000001000000000000040000100400000000000200000000000000000000008000000040000000000400400000000400a000000000000000000000000000000000000000000000200000002800001000002020000000000000800000000000000100000000020000000000000000000000000000000000004080400002000040000000000000000",
      "type": "0x2",
      "transactionHash": "0x277c83705f238bfb5c9d0bbad533012614e936f01a0604eca0b5f7fe0417d257",
      "transactionIndex": "0xf5",
      "blockHash": "0xfc59342ed523d70955bb6bd5d521def27c97764f2edc549fbf0505269b279222",
      "blockNumber": "0x2359a9e",
      "gasUsed": "0xd9b50",
      "effectiveGasPrice": "0xc536f",
      "from": "0x2226ae701ecf96e27373e896f3ddbe8a9a676a30",
      "to": "0x7c5f5a4bbd8fd63184577525326123b519429bdc",
      "contractAddress": null,
      "l1BaseFeeScalar": "0x8dd",
      "l1BlobBaseFee": "0x1",
      "l1BlobBaseFeeScalar": "0x101c12",
      "l1Fee": "0x6ec49e15",
      "l1GasPrice": "0x6c418a4",
      "l1GasUsed": "0x1c2f"
    }
  ],
  "libraries": [],
  "pending": [],
  "returns": {},
  "timestamp": 1760924192,
  "chain": 8453,
  "commit": "65077fa"
}