{
  "transactions": [
    {
      "hash": "0xa0ce6f5e43bda94336f82e7e1b422f7eb0f3ec8807bda1a3ad7750ad3373bf41",
      "transactionType": "CALL",
      "contractName": null,
      "contractAddress": "0x498581ff718922c3f8e6a244956af099b2652b2b",
      "function": "initialize((address,address,uint24,int24,address),uint160)",
      "arguments": [
        "(0x2cBBEd6eF9Ff3E7E9c4F954771Aaf2F781Fa2C7a, 0x8d29bE899DE72FFfB49f9B0367Cb812468de59B8, 0, 200, 0xc77A6B95D1639E83a17F1b63122a2c83a4A1C0C8)",
        "787149618249685149291181"
      ],
      "transaction": {
        "from": "0x2226ae701ecf96e27373e896f3ddbe8a9a676a30",
        "to": "0x498581ff718922c3f8e6a244956af099b2652b2b",
        "gas": "0x128d8",
        "value": "0x0",
        "input": "0x6276cbbe0000000000000000000000002cbbed6ef9ff3e7e9c4f954771aaf2f781fa2c7a0000000000000000000000008d29be899de72fffb49f9b0367cb812468de59b8000000000000000000000000000000000000000000000000000000000000000000000000000000000000000000000000000000000000000000000000000000c8000000000000000000000000c77a6b95d1639e83a17f1b63122a2c83a4a1c0c800000000000000000000000000000000000000000000a6af776004abf4e612ad",
        "nonce": "0x14",
        "chainId": "0x2105"
      },
      "additionalContracts": [],
      "isFixedGasLimit": false
    },
    {
      "hash": "0xc236973c43271d75a608264a42790b74fe82591d19b9ca14d059a7dcc225fc94",
      "transactionType": "CALL",
      "contractName": null,
      "contractAddress": "0x2cbbed6ef9ff3e7e9c4f954771aaf2f781fa2c7a",
      "function": "approve(address,uint256)",
      "arguments": [
        "0x000000000022D473030F116dDEE9F6B43aC78BA3",
        "10000000000000000000000000000"
      ],
      "transaction": {
        "from": "0x2226ae701ecf96e27373e896f3ddbe8a9a676a30",
        "to": "0x2cbbed6ef9ff3e7e9c4f954771aaf2f781fa2c7a",
        "gas": "0xfbe5",
        "value": "0x0",
        "input": "0x095ea7b3000000000000000000000000000000000022d473030f116ddee9f6b43ac78ba30000000000000000000000000000000000000000204fce5e3e25026110000000",
        "nonce": "0x15",
        "chainId": "0x2105"
      },
      "additionalContracts": [],
      "isFixedGasLimit": false
    },
    {
      "hash": "0x79f3730672c383119d76409894e67267b00fcaf901d2b1dd0532517c7c3e5c29",
      "transactionType": "CALL",
      "contractName": null,
      "contractAddress": "0x000000000022d473030f116ddee9f6b43ac78ba3",
      "function": "approve(address,address,uint160,uint48)",
      "arguments": [
        "0x2cBBEd6eF9Ff3E7E9c4F954771Aaf2F781Fa2C7a",
        "0x7C5f5A4bBd8fD63184577525326123B519429bDc",
        "10000000000000000000000000000",
        "1792277757"
      ],
      "transaction": {
        "from": "0x2226ae701ecf96e27373e896f3ddbe8a9a676a30",
        "to": "0x000000000022d473030f116ddee9f6b43ac78ba3",
        "gas": "0x10128",
        "value": "0x0",
        "input": "0x87517c450000000000000000000000002cbbed6ef9ff3e7e9c4f954771aaf2f781fa2c7a0000000000000000000000007c5f5a4bbd8fd63184577525326123b519429bdc0000000000000000000000000000000000000000204fce5e3e25026110000000000000000000000000000000000000000000000000000000000000006ad3fcfd",
        "nonce": "0x16",
        "chainId": "0x2105"
      },
      "additionalContracts": [],
      "isFixedGasLimit": false
    },
    {
      "hash": "0x9f808a9e0fd6a35ca3402283fc80ad70bd1cfb5bb9b75c7adff1f44797a4f011",
      "transactionType": "CALL",
      "contractName": "PositionManager",
      "contractAddress": "0x7c5f5a4bbd8fd63184577525326123b519429bdc",
      "function": "modifyLiquidities(bytes,uint256)",
      "arguments": [
        "0x00000000000000000000000000000000000000000000000000000000000000400000000000000000000000000000000000000000000000000000000000000080000000000000000000000000000000000000000000000000000000000000000602020202020d0000000000000000000000000000000000000000000000000000000000000000000000000000000000000000000000000000000000000000000600000000000000000000000000000000000000000000000000000000000000c000000000000000000000000000000000000000000000000000000000000002c000000000000000000000000000000000000000000000000000000000000004c000000000000000000000000000000000000000000000000000000000000006c000000000000000000000000000000000000000000000000000000000000008c00000000000000000000000000000000000000000000000000000000000000ac000000000000000000000000000000000000000000000000000000000000001e00000000000000000000000002cbbed6ef9ff3e7e9c4f954771aaf2f781fa2c7a0000000000000000000000008d29be899de72fffb49f9b0367cb812468de59b8000000000000000000000000000000000000000000000000000000000000000000000000000000000000000000000000000000000000000000000000000000c8000000000000000000000000c77a6b95d1639e83a17f1b63122a2c83a4a1c0c8fffffffffffffffffffffffffffffffffffffffffffffffffffffffffffc7c00fffffffffffffffffffffffffffffffffffffffffffffffffffffffffffcbc100000000000000000000000000000000000000000000003c28a47f596c70838ea0000000000000000000000000000000000000000033b2e3c9fd0803ce800000000000000000000000000000000000000000000000000000000000000000000000000000000000000000000002226ae701ecf96e27373e896f3ddbe8a9a676a30000000000000000000000000000000000000000000000000000000000000018000000000000000000000000000000000000000000000000000000000000000400000000000000000000000000000000000000000000000000000000000000020000000000000000000000000000000000000000000000000000000000000000000000000000000000000000000000000000000000000000000000000000001e00000000000000000000000002cbbed6ef9ff3e7e9c4f954771aaf2f781fa2c7a0000000000000000000000008d29be899de72fffb49f9b0367cb812468de59b8000000000000000000000000000000000000000000000000000000000000000000000000000000000000000000000000000000000000000000000000000000c8000000000000000000000000c77a6b95d1639e83a17f1b63122a2c83a4a1c0c8fffffffffffffffffffffffffffffffffffffffffffffffffffffffffffcbc10fffffffffffffffffffffffffffffffffffffffffffffffffffffffffffda288000000000000000000000000000000000000000000001933d2f0fcc3c4a81d9b00000000000000000000000000000000000000001027e72f1f1281308800000000000000000000000000000000000000000000000000000000000000000000000000000000000000000000002226ae701ecf96e27373e896f3ddbe8a9a676a30000000000000000000000000000000000000000000000000000000000000018000000000000000000000000000000000000000000000000000000000000000400000000000000000000000000000000000000000000000000000000000000020000000000000000000000000000000000000000000000000000000000000000000000000000000000000000000000000000000000000000000000000000001e00000000000000000000000002cbbed6ef9ff3e7e9c4f954771aaf2f781fa2c7a0000000000000000000000008d29be899de72fffb49f9b0367cb812468de59b8000000000000000000000000000000000000000000000000000000000000000000000000000000000000000000000000000000000000000000000000000000c8000000000000000000000000c77a6b95d1639e83a17f1b63122a2c83a4a1c0c8fffffffffffffffffffffffffffffffffffffffffffffffffffffffffffceaf0fffffffffffffffffffffffffffffffffffffffffffffffffffffffffffda288000000000000000000000000000000000000000000000e6e74e16047e486ad9c000000000000000000000000000000000000000004d8c55aefb8c05b5c00000000000000000000000000000000000000000000000000000000000000000000000000000000000000000000002226ae701ecf96e27373e896f3ddbe8a9a676a30000000000000000000000000000000000000000000000000000000000000018000000000000000000000000000000000000000000000000000000000000000400000000000000000000000000000000000000000000000000000000000000020000000000000000000000000000000000000000000000000000000000000000000000000000000000000000000000000000000000000000000000000000001e00000000000000000000000002cbbed6ef9ff3e7e9c4f954771aaf2f781fa2c7a0000000000000000000000008d29be899de72fffb49f9b0367cb812468de59b8000000000000000000000000000000000000000000000000000000000000000000000000000000000000000000000000000000000000000000000000000000c8000000000000000000000000c77a6b95d1639e83a17f1b63122a2c83a4a1c0c8fffffffffffffffffffffffffffffffffffffffffffffffffffffffffffda288fffffffffffffffffffffffffffffffffffffffffffffffffffffffffffe2b4000000000000000000000000000000000000000000000dce275bfe1ba5750554b000000000000000000000000000000000000000006765c793fa10079d000000000000000000000000000000000000000000000000000000000000000000000000000000000000000000000002226ae701ecf96e27373e896f3ddbe8a9a676a30000000000000000000000000000000000000000000000000000000000000018000000000000000000000000000000000000000000000000000000000000000400000000000000000000000000000000000000000000000000000000000000020000000000000000000000000000000000000000000000000000000000000000000000000000000000000000000000000000000000000000000000000000001e00000000000000000000000002cbbed6ef9ff3e7e9c4f954771aaf2f781fa2c7a0000000000000000000000008d29be899de72fffb49f9b0367cb812468de59b8000000000000000000000000000000000000000000000000000000000000000000000000000000000000000000000000000000000000000000000000000000c8000000000000000000000000c77a6b95d1639e83a17f1b63122a2c83a4a1c0c8fffffffffffffffffffffffffffffffffffffffffffffffffffffffffffdd938fffffffffffffffffffffffffffffffffffffffffffffffffffffffffffe2b40000000000000000000000000000000000000000000008d5555cda23fda1cf6a90000000000000000000000000000000000000000019d971e4fe8401e7400000000000000000000000000000000000000000000000000000000000000000000000000000000000000000000002226ae701ecf96e27373e896f3ddbe8a9a676a30000000000000000000000000000000000000000000000000000000000000018000000000000000000000000000000000000000000000000000000000000000400000000000000000000000000000000000000000000000000000000000000020000000000000000000000000000000000000000000000000000000000000000000000000000000000000000000000000000000000000000000000000000000400000000000000000000000002cbbed6ef9ff3e7e9c4f954771aaf2f781fa2c7a0000000000000000000000008d29be899de72fffb49f9b0367cb812468de59b8",
        "1792277757"
      ],
      "transaction": {
        "from": "0x2226ae701ecf96e27373e896f3ddbe8a9a676a30",
        "to": "0x7c5f5a4bbd8fd63184577525326123b519429bdc",
        "gas": "0x12cb53",
        "value": "0x0",
        "input": "0xdd46508f0000000000000000000000000000000000000000000000000000000000000040000000000000000000000000000000000000000000000000000000006ad3fcfd0000000000000000000000000000000000000000000000000000000000000bc000000000000000000000000000000000000000000000000000000000000000400000000000000000000000000000000000000000000000000000000000000080000000000000000000000000000000000000000000000000000000000000000602020202020d0000000000000000000000000000000000000000000000000000000000000000000000000000000000000000000000000000000000000000000600000000000000000000000000000000000000000000000000000000000000c000000000000000000000000000000000000000000000000000000000000002c000000000000000000000000000000000000000000000000000000000000004c000000000000000000000000000000000000000000000000000000000000006c000000000000000000000000000000000000000000000000000000000000008c00000000000000000000000000000000000000000000000000000000000000ac000000000000000000000000000000000000000000000000000000000000001e00000000000000000000000002cbbed6ef9ff3e7e9c4f954771aaf2f781fa2c7a0000000000000000000000008d29be899de72fffb49f9b0367cb812468de59b8000000000000000000000000000000000000000000000000000000000000000000000000000000000000000000000000000000000000000000000000000000c8000000000000000000000000c77a6b95d1639e83a17f1b63122a2c83a4a1c0c8fffffffffffffffffffffffffffffffffffffffffffffffffffffffffffc7c00fffffffffffffffffffffffffffffffffffffffffffffffffffffffffffcbc100000000000000000000000000000000000000000000003c28a47f596c70838ea0000000000000000000000000000000000000000033b2e3c9fd0803ce800000000000000000000000000000000000000000000000000000000000000000000000000000000000000000000002226ae701ecf96e27373e896f3ddbe8a9a676a30000000000000000000000000000000000000000000000000000000000000018000000000000000000000000000000000000000000000000000000000000000400000000000000000000000000000000000000000000000000000000000000020000000000000000000000000000000000000000000000000000000000000000000000000000000000000000000000000000000000000000000000000000001e00000000000000000000000002cbbed6ef9ff3e7e9c4f954771aaf2f781fa2c7a0000000000000000000000008d29be899de72fffb49f9b0367cb812468de59b8000000000000000000000000000000000000000000000000000000000000000000000000000000000000000000000000000000000000000000000000000000c8000000000000000000000000c77a6b95d1639e83a17f1b63122a2c83a4a1c0c8fffffffffffffffffffffffffffffffffffffffffffffffffffffffffffcbc10fffffffffffffffffffffffffffffffffffffffffffffffffffffffffffda288000000000000000000000000000000000000000000001933d2f0fcc3c4a81d9b00000000000000000000000000000000000000001027e72f1f1281308800000000000000000000000000000000000000000000000000000000000000000000000000000000000000000000002226ae701ecf96e27373e896f3ddbe8a9a676a30000000000000000000000000000000000000000000000000000000000000018000000000000000000000000000000000000000000000000000000000000000400000000000000000000000000000000000000000000000000000000000000020000000000000000000000000000000000000000000000000000000000000000000000000000000000000000000000000000000000000000000000000000001e00000000000000000000000002cbbed6ef9ff3e7e9c4f954771aaf2f781fa2c7a0000000000000000000000008d29be899de72fffb49f9b0367cb812468de59b8000000000000000000000000000000000000000000000000000000000000000000000000000000000000000000000000000000000000000000000000000000c8000000000000000000000000c77a6b95d1639e83a17f1b63122a2c83a4a1c0c8fffffffffffffffffffffffffffffffffffffffffffffffffffffffffffceaf0fffffffffffffffffffffffffffffffffffffffffffffffffffffffffffda288000000000000000000000000000000000000000000000e6e74e16047e486ad9c000000000000000000000000000000000000000004d8c55aefb8c05b5c00000000000000000000000000000000000000000000000000000000000000000000000000000000000000000000002226ae701ecf96e27373e896f3ddbe8a9a676a30000000000000000000000000000000000000000000000000000000000000018000000000000000000000000000000000000000000000000000000000000000400000000000000000000000000000000000000000000000000000000000000020000000000000000000000000000000000000000000000000000000000000000000000000000000000000000000000000000000000000000000000000000001e00000000000000000000000002cbbed6ef9ff3e7e9c4f954771aaf2f781fa2c7a0000000000000000000000008d29be899de72fffb49f9b0367cb812468de59b8000000000000000000000000000000000000000000000000000000000000000000000000000000000000000000000000000000000000000000000000000000c8000000000000000000000000c77a6b95d1639e83a17f1b63122a2c83a4a1c0c8fffffffffffffffffffffffffffffffffffffffffffffffffffffffffffda288fffffffffffffffffffffffffffffffffffffffffffffffffffffffffffe2b4000000000000000000000000000000000000000000000dce275bfe1ba5750554b000000000000000000000000000000000000000006765c793fa10079d000000000000000000000000000000000000000000000000000000000000000000000000000000000000000000000002226ae701ecf96e27373e896f3ddbe8a9a676a30000000000000000000000000000000000000000000000000000000000000018000000000000000000000000000000000000000000000000000000000000000400000000000000000000000000000000000000000000000000000000000000020000000000000000000000000000000000000000000000000000000000000000000000000000000000000000000000000000000000000000000000000000001e00000000000000000000000002cbbed6ef9ff3e7e9c4f954771aaf2f781fa2c7a0000000000000000000000008d29be899de72fffb49f9b0367cb812468de59b8000000000000000000000000000000000000000000000000000000000000000000000000000000000000000000000000000000000000000000000000000000c8000000000000000000000000c77a6b95d1639e83a17f1b63122a2c83a4a1c0c8fffffffffffffffffffffffffffffffffffffffffffffffffffffffffffdd938fffffffffffffffffffffffffffffffffffffffffffffffffffffffffffe2b40000000000000000000000000000000000000000000008d5555cda23fda1cf6a90000000000000000000000000000000000000000019d971e4fe8401e7400000000000000000000000000000000000000000000000000000000000000000000000000000000000000000000002226ae701ecf96e27373e896f3ddbe8a9a676a30000000000000000000000000000000000000000000000000000000000000018000000000000000000000000000000000000000000000000000000000000000400000000000000000000000000000000000000000000000000000000000000020000000000000000000000000000000000000000000000000000000000000000000000000000000000000000000000000000000000000000000000000000000400000000000000000000000002cbbed6ef9ff3e7e9c4f954771aaf2f781fa2c7a0000000000000000000000008d29be899de72fffb49f9b0367cb812468de59b8",
        "nonce": "0x17",
        "chainId": "0x2105"
      },
      "additionalContracts": [],
      "isFixedGasLimit": false
    }
  ],
  "receipts": [
    {
      "status": "0x1",
      "cumulativeGasUsed": "0x11468ae",
      "logs": [
        {
          "address": "0x498581ff718922c3f8e6a244956af099b2652b2b",
          "topics": [
            "0xdd466e674ea557f56295e2d0218a125ea4b4f0f6f3307b95f85e6110838d6438",
            "0x6fe850dbb77547700f6b4a69578052f43e01a5c515ecc2409b55afae7b57159b",
            "0x0000000000000000000000002cbbed6ef9ff3e7e9c4f954771aaf2f781fa2c7a",
            "0x0000000000000000000000008d29be899de72fffb49f9b0367cb812468de59b8"
          ],
          "data": "0x000000000000000000000000000000000000000000000000000000000000000000000000000000000000000000000000000000000000000000000000000000c8000000000000000000000000c77a6b95d1639e83a17f1b63122a2c83a4a1c0c800000000000000000000000000000000000000000000a6af776004abf4e612adfffffffffffffffffffffffffffffffffffffffffffffffffffffffffffc7c00",
          "blockHash": "0x9bc0b5c3734274ac01ed52cc492600197663c151d4782d33e2e3ea0eccacde53",
          "blockNumber": "0x2343651",
          "blockTimestamp": "0x68f2c985",
          "transactionHash": "0xa0ce6f5e43bda94336f82e7e1b422f7eb0f3ec8807bda1a3ad7750ad3373bf41",
          "transactionIndex": "0x5b",
          "logIndex": "0x1a7",
          "removed": false
        }
      ],
      "logsBloom": "0x00000000000000000000000000000000200000000000000000000000000000000000000000000000000000000000000000000000000000000000080000000000000000000000000000000000000000000000000000040000000000000001000000000000000000000000000000000000000000000040000000000000000000000000400000004008000000000000000000000001000000000000000000200001000200000000000000000000000000000000000000000000000000000000000000000000000000000000000000000000000800000000000000000000000000000000000000200000000000000000000000000400000000000000000000000000",
      "type": "0x2",
      "transactionHash": "0xa0ce6f5e43bda94336f82e7e1b422f7eb0f3ec8807bda1a3ad7750ad3373bf41",
      "transactionIndex": "0x5b",
      "blockHash": "0x9bc0b5c3734274ac01ed52cc492600197663c151d4782d33e2e3ea0eccacde53",
      "blockNumber": "0x2343651",
      "gasUsed": "0xcaf9",
      "effectiveGasPrice": "0x10daeb",
      "from": "0x2226ae701ecf96e27373e896f3ddbe8a9a676a30",
      "to": "0x498581ff718922c3f8e6a244956af099b2652b2b",
      "contractAddress": null,
      "l1BaseFeeScalar": "0x8dd",
      "l1BlobBaseFee": "0x1",
      "l1BlobBaseFeeScalar": "0x101c12",
      "l1Fee": "0x220c4880",
      "l1GasPrice": "0x6c0160e",
      "l1GasUsed": "0x8ae"
    },
    {
      "status": "0x1",
      "cumulativeGasUsed": "0x1151f0d",
      "logs": [
        {
          "address": "0x2cbbed6ef9ff3e7e9c4f954771aaf2f781fa2c7a",
          "topics": [
            "0x8c5be1e5ebec7d5bd14f71427d1e84f3dd0314c0f7b2291e5b200ac8c7c3b925",
            "0x0000000000000000000000002226ae701ecf96e27373e896f3ddbe8a9a676a30",
            "0x000000000000000000000000000000000022d473030f116ddee9f6b43ac78ba3"
          ],
          "data": "0x0000000000000000000000000000000000000000204fce5e3e25026110000000",
          "blockHash": "0x9bc0b5c3734274ac01ed52cc492600197663c151d4782d33e2e3ea0eccacde53",
          "blockNumber": "0x2343651",
          "blockTimestamp": "0x68f2c985",
          "transactionHash": "0xc236973c43271d75a608264a42790b74fe82591d19b9ca14d059a7dcc225fc94",
          "transactionIndex": "0x5c",
          "logIndex": "0x1a8",
          "removed": false
        }
      ],
      "logsBloom": "0x00000000000000000000000000000000000000000000000000000010000000000000000000000000000000000000000000000010800000000000000000200000000000000000000000004000000400000000000000000800000000000000000000000000000000000000000001000000000000000000000000000000000000000000000200000000000000002000000000000000000000000000000000000000020000000000000000000000000000000000000000000000000000000000000000000000000000000000000000000000000000000000000000000000000000000010000000000000000000000000000000000000000000000000000000000000",
      "type": "0x2",
      "transactionHash": "0xc236973c43271d75a608264a42790b74fe82591d19b9ca14d059a7dcc225fc94",
      "transactionIndex": "0x5c",
      "blockHash": "0x9bc0b5c3734274ac01ed52cc492600197663c151d4782d33e2e3ea0eccacde53",
      "blockNumber": "0x2343651",
      "gasUsed": "0xb65f",
      "effectiveGasPrice": "0x10daeb",
      "from": "0x2226ae701ecf96e27373e896f3ddbe8a9a676a30",
      "to": "0x2cbbed6ef9ff3e7e9c4f954771aaf2f781fa2c7a",
      "contractAddress": null,
      "l1BaseFeeScalar": "0x8dd",
      "l1BlobBaseFee": "0x1",
      "l1BlobBaseFeeScalar": "0x101c12",
      "l1Fee": "0x1881a544",
      "l1GasPrice": "0x6c0160e",
      "l1GasUsed": "0x640"
    },
    {
      "status": "0x1",
      "cumulativeGasUsed": "0x115d93b",
      "logs": [
        {
          "address": "0x000000000022d473030f116ddee9f6b43ac78ba3",
          "topics": [
            "0xda9fa7c1b00402c17d0161b249b1ab8bbec047c5a52207b9c112deffd817036b",
            "0x0000000000000000000000002226ae701ecf96e27373e896f3ddbe8a9a676a30",
            "0x0000000000000000000000002cbbed6ef9ff3e7e9c4f954771aaf2f781fa2c7a",
            "0x0000000000000000000000007c5f5a4bbd8fd63184577525326123b519429bdc"
          ],
          "data": "0x0000000000000000000000000000000000000000204fce5e3e25026110000000000000000000000000000000000000000000000000000000000000006ad3fcfd",
          "blockHash": "0x7d4fc0bb887b1307bd8ef4f4a052656f3056305a9650612e10dfa16eb137bafa",
          "blockNumber": "0x2343651",
          "blockTimestamp": "0x68f2c985",
          "transactionHash": "0x79f3730672c383119d76409894e67267b00fcaf901d2b1dd0532517c7c3e5c29",
          "transactionIndex": "0x5d",
          "logIndex": "0x1a9",
          "removed": false
        }
      ],
      "logsBloom": "0x00010000000000000000000000000000200000000000000000000010000000000000000000000000000000000000000000000010000000000000000000082000000000000000000000000000000000000000000000000000000000000000000000000000000000000000000000000000000000000040000000000000000000000020000000000000000000002000000000000000000000000000000000000000000200000000000000000000000000000000000000000000000000080000000200000000000000000000000000000000000000000000000040000000000000000000000000000000000000000000000000000000002000000000000000000400",
      "type": "0x2",
      "transactionHash": "0x79f3730672c383119d76409894e67267b00fcaf901d2b1dd0532517c7c3e5c29",
      "transactionIndex": "0x5d",
      "blockHash": "0x7d4fc0bb887b1307bd8ef4f4a052656f3056305a9650612e10dfa16eb137bafa",
      "blockNumber": "0x2343651",
      "gasUsed": "0xba2e",
      "effectiveGasPrice": "0x10daeb",
      "from": "0x2226ae701ecf96e27373e896f3ddbe8a9a676a30",
      "to": "0x000000000022d473030f116ddee9f6b43ac78ba3",
      "contractAddress": null,
      "l1BaseFeeScalar": "0x8dd",
      "l1BlobBaseFee": "0x1",
      "l1BlobBaseFeeScalar": "0x101c12",
      "l1Fee": "0x1881a544",
      "l1GasPrice": "0x6c0160e",
      "l1GasUsed": "0x76d"
    },
    {
      "status": "0x1",
      "cumulativeGasUsed": "0x123748b",
      "logs": [
        {
          "address": "0x7c5f5a4bbd8fd63184577525326123b519429bdc",
          "topics": [
            "0xddf252ad1be2c89b69c2b068fc378daa952ba7f163c4a11628f55a4df523b3ef",
            "0x0000000000000000000000000000000000000000000000000000000000000000",
            "0x0000000000000000000000002226ae701ecf96e27373e896f3ddbe8a9a676a30",
            "0x00000000000000000000000000000000000000000000000000000000000614e4"
          ],
          "data": "0x",
          "blockHash": "0x9bc0b5c3734274ac01ed52cc492600197663c151d4782d33e2e3ea0eccacde53",
          "blockNumber": "0x2343651",
          "blockTimestamp": "0x68f2c985",
          "transactionHash": "0x9f808a9e0fd6a35ca3402283fc80ad70bd1cfb5bb9b75c7adff1f44797a4f011",
          "transactionIndex": "0x5e",
          "logIndex": "0x1aa",
          "removed": false
        },
        {
          "address": "0x498581ff718922c3f8e6a244956af099b2652b2b",
          "topics": [
            "0xf208f4912782fd25c7f114ca3723a2d5dd6f3bcc3ac8db5af63baa85f711d5ec",
            "0x6fe850dbb77547700f6b4a69578052f43e01a5c515ecc2409b55afae7b57159b",
            "0x0000000000000000000000007c5f5a4bbd8fd63184577525326123b519429bdc"
          ],
          "data": "0xfffffffffffffffffffffffffffffffffffffffffffffffffffffffffffc7c00fffffffffffffffffffffffffffffffffffffffffffffffffffffffffffcbc100000000000000000000000000000000000000000000003c28a47f596c70838ea00000000000000000000000000000000000000000000000000000000000614e4",
          "blockHash": "0x9bc0b5c3734274ac01ed52cc492600197663c151d4782d33e2e3ea0eccacde53",
          "blockNumber": "0x2343651",
          "blockTimestamp": "0x68f2c985",
          "transactionHash": "0x9f808a9e0fd6a35ca3402283fc80ad70bd1cfb5bb9b75c7adff1f44797a4f011",
          "transactionIndex": "0x5e",
          "logIndex": "0x1ab",
          "removed": false
        },
        {
          "address": "0x7c5f5a4bbd8fd63184577525326123b519429bdc",
          "topics": [
            "0xddf252ad1be2c89b69c2b068fc378daa952ba7f163c4a11628f55a4df523b3ef",
            "0x0000000000000000000000000000000000000000000000000000000000000000",
            "0x0000000000000000000000002226ae701ecf96e27373e896f3ddbe8a9a676a30",
            "0x00000000000000000000000000000000000000000000000000000000000614e5"
          ],
          "data": "0x",
          "blockHash": "0x9bc0b5c3734274ac01ed52cc492600197663c151d4782d33e2e3ea0eccacde53",
          "blockNumber": "0x2343651",
          "blockTimestamp": "0x68f2c985",
          "transactionHash": "0x9f808a9e0fd6a35ca3402283fc80ad70bd1cfb5bb9b75c7adff1f44797a4f011",
          "transactionIndex": "0x5e",
          "logIndex": "0x1ac",
          "removed": false
        },
        {
          "address": "0x498581ff718922c3f8e6a244956af099b2652b2b",
          "topics": [
            "0xf208f4912782fd25c7f114ca3723a2d5dd6f3bcc3ac8db5af63baa85f711d5ec",
            "0x6fe850dbb77547700f6b4a69578052f43e01a5c515ecc2409b55afae7b57159b",
            "0x0000000000000000000000007c5f5a4bbd8fd63184577525326123b519429bdc"
          ],
          "data": "0xfffffffffffffffffffffffffffffffffffffffffffffffffffffffffffcbc10fffffffffffffffffffffffffffffffffffffffffffffffffffffffffffda288000000000000000000000000000000000000000000001933d2f0fcc3c4a81d9b00000000000000000000000000000000000000000000000000000000000614e5",
          "blockHash": "0x9bc0b5c3734274ac01ed52cc492600197663c151d4782d33e2e3ea0eccacde53",
          "blockNumber": "0x2343651",
          "blockTimestamp": "0x68f2c985",
          "transactionHash": "0x9f808a9e0fd6a35ca3402283fc80ad70bd1cfb5bb9b75c7adff1f44797a4f011",
          "transactionIndex": "0x5e",
          "logIndex": "0x1ad",
          "removed": false
        },
        {
          "address": "0x7c5f5a4bbd8fd63184577525326123b519429bdc",
          "topics": [
            "0xddf252ad1be2c89b69c2b068fc378daa952ba7f163c4a11628f55a4df523b3ef",
            "0x0000000000000000000000000000000000000000000000000000000000000000",
            "0x0000000000000000000000002226ae701ecf96e27373e896f3ddbe8a9a676a30",
            "0x00000000000000000000000000000000000000000000000000000000000614e6"
          ],
          "data": "0x",
          "blockHash": "0x9bc0b5c3734274ac01ed52cc492600197663c151d4782d33e2e3ea0eccacde53",
          "blockNumber": "0x2343651",
          "blockTimestamp": "0x68f2c985",
          "transactionHash": "0x9f808a9e0fd6a35ca3402283fc80ad70bd1cfb5bb9b75c7adff1f44797a4f011",
          "transactionIndex": "0x5e",
          "logIndex": "0x1ae",
          "removed": false
        },
        {
          "address": "0x498581ff718922c3f8e6a244956af099b2652b2b",
          "topics": [
            "0xf208f4912782fd25c7f114ca3723a2d5dd6f3bcc3ac8db5af63baa85f711d5ec",
            "0x6fe850dbb77547700f6b4a69578052f43e01a5c515ecc2409b55afae7b57159b",
            "0x0000000000000000000000007c5f5a4bbd8fd63184577525326123b519429bdc"
          ],
          "data": "0xfffffffffffffffffffffffffffffffffffffffffffffffffffffffffffceaf0fffffffffffffffffffffffffffffffffffffffffffffffffffffffffffda288000000000000000000000000000000000000000000000e6e74e16047e486ad9c00000000000000000000000000000000000000000000000000000000000614e6",
          "blockHash": "0x9bc0b5c3734274ac01ed52cc492600197663c151d4782d33e2e3ea0eccacde53",
          "blockNumber": "0x2343651",
          "blockTimestamp": "0x68f2c985",
          "transactionHash": "0x9f808a9e0fd6a35ca3402283fc80ad70bd1cfb5bb9b75c7adff1f44797a4f011",
          "transactionIndex": "0x5e",
          "logIndex": "0x1af",
          "removed": false
        },
        {
          "address": "0x7c5f5a4bbd8fd63184577525326123b519429bdc",
          "topics": [
            "0xddf252ad1be2c89b69c2b068fc378daa952ba7f163c4a11628f55a4df523b3ef",
            "0x0000000000000000000000000000000000000000000000000000000000000000",
            "0x0000000000000000000000002226ae701ecf96e27373e896f3ddbe8a9a676a30",
            "0x00000000000000000000000000000000000000000000000000000000000614e7"
          ],
          "data": "0x",
          "blockHash": "0x9bc0b5c3734274ac01ed52cc492600197663c151d4782d33e2e3ea0eccacde53",
          "blockNumber": "0x2343651",
          "blockTimestamp": "0x68f2c985",
          "transactionHash": "0x9f808a9e0fd6a35ca3402283fc80ad70bd1cfb5bb9b75c7adff1f44797a4f011",
          "transactionIndex": "0x5e",
          "logIndex": "0x1b0",
          "removed": false
        },
        {
          "address": "0x498581ff718922c3f8e6a244956af099b2652b2b",
          "topics": [
            "0xf208f4912782fd25c7f114ca3723a2d5dd6f3bcc3ac8db5af63baa85f711d5ec",
            "0x6fe850dbb77547700f6b4a69578052f43e01a5c515ecc2409b55afae7b57159b",
            "0x0000000000000000000000007c5f5a4bbd8fd63184577525326123b519429bdc"
          ],
          "data": "0xfffffffffffffffffffffffffffffffffffffffffffffffffffffffffffda288fffffffffffffffffffffffffffffffffffffffffffffffffffffffffffe2b4000000000000000000000000000000000000000000000dce275bfe1ba5750554b00000000000000000000000000000000000000000000000000000000000614e7",
          "blockHash": "0x9bc0b5c3734274ac01ed52cc492600197663c151d4782d33e2e3ea0eccacde53",
          "blockNumber": "0x2343651",
          "blockTimestamp": "0x68f2c985",
          "transactionHash": "0x9f808a9e0fd6a35ca3402283fc80ad70bd1cfb5bb9b75c7adff1f44797a4f011",
          "transactionIndex": "0x5e",
          "logIndex": "0x1b1",
          "removed": false
        },
        {
          "address": "0x7c5f5a4bbd8fd63184577525326123b519429bdc",
          "topics": [
            "0xddf252ad1be2c89b69c2b068fc378daa952ba7f163c4a11628f55a4df523b3ef",
            "0x0000000000000000000000000000000000000000000000000000000000000000",
            "0x0000000000000000000000002226ae701ecf96e27373e896f3ddbe8a9a676a30",
            "0x00000000000000000000000000000000000000000000000000000000000614e8"
          ],
          "data": "0x",
          "blockHash": "0x9bc0b5c3734274ac01ed52cc492600197663c151d4782d33e2e3ea0eccacde53",
          "blockNumber": "0x2343651",
          "blockTimestamp": "0x68f2c985",
          "transactionHash": "0x9f808a9e0fd6a35ca3402283fc80ad70bd1cfb5bb9b75c7adff1f44797a4f011",
          "transactionIndex": "0x5e",
          "logIndex": "0x1b2",
          "removed": false
        },
        {
          "address": "0x498581ff718922c3f8e6a244956af099b2652b2b",
          "topics": [
            "0xf208f4912782fd25c7f114ca3723a2d5dd6f3bcc3ac8db5af63baa85f711d5ec",
            "0x6fe850dbb77547700f6b4a69578052f43e01a5c515ecc2409b55afae7b57159b",
            "0x0000000000000000000000007c5f5a4bbd8fd63184577525326123b519429bdc"
          ],
          "data": "0xfffffffffffffffffffffffffffffffffffffffffffffffffffffffffffdd938fffffffffffffffffffffffffffffffffffffffffffffffffffffffffffe2b40000000000000000000000000000000000000000000008d5555cda23fda1cf6a900000000000000000000000000000000000000000000000000000000000614e8",
          "blockHash": "0x9bc0b5c3734274ac01ed52cc492600197663c151d4782d33e2e3ea0eccacde53",
          "blockNumber": "0x2343651",
          "blockTimestamp": "0x68f2c985",
          "transactionHash": "0x9f808a9e0fd6a35ca3402283fc80ad70bd1cfb5bb9b75c7adff1f44797a4f011",
          "transactionIndex": "0x5e",
          "logIndex": "0x1b3",
          "removed": false
        },
        {
          "address": "0x2cbbed6ef9ff3e7e9c4f954771aaf2f781fa2c7a",
          "topics": [
            "0xddf252ad1be2c89b69c2b068fc378daa952ba7f163c4a11628f55a4df523b3ef",
            "0x0000000000000000000000002226ae701ecf96e27373e896f3ddbe8a9a676a30",
            "0x000000000000000000000000498581ff718922c3f8e6a244956af099b2652b2b"
          ],
          "data": "0x0000000000000000000000000000000000000000204fce5e3e2502610f29c892",
          "blockHash": "0x9bc0b5c3734274ac01ed52cc492600197663c151d4782d33e2e3ea0eccacde53",
          "blockNumber": "0x2343651",
          "blockTimestamp": "0x68f2c985",
          "transactionHash": "0x9f808a9e0fd6a35ca3402283fc80ad70bd1cfb5bb9b75c7adff1f44797a4f011",
          "transactionIndex": "0x5e",
          "logIndex": "0x1b4",
          "removed": false
        }
      ],
      "logsBloom": "0x0000000000000000000040000000040000040000000000000000001000000000002000000000000000000000000000000008003000000000000018000000200000000000000000000000000800040000000000000000000000000000000100000000000002010000000000000100080004000000000000000000081000000004000000020100400000000000200000000000000040000000000000040000000100400401000000000c000000000000000000000000000000000000000000000200000002010001000000000000000010000800000000000000000000000020000000000000000000000000000000000004000400002000000000200000000000",
      "type": "0x2",
      "transactionHash": "0x9f808a9e0fd6a35ca3402283fc80ad70bd1cfb5bb9b75c7adff1f44797a4f011",
      "transactionIndex": "0x5e",
      "blockHash": "0x9bc0b5c3734274ac01ed52cc492600197663c151d4782d33e2e3ea0eccacde53",
      "blockNumber": "0x2343651",
      "gasUsed": "0xd9b50",
      "effectiveGasPrice": "0x10daeb",
      "from": "0x2226ae701ecf96e27373e896f3ddbe8a9a676a30",
      "to": "0x7c5f5a4bbd8fd63184577525326123b519429bdc",
      "contractAddress": null,
      "l1BaseFeeScalar": "0x8dd",
      "l1BlobBaseFee": "0x1",
      "l1BlobBaseFeeScalar": "0x101c12",
      "l1Fee": "0x6e82f792",
      "l1GasPrice": "0x6c0160e",
      "l1GasUsed": "0x1c2f"
    }
  ],
  "libraries": [],
  "pending": [],
  "returns": {},
  "timestamp": 1760741765,
  "chain": 8453,
  "commit": "65077fa"
}