{
  "transactions": [
    {
      "hash": "0x3b81bcec4a45a32cf38c8f7852ee175f13c3fd4f23a27ac73cca49912289f85d",
      "transactionType": "CALL",
      "contractName": null,
      "contractAddress": "0x498581ff718922c3f8e6a244956af099b2652b2b",
      "function": "initialize((address,address,uint24,int24,address),uint160)",
      "arguments": [
        "(0x44Cdb6a149310550d2DdE8C1552D7CbB10D3854d, 0x6CA3b5b4D4c22E4172104b583d154E440491723e, 0, 200, 0x9679B5ebBb4fec416E77a514bBb1a61381c140C8)",
        "787149618249685149291181"
      ],
      "transaction": {
        "from": "0x2226ae701ecf96e27373e896f3ddbe8a9a676a30",
        "to": "0x498581ff718922c3f8e6a244956af099b2652b2b",
        "gas": "0x128d8",
        "value": "0x0",
        "input": "0x6276cbbe00000000000000000000000044cdb6a149310550d2dde8c1552d7cbb10d3854d0000000000000000000000006ca3b5b4d4c22e4172104b583d154e440491723e000000000000000000000000000000000000000000000000000000000000000000000000000000000000000000000000000000000000000000000000000000c80000000000000000000000009679b5ebbb4fec416e77a514bbb1a61381c140c800000000000000000000000000000000000000000000a6af776004abf4e612ad",
        "nonce": "0x2a",
        "chainId": "0x2105"
      },
      "additionalContracts": [],
      "isFixedGasLimit": false
    },
    {
      "hash": "0xa2970935b7e9f6bbd076c329f9ff8307760cbbb638a229821e7d4b2522a5c124",
      "transactionType": "CALL",
      "contractName": null,
      "contractAddress": "0x44cdb6a149310550d2dde8c1552d7cbb10d3854d",
      "function": "approve(address,uint256)",
      "arguments": [
        "0x000000000022D473030F116dDEE9F6B43aC78BA3",
        "10000000000000000000000000000"
      ],
      "transaction": {
        "from": "0x2226ae701ecf96e27373e896f3ddbe8a9a676a30",
        "to": "0x44cdb6a149310550d2dde8c1552d7cbb10d3854d",
        "gas": "0xfbe5",
        "value": "0x0",
        "input": "0x095ea7b3000000000000000000000000000000000022d473030f116ddee9f6b43ac78ba30000000000000000000000000000000000000000204fce5e3e25026110000000",
        "nonce": "0x2b",
        "chainId": "0x2105"
      },
      "additionalContracts": [],
      "isFixedGasLimit": false
    },
    {
      "hash": "0xf2844b25a85854ee68c5482ed8414585d13db2e4d5f5e5f4a6a372c96892b7f2",
      "transactionType": "CALL",
      "contractName": null,
      "contractAddress": "0x000000000022d473030f116ddee9f6b43ac78ba3",
      "function": "approve(address,address,uint160,uint48)",
      "arguments": [
        "0x44Cdb6a149310550d2DdE8C1552D7CbB10D3854d",
        "0x7C5f5A4bBd8fD63184577525326123B519429bDc",
        "10000000000000000000000000000",
        "1792460709"
      ],
      "transaction": {
        "from": "0x2226ae701ecf96e27373e896f3ddbe8a9a676a30",
        "to": "0x000000000022d473030f116ddee9f6b43ac78ba3",
        "gas": "0x10128",
        "value": "0x0",
        "input": "0x87517c4500000000000000000000000044cdb6a149310550d2dde8c1552d7cbb10d3854d0000000000000000000000007c5f5a4bbd8fd63184577525326123b519429bdc0000000000000000000000000000000000000000204fce5e3e25026110000000000000000000000000000000000000000000000000000000000000006ad6c7a5",
        "nonce": "0x2c",
        "chainId": "0x2105"
      },
      "additionalContracts": [],
      "isFixedGasLimit": false
    },
    {
      "hash": "0xd3c1d941e925f8f47afbd360df527610b9339878e944f787781a750c53d4301b",
      "transactionType": "CALL",
      "contractName": "PositionManager",
      "contractAddress": "0x7c5f5a4bbd8fd63184577525326123b519429bdc",
      "function": "modifyLiquidities(bytes,uint256)",
      "arguments": [
        "0x00000000000000000000000000000000000000000000000000000000000000400000000000000000000000000000000000000000000000000000000000000080000000000000000000000000000000000000000000000000000000000000000602020202020d0000000000000000000000000000000000000000000000000000000000000000000000000000000000000000000000000000000000000000000600000000000000000000000000000000000000000000000000000000000000c000000000000000000000000000000000000000000000000000000000000002c000000000000000000000000000000000000000000000000000000000000004c000000000000000000000000000000000000000000000000000000000000006c000000000000000000000000000000000000000000000000000000000000008c00000000000000000000000000000000000000000000000000000000000000ac000000000000000000000000000000000000000000000000000000000000001e000000000000000000000000044cdb6a149310550d2dde8c1552d7cbb10d3854d0000000000000000000000006ca3b5b4d4c22e4172104b583d154e440491723e000000000000000000000000000000000000000000000000000000000000000000000000000000000000000000000000000000000000000000000000000000c80000000000000000000000009679b5ebbb4fec416e77a514bbb1a61381c140c8fffffffffffffffffffffffffffffffffffffffffffffffffffffffffffc7c00fffffffffffffffffffffffffffffffffffffffffffffffffffffffffffcbc100000000000000000000000000000000000000000000003c28a47f596c70838ea0000000000000000000000000000000000000000033b2e3c9fd0803ce800000000000000000000000000000000000000000000000000000000000000000000000000000000000000000000002226ae701ecf96e27373e896f3ddbe8a9a676a30000000000000000000000000000000000000000000000000000000000000018000000000000000000000000000000000000000000000000000000000000000400000000000000000000000000000000000000000000000000000000000000020000000000000000000000000000000000000000000000000000000000000000000000000000000000000000000000000000000000000000000000000000001e000000000000000000000000044cdb6a149310550d2dde8c1552d7cbb10d3854d0000000000000000000000006ca3b5b4d4c22e4172104b583d154e440491723e000000000000000000000000000000000000000000000000000000000000000000000000000000000000000000000000000000000000000000000000000000c80000000000000000000000009679b5ebbb4fec416e77a514bbb1a61381c140c8fffffffffffffffffffffffffffffffffffffffffffffffffffffffffffcbc10fffffffffffffffffffffffffffffffffffffffffffffffffffffffffffda288000000000000000000000000000000000000000000001933d2f0fcc3c4a81d9b00000000000000000000000000000000000000001027e72f1f1281308800000000000000000000000000000000000000000000000000000000000000000000000000000000000000000000002226ae701ecf96e27373e896f3ddbe8a9a676a30000000000000000000000000000000000000000000000000000000000000018000000000000000000000000000000000000000000000000000000000000000400000000000000000000000000000000000000000000000000000000000000020000000000000000000000000000000000000000000000000000000000000000000000000000000000000000000000000000000000000000000000000000001e000000000000000000000000044cdb6a149310550d2dde8c1552d7cbb10d3854d0000000000000000000000006ca3b5b4d4c22e4172104b583d154e440491723e000000000000000000000000000000000000000000000000000000000000000000000000000000000000000000000000000000000000000000000000000000c80000000000000000000000009679b5ebbb4fec416e77a514bbb1a61381c140c8fffffffffffffffffffffffffffffffffffffffffffffffffffffffffffceaf0fffffffffffffffffffffffffffffffffffffffffffffffffffffffffffda288000000000000000000000000000000000000000000000e6e74e16047e486ad9c000000000000000000000000000000000000000004d8c55aefb8c05b5c00000000000000000000000000000000000000000000000000000000000000000000000000000000000000000000002226ae701ecf96e27373e896f3ddbe8a9a676a30000000000000000000000000000000000000000000000000000000000000018000000000000000000000000000000000000000000000000000000000000000400000000000000000000000000000000000000000000000000000000000000020000000000000000000000000000000000000000000000000000000000000000000000000000000000000000000000000000000000000000000000000000001e000000000000000000000000044cdb6a149310550d2dde8c1552d7cbb10d3854d0000000000000000000000006ca3b5b4d4c22e4172104b583d154e440491723e000000000000000000000000000000000000000000000000000000000000000000000000000000000000000000000000000000000000000000000000000000c80000000000000000000000009679b5ebbb4fec416e77a514bbb1a61381c140c8fffffffffffffffffffffffffffffffffffffffffffffffffffffffffffda288fffffffffffffffffffffffffffffffffffffffffffffffffffffffffffe2b4000000000000000000000000000000000000000000000dce275bfe1ba5750554b000000000000000000000000000000000000000006765c793fa10079d000000000000000000000000000000000000000000000000000000000000000000000000000000000000000000000002226ae701ecf96e27373e896f3ddbe8a9a676a30000000000000000000000000000000000000000000000000000000000000018000000000000000000000000000000000000000000000000000000000000000400000000000000000000000000000000000000000000000000000000000000020000000000000000000000000000000000000000000000000000000000000000000000000000000000000000000000000000000000000000000000000000001e000000000000000000000000044cdb6a149310550d2dde8c1552d7cbb10d3854d0000000000000000000000006ca3b5b4d4c22e4172104b583d154e440491723e000000000000000000000000000000000000000000000000000000000000000000000000000000000000000000000000000000000000000000000000000000c80000000000000000000000009679b5ebbb4fec416e77a514bbb1a61381c140c8fffffffffffffffffffffffffffffffffffffffffffffffffffffffffffdd938fffffffffffffffffffffffffffffffffffffffffffffffffffffffffffe2b40000000000000000000000000000000000000000000008d5555cda23fda1cf6a90000000000000000000000000000000000000000019d971e4fe8401e7400000000000000000000000000000000000000000000000000000000000000000000000000000000000000000000002226ae701ecf96e27373e896f3ddbe8a9a676a300000000000000000000000000000000000000000000000000000000000000180000000000000000000000000000000000000000000000000000000000000004000000000000000000000000000000000000000000000000000000000000000200000000000000000000000000000000000000000000000000000000000000000000000000000000000000000000000000000000000000000000000000000004000000000000000000000000044cdb6a149310550d2dde8c1552d7cbb10d3854d0000000000000000000000006ca3b5b4d4c22e4172104b583d154e440491723e",
        "1792460709"
      ],
      "transaction": {
        "from": "0x2226ae701ecf96e27373e896f3ddbe8a9a676a30",
        "to": "0x7c5f5a4bbd8fd63184577525326123b519429bdc",
        "gas": "0x12cb53",
        "value": "0x0",
        "input": "0xdd46508f0000000000000000000000000000000000000000000000000000000000000040000000000000000000000000000000000000000000000000000000006ad6c7a50000000000000000000000000000000000000000000000000000000000000bc000000000000000000000000000000000000000000000000000000000000000400000000000000000000000000000000000000000000000000000000000000080000000000000000000000000000000000000000000000000000000000000000602020202020d0000000000000000000000000000000000000000000000000000000000000000000000000000000000000000000000000000000000000000000600000000000000000000000000000000000000000000000000000000000000c000000000000000000000000000000000000000000000000000000000000002c000000000000000000000000000000000000000000000000000000000000004c000000000000000000000000000000000000000000000000000000000000006c000000000000000000000000000000000000000000000000000000000000008c00000000000000000000000000000000000000000000000000000000000000ac000000000000000000000000000000000000000000000000000000000000001e000000000000000000000000044cdb6a149310550d2dde8c1552d7cbb10d3854d0000000000000000000000006ca3b5b4d4c22e4172104b583d154e440491723e000000000000000000000000000000000000000000000000000000000000000000000000000000000000000000000000000000000000000000000000000000c80000000000000000000000009679b5ebbb4fec416e77a514bbb1a61381c140c8fffffffffffffffffffffffffffffffffffffffffffffffffffffffffffc7c00fffffffffffffffffffffffffffffffffffffffffffffffffffffffffffcbc100000000000000000000000000000000000000000000003c28a47f596c70838ea0000000000000000000000000000000000000000033b2e3c9fd0803ce800000000000000000000000000000000000000000000000000000000000000000000000000000000000000000000002226ae701ecf96e27373e896f3ddbe8a9a676a30000000000000000000000000000000000000000000000000000000000000018000000000000000000000000000000000000000000000000000000000000000400000000000000000000000000000000000000000000000000000000000000020000000000000000000000000000000000000000000000000000000000000000000000000000000000000000000000000000000000000000000000000000001e000000000000000000000000044cdb6a149310550d2dde8c1552d7cbb10d3854d0000000000000000000000006ca3b5b4d4c22e4172104b583d154e440491723e000000000000000000000000000000000000000000000000000000000000000000000000000000000000000000000000000000000000000000000000000000c80000000000000000000000009679b5ebbb4fec416e77a514bbb1a61381c140c8fffffffffffffffffffffffffffffffffffffffffffffffffffffffffffcbc10fffffffffffffffffffffffffffffffffffffffffffffffffffffffffffda288000000000000000000000000000000000000000000001933d2f0fcc3c4a81d9b00000000000000000000000000000000000000001027e72f1f1281308800000000000000000000000000000000000000000000000000000000000000000000000000000000000000000000002226ae701ecf96e27373e896f3ddbe8a9a676a30000000000000000000000000000000000000000000000000000000000000018000000000000000000000000000000000000000000000000000000000000000400000000000000000000000000000000000000000000000000000000000000020000000000000000000000000000000000000000000000000000000000000000000000000000000000000000000000000000000000000000000000000000001e000000000000000000000000044cdb6a149310550d2dde8c1552d7cbb10d3854d0000000000000000000000006ca3b5b4d4c22e4172104b583d154e440491723e000000000000000000000000000000000000000000000000000000000000000000000000000000000000000000000000000000000000000000000000000000c80000000000000000000000009679b5ebbb4fec416e77a514bbb1a61381c140c8fffffffffffffffffffffffffffffffffffffffffffffffffffffffffffceaf0fffffffffffffffffffffffffffffffffffffffffffffffffffffffffffda288000000000000000000000000000000000000000000000e6e74e16047e486ad9c000000000000000000000000000000000000000004d8c55aefb8c05b5c00000000000000000000000000000000000000000000000000000000000000000000000000000000000000000000002226ae701ecf96e27373e896f3ddbe8a9a676a30000000000000000000000000000000000000000000000000000000000000018000000000000000000000000000000000000000000000000000000000000000400000000000000000000000000000000000000000000000000000000000000020000000000000000000000000000000000000000000000000000000000000000000000000000000000000000000000000000000000000000000000000000001e000000000000000000000000044cdb6a149310550d2dde8c1552d7cbb10d3854d0000000000000000000000006ca3b5b4d4c22e4172104b583d154e440491723e000000000000000000000000000000000000000000000000000000000000000000000000000000000000000000000000000000000000000000000000000000c80000000000000000000000009679b5ebbb4fec416e77a514bbb1a61381c140c8fffffffffffffffffffffffffffffffffffffffffffffffffffffffffffda288fffffffffffffffffffffffffffffffffffffffffffffffffffffffffffe2b4000000000000000000000000000000000000000000000dce275bfe1ba5750554b000000000000000000000000000000000000000006765c793fa10079d000000000000000000000000000000000000000000000000000000000000000000000000000000000000000000000002226ae701ecf96e27373e896f3ddbe8a9a676a30000000000000000000000000000000000000000000000000000000000000018000000000000000000000000000000000000000000000000000000000000000400000000000000000000000000000000000000000000000000000000000000020000000000000000000000000000000000000000000000000000000000000000000000000000000000000000000000000000000000000000000000000000001e000000000000000000000000044cdb6a149310550d2dde8c1552d7cbb10d3854d0000000000000000000000006ca3b5b4d4c22e4172104b583d154e440491723e000000000000000000000000000000000000000000000000000000000000000000000000000000000000000000000000000000000000000000000000000000c80000000000000000000000009679b5ebbb4fec416e77a514bbb1a61381c140c8fffffffffffffffffffffffffffffffffffffffffffffffffffffffffffdd938fffffffffffffffffffffffffffffffffffffffffffffffffffffffffffe2b40000000000000000000000000000000000000000000008d5555cda23fda1cf6a90000000000000000000000000000000000000000019d971e4fe8401e7400000000000000000000000000000000000000000000000000000000000000000000000000000000000000000000002226ae701ecf96e27373e896f3ddbe8a9a676a300000000000000000000000000000000000000000000000000000000000000180000000000000000000000000000000000000000000000000000000000000004000000000000000000000000000000000000000000000000000000000000000200000000000000000000000000000000000000000000000000000000000000000000000000000000000000000000000000000000000000000000000000000004000000000000000000000000044cdb6a149310550d2dde8c1552d7cbb10d3854d0000000000000000000000006ca3b5b4d4c22e4172104b583d154e440491723e",
        "nonce": "0x2d",
        "chainId": "0x2105"
      },
      "additionalContracts": [],
      "isFixedGasLimit": false
    }
  ],
  "receipts": [
    {
      "status": "0x1",
      "cumulativeGasUsed": "0x14911f0",
      "logs": [
        {
          "address": "0x498581ff718922c3f8e6a244956af099b2652b2b",
          "topics": [
            "0xdd466e674ea557f56295e2d0218a125ea4b4f0f6f3307b95f85e6110838d6438",
            "0x9f002315153e63cd202d9c860665d865906545b9921187fd08a2373caef589dc",
            "0x00000000000000000000000044cdb6a149310550d2dde8c1552d7cbb10d3854d",
            "0x0000000000000000000000006ca3b5b4d4c22e4172104b583d154e440491723e"
          ],
          "data": "0x000000000000000000000000000000000000000000000000000000000000000000000000000000000000000000000000000000000000000000000000000000c80000000000000000000000009679b5ebbb4fec416e77a514bbb1a61381c140c800000000000000000000000000000000000000000000a6af776004abf4e612adfffffffffffffffffffffffffffffffffffffffffffffffffffffffffffc7c00",
          "blockHash": "0x8c682e78ed63a5668598676eff288922322d13c317eeadc9d01053f4c1b3a1b2",
          "blockNumber": "0x2359ba5",
          "blockTimestamp": "0x68f5942d",
          "transactionHash": "0x3b81bcec4a45a32cf38c8f7852ee175f13c3fd4f23a27ac73cca49912289f85d",
          "transactionIndex": "0x78",
          "logIndex": "0x123",
          "removed": false
        }
      ],
      "logsBloom": "0x00000000000000000000000000000000000000000000000000000000000000000000000000000000000000000000000000000000000000000008000000000000000000000000000040000000000000000000000000000000000000002000000000000000000000000000000000000000000000000000000000000000000000000000000800004008000000000004000000000001000000000000000000200000000000000000000000000000000000000000000000000000000000800000000020000000000000000000000000000000000800000000000000000000000000000000080000000000000000000000000000000400000000000000000000080000",
      "type": "0x2",
      "transactionHash": "0x3b81bcec4a45a32cf38c8f7852ee175f13c3fd4f23a27ac73cca49912289f85d",
      "transactionIndex": "0x78",
      "blockHash": "0x8c682e78ed63a5668598676eff288922322d13c317eeadc9d01053f4c1b3a1b2",
      "blockNumber": "0x2359ba5",
      "gasUsed": "0xcaf9",
      "effectiveGasPrice": "0x14781a",
      "from": "0x2226ae701ecf96e27373e896f3ddbe8a9a676a30",
      "to": "0x498581ff718922c3f8e6a244956af099b2652b2b",
      "contractAddress": null,
      "l1BaseFeeScalar": "0x8dd",
      "l1BlobBaseFee": "0x1",
      "l1BlobBaseFeeScalar": "0x101c12",
      "l1Fee": "0x210ee060",
      "l1GasPrice": "0x68dd889",
      "l1GasUsed": "0x8ae"
    },
    {
      "status": "0x1",
      "cumulativeGasUsed": "0x149c84f",
      "logs": [
        {
          "address": "0x44cdb6a149310550d2dde8c1552d7cbb10d3854d",
          "topics": [
            "0x8c5be1e5ebec7d5bd14f71427d1e84f3dd0314c0f7b2291e5b200ac8c7c3b925",
            "0x0000000000000000000000002226ae701ecf96e27373e896f3ddbe8a9a676a30",
            "0x000000000000000000000000000000000022d473030f116ddee9f6b43ac78ba3"
          ],
          "data": "0x0000000000000000000000000000000000000000204fce5e3e25026110000000",
          "blockHash": "0xe2e6f71be389257bf29fa36bd4483d04e0db8e1535f8a983571bf6543ae8fe8c",
          "blockNumber": "0x2359ba5",
          "blockTimestamp": "0x68f5942d",
          "transactionHash": "0xa2970935b7e9f6bbd076c329f9ff8307760cbbb638a229821e7d4b2522a5c124",
          "transactionIndex": "0x79",
          "logIndex": "0x124",
          "removed": false
        }
      ],
      "logsBloom": "0x00000000008000000000000000000000000000000000000000000010000000000000000000000000000000000000000000000010800000000000000000200000000000000000000000004000000000000000000000000800000000000000000000000000000000000000000000000000000000000000000000000000000000000000000000000000000000002000000000000000000000000000000000000000020000000000000000000000000000000000000000000000000000000000000000000000000000000000000000000000000000000000000000000000000000000010000000000000000000800000000040000000000000000000000000000000",
      "type": "0x2",
      "transactionHash": "0xa2970935b7e9f6bbd076c329f9ff8307760cbbb638a229821e7d4b2522a5c124",
      "transactionIndex": "0x79",
      "blockHash": "0xe2e6f71be389257bf29fa36bd4483d04e0db8e1535f8a983571bf6543ae8fe8c",
      "blockNumber": "0x2359ba5",
      "gasUsed": "0xb65f",
      "effectiveGasPrice": "0x14781a",
      "from": "0x2226ae701ecf96e27373e896f3ddbe8a9a676a30",
      "to": "0x44cdb6a149310550d2dde8c1552d7cbb10d3854d",
      "contractAddress": null,
      "l1BaseFeeScalar": "0x8dd",
      "l1BlobBaseFee": "0x1",
      "l1BlobBaseFeeScalar": "0x101c12",
      "l1Fee": "0x17cb40ce",
      "l1GasPrice": "0x68dd889",
      "l1GasUsed": "0x640"
    },
    {
      "status": "0x1",
      "cumulativeGasUsed": "0x14a827d",
      "logs": [
        {
          "address": "0x000000000022d473030f116ddee9f6b43ac78ba3",
          "topics": [
            "0xda9fa7c1b00402c17d0161b249b1ab8bbec047c5a52207b9c112deffd817036b",
            "0x0000000000000000000000002226ae701ecf96e27373e896f3ddbe8a9a676a30",
            "0x00000000000000000000000044cdb6a149310550d2dde8c1552d7cbb10d3854d",
            "0x0000000000000000000000007c5f5a4bbd8fd63184577525326123b519429bdc"
          ],
          "data": "0x0000000000000000000000000000000000000000204fce5e3e25026110000000000000000000000000000000000000000000000000000000000000006ad6c7a5",
          "blockHash": "0x8c682e78ed63a5668598676eff288922322d13c317eeadc9d01053f4c1b3a1b2",
          "blockNumber": "0x2359ba5",
          "blockTimestamp": "0x68f5942d",
          "transactionHash": "0xf2844b25a85854ee68c5482ed8414585d13db2e4d5f5e5f4a6a372c96892b7f2",
          "transactionIndex": "0x7a",
          "logIndex": "0x125",
          "removed": false
        }
      ],
      "logsBloom": "0x00010000000000000000000000000000000000000000000000000010000000000000000000000000000000000000000000000010000000000008000000082000000000000000000000000000000000000000000000000000000000000000000000000000000000000000000000000000000000000000000000000000000000000020000800000000000000002000000000000000000000000000000000000000000000000000000000000000000000000000000000000000000000080000000200000000000000000000000000000000000000000000000040000000000000000000000000000000000000000000000000000000002000000000000000080400",
      "type": "0x2",
      "transactionHash": "0xf2844b25a85854ee68c5482ed8414585d13db2e4d5f5e5f4a6a372c96892b7f2",
      "transactionIndex": "0x7a",
      "blockHash": "0x8c682e78ed63a5668598676eff288922322d13c317eeadc9d01053f4c1b3a1b2",
      "blockNumber": "0x2359ba5",
      "gasUsed": "0xba2e",
      "effectiveGasPrice": "0x14781a",
      "from": "0x2226ae701ecf96e27373e896f3ddbe8a9a676a30",
      "to": "0x000000000022d473030f116ddee9f6b43ac78ba3",
      "contractAddress": null,
      "l1BaseFeeScalar": "0x8dd",
      "l1BlobBaseFee": "0x1",
      "l1BlobBaseFeeScalar": "0x101c12",
      "l1Fee": "0x1c47ff1a",
      "l1GasPrice": "0x68dd889",
      "l1GasUsed": "0x76d"
    },
    {
      "status": "0x1",
      "cumulativeGasUsed": "0x1581dcd",
      "logs": [
        {
          "address": "0x7c5f5a4bbd8fd63184577525326123b519429bdc",
          "topics": [
            "0xddf252ad1be2c89b69c2b068fc378daa952ba7f163c4a11628f55a4df523b3ef",
            "0x0000000000000000000000000000000000000000000000000000000000000000",
            "0x0000000000000000000000002226ae701ecf96e27373e896f3ddbe8a9a676a30",
            "0x0000000000000000000000000000000000000000000000000000000000062a71"
          ],
          "data": "0x",
          "blockHash": "0x8c682e78ed63a5668598676eff288922322d13c317eeadc9d01053f4c1b3a1b2",
          "blockNumber": "0x2359ba5",
          "blockTimestamp": "0x68f5942d",
          "transactionHash": "0xd3c1d941e925f8f47afbd360df527610b9339878e944f787781a750c53d4301b",
          "transactionIndex": "0x7b",
          "logIndex": "0x126",
          "removed": false
        },
        {
          "address": "0x498581ff718922c3f8e6a244956af099b2652b2b",
          "topics": [
            "0xf208f4912782fd25c7f114ca3723a2d5dd6f3bcc3ac8db5af63baa85f711d5ec",
            "0x9f002315153e63cd202d9c860665d865906545b9921187fd08a2373caef589dc",
            "0x0000000000000000000000007c5f5a4bbd8fd63184577525326123b519429bdc"
          ],
          "data": "0xfffffffffffffffffffffffffffffffffffffffffffffffffffffffffffc7c00fffffffffffffffffffffffffffffffffffffffffffffffffffffffffffcbc100000000000000000000000000000000000000000000003c28a47f596c70838ea0000000000000000000000000000000000000000000000000000000000062a71",
          "blockHash": "0x8c682e78ed63a5668598676eff288922322d13c317eeadc9d01053f4c1b3a1b2",
          "blockNumber": "0x2359ba5",
          "blockTimestamp": "0x68f5942d",
          "transactionHash": "0xd3c1d941e925f8f47afbd360df527610b9339878e944f787781a750c53d4301b",
          "transactionIndex": "0x7b",
          "logIndex": "0x127",
          "removed": false
        },
        {
          "address": "0x7c5f5a4bbd8fd63184577525326123b519429bdc",
          "topics": [
            "0xddf252ad1be2c89b69c2b068fc378daa952ba7f163c4a11628f55a4df523b3ef",
            "0x0000000000000000000000000000000000000000000000000000000000000000",
            "0x0000000000000000000000002226ae701ecf96e27373e896f3ddbe8a9a676a30",
            "0x0000000000000000000000000000000000000000000000000000000000062a72"
          ],
          "data": "0x",
          "blockHash": "0x8c682e78ed63a5668598676eff288922322d13c317eeadc9d01053f4c1b3a1b2",
          "blockNumber": "0x2359ba5",
          "blockTimestamp": "0x68f5942d",
          "transactionHash": "0xd3c1d941e925f8f47afbd360df527610b9339878e944f787781a750c53d4301b",
          "transactionIndex": "0x7b",
          "logIndex": "0x128",
          "removed": false
        },
        {
          "address": "0x498581ff718922c3f8e6a244956af099b2652b2b",
          "topics": [
            "0xf208f4912782fd25c7f114ca3723a2d5dd6f3bcc3ac8db5af63baa85f711d5ec",
            "0x9f002315153e63cd202d9c860665d865906545b9921187fd08a2373caef589dc",
            "0x0000000000000000000000007c5f5a4bbd8fd63184577525326123b519429bdc"
          ],
          "data": "0xfffffffffffffffffffffffffffffffffffffffffffffffffffffffffffcbc10fffffffffffffffffffffffffffffffffffffffffffffffffffffffffffda288000000000000000000000000000000000000000000001933d2f0fcc3c4a81d9b0000000000000000000000000000000000000000000000000000000000062a72",
          "blockHash": "0x8c682e78ed63a5668598676eff288922322d13c317eeadc9d01053f4c1b3a1b2",
          "blockNumber": "0x2359ba5",
          "blockTimestamp": "0x68f5942d",
          "transactionHash": "0xd3c1d941e925f8f47afbd360df527610b9339878e944f787781a750c53d4301b",
          "transactionIndex": "0x7b",
          "logIndex": "0x129",
          "removed": false
        },
        {
          "address": "0x7c5f5a4bbd8fd63184577525326123b519429bdc",
          "topics": [
            "0xddf252ad1be2c89b69c2b068fc378daa952ba7f163c4a11628f55a4df523b3ef",
            "0x0000000000000000000000000000000000000000000000000000000000000000",
            "0x0000000000000000000000002226ae701ecf96e27373e896f3ddbe8a9a676a30",
            "0x0000000000000000000000000000000000000000000000000000000000062a73"
          ],
          "data": "0x",
          "blockHash": "0x8c682e78ed63a5668598676eff288922322d13c317eeadc9d01053f4c1b3a1b2",
          "blockNumber": "0x2359ba5",
          "blockTimestamp": "0x68f5942d",
          "transactionHash": "0xd3c1d941e925f8f47afbd360df527610b9339878e944f787781a750c53d4301b",
          "transactionIndex": "0x7b",
          "logIndex": "0x12a",
          "removed": false
        },
        {
          "address": "0x498581ff718922c3f8e6a244956af099b2652b2b",
          "topics": [
            "0xf208f4912782fd25c7f114ca3723a2d5dd6f3bcc3ac8db5af63baa85f711d5ec",
            "0x9f002315153e63cd202d9c860665d865906545b9921187fd08a2373caef589dc",
            "0x0000000000000000000000007c5f5a4bbd8fd63184577525326123b519429bdc"
          ],
          "data": "0xfffffffffffffffffffffffffffffffffffffffffffffffffffffffffffceaf0fffffffffffffffffffffffffffffffffffffffffffffffffffffffffffda288000000000000000000000000000000000000000000000e6e74e16047e486ad9c0000000000000000000000000000000000000000000000000000000000062a73",
          "blockHash": "0x8c682e78ed63a5668598676eff288922322d13c317eeadc9d01053f4c1b3a1b2",
          "blockNumber": "0x2359ba5",
          "blockTimestamp": "0x68f5942d",
          "transactionHash": "0xd3c1d941e925f8f47afbd360df527610b9339878e944f787781a750c53d4301b",
          "transactionIndex": "0x7b",
          "logIndex": "0x12b",
          "removed": false
        },
        {
          "address": "0x7c5f5a4bbd8fd63184577525326123b519429bdc",
          "topics": [
            "0xddf252ad1be2c89b69c2b068fc378daa952ba7f163c4a11628f55a4df523b3ef",
            "0x0000000000000000000000000000000000000000000000000000000000000000",
            "0x0000000000000000000000002226ae701ecf96e27373e896f3ddbe8a9a676a30",
            "0x0000000000000000000000000000000000000000000000000000000000062a74"
          ],
          "data": "0x",
          "blockHash": "0x8c682e78ed63a5668598676eff288922322d13c317eeadc9d01053f4c1b3a1b2",
          "blockNumber": "0x2359ba5",
          "blockTimestamp": "0x68f5942d",
          "transactionHash": "0xd3c1d941e925f8f47afbd360df527610b9339878e944f787781a750c53d4301b",
          "transactionIndex": "0x7b",
          "logIndex": "0x12c",
          "removed": false
        },
        {
          "address": "0x498581ff718922c3f8e6a244956af099b2652b2b",
          "topics": [
            "0xf208f4912782fd25c7f114ca3723a2d5dd6f3bcc3ac8db5af63baa85f711d5ec",
            "0x9f002315153e63cd202d9c860665d865906545b9921187fd08a2373caef589dc",
            "0x0000000000000000000000007c5f5a4bbd8fd63184577525326123b519429bdc"
          ],
          "data": "0xfffffffffffffffffffffffffffffffffffffffffffffffffffffffffffda288fffffffffffffffffffffffffffffffffffffffffffffffffffffffffffe2b4000000000000000000000000000000000000000000000dce275bfe1ba5750554b0000000000000000000000000000000000000000000000000000000000062a74",
          "blockHash": "0x8c682e78ed63a5668598676eff288922322d13c317eeadc9d01053f4c1b3a1b2",
          "blockNumber": "0x2359ba5",
          "blockTimestamp": "0x68f5942d",
          "transactionHash": "0xd3c1d941e925f8f47afbd360df527610b9339878e944f787781a750c53d4301b",
          "transactionIndex": "0x7b",
          "logIndex": "0x12d",
          "removed": false
        },
        {
          "address": "0x7c5f5a4bbd8fd63184577525326123b519429bdc",
          "topics": [
            "0xddf252ad1be2c89b69c2b068fc378daa952ba7f163c4a11628f55a4df523b3ef",
            "0x0000000000000000000000000000000000000000000000000000000000000000",
            "0x0000000000000000000000002226ae701ecf96e27373e896f3ddbe8a9a676a30",
            "0x0000000000000000000000000000000000000000000000000000000000062a75"
          ],
          "data": "0x",
          "blockHash": "0x8c682e78ed63a5668598676eff288922322d13c317eeadc9d01053f4c1b3a1b2",
          "blockNumber": "0x2359ba5",
          "blockTimestamp": "0x68f5942d",
          "transactionHash": "0xd3c1d941e925f8f47afbd360df527610b9339878e944f787781a750c53d4301b",
          "transactionIndex": "0x7b",
          "logIndex": "0x12e",
          "removed": false
        },
        {
          "address": "0x498581ff718922c3f8e6a244956af099b2652b2b",
          "topics": [
            "0xf208f4912782fd25c7f114ca3723a2d5dd6f3bcc3ac8db5af63baa85f711d5ec",
            "0x9f002315153e63cd202d9c860665d865906545b9921187fd08a2373caef589dc",
            "0x0000000000000000000000007c5f5a4bbd8fd63184577525326123b519429bdc"
          ],
          "data": "0xfffffffffffffffffffffffffffffffffffffffffffffffffffffffffffdd938fffffffffffffffffffffffffffffffffffffffffffffffffffffffffffe2b40000000000000000000000000000000000000000000008d5555cda23fda1cf6a90000000000000000000000000000000000000000000000000000000000062a75",
          "blockHash": "0x8c682e78ed63a5668598676eff288922322d13c317eeadc9d01053f4c1b3a1b2",
          "blockNumber": "0x2359ba5",
          "blockTimestamp": "0x68f5942d",
          "transactionHash": "0xd3c1d941e925f8f47afbd360df527610b9339878e944f787781a750c53d4301b",
          "transactionIndex": "0x7b",
          "logIndex": "0x12f",
          "removed": false
        },
        {
          "address": "0x44cdb6a149310550d2dde8c1552d7cbb10d3854d",
          "topics": [
            "0xddf252ad1be2c89b69c2b068fc378daa952ba7f163c4a11628f55a4df523b3ef",
            "0x0000000000000000000000002226ae701ecf96e27373e896f3ddbe8a9a676a30",
            "0x000000000000000000000000498581ff718922c3f8e6a244956af099b2652b2b"
          ],
          "data": "0x0000000000000000000000000000000000000000204fce5e3e2502610f29c892",
          "blockHash": "0x8c682e78ed63a5668598676eff288922322d13c317eeadc9d01053f4c1b3a1b2",
          "blockNumber": "0x2359ba5",
          "blockTimestamp": "0x68f5942d",
          "transactionHash": "0xd3c1d941e925f8f47afbd360df527610b9339878e944f787781a750c53d4301b",
          "transactionIndex": "0x7b",
          "logIndex": "0x130",
          "removed": false
        }
      ],
      "logsBloom": "0x00000000008000000000000000000000000000000000000000000110000000000021000000000000000000000000000000000010000000080000000100002000000000000000000040000008000000000000000000000000000000000000000000000000020000000000000000000800040000000000001000000090000000000000000001004000000020002004000000000000000000000000001400000000004004000000000008000000000080080000000000000000000004800000000200000002000001000000000000000000000800000000000020008000000020000000000000000000000000800000000044000400082000000000000200000000",
      "type": "0x2",
      "transactionHash": "0xd3c1d941e925f8f47afbd360df527610b9339878e944f787781a750c53d4301b",
      "transactionIndex": "0x7b",
      "blockHash": "0x8c682e78ed63a5668598676eff288922322d13c317eeadc9d01053f4c1b3a1b2",
      "blockNumber": "0x2359ba5",
      "gasUsed": "0xd9b50",
      "effectiveGasPrice": "0x14781a",
      "from": "0x2226ae701ecf96e27373e896f3ddbe8a9a676a30",
      "to": "0x7c5f5a4bbd8fd63184577525326123b519429bdc",
      "contractAddress": null,
      "l1BaseFeeScalar": "0x8dd",
      "l1BlobBaseFee": "0x1",
      "l1BlobBaseFeeScalar": "0x101c12",
      "l1Fee": "0x6b4c7833",
      "l1GasPrice": "0x68dd889",
      "l1GasUsed": "0x1c2f"
    }
  ],
  "libraries": [],
  "pending": [],
  "returns": {},
  "timestamp": 1760924717,
  "chain": 8453,
  "commit": "65077fa"
}