{
  "transactions": [
    {
      "hash": "0x723c95dd99fc428a609efa3ef8baacf29d5bc5d879a89a5b7123530c46e60447",
      "transactionType": "CALL",
      "contractName": null,
      "contractAddress": "0x498581ff718922c3f8e6a244956af099b2652b2b",
      "function": "initialize((address,address,uint24,int24,address),uint160)",
      "arguments": [
        "(0x23914832aBE687AB31f3C0f635B196802d37070f, 0xd54189AcbbCeB664FA4Fc806a860A17306C35FDE, 0, 200, 0xb04BCDF99490a09af5787aACB64bC3D31C3a00C8)",
        "787149618249685149291181"
      ],
      "transaction": {
        "from": "0x2226ae701ecf96e27373e896f3ddbe8a9a676a30",
        "to": "0x498581ff718922c3f8e6a244956af099b2652b2b",
        "gas": "0x11849",
        "value": "0x0",
        "input": "0x6276cbbe00000000000000000000000023914832abe687ab31f3c0f635b196802d37070f000000000000000000000000d54189acbbceb664fa4fc806a860a17306c35fde000000000000000000000000000000000000000000000000000000000000000000000000000000000000000000000000000000000000000000000000000000c8000000000000000000000000b04bcdf99490a09af5787aacb64bc3d31c3a00c800000000000000000000000000000000000000000000a6af776004abf4e612ad",
        "nonce": "0x1c",
        "chainId": "0x2105"
      },
      "additionalContracts": [],
      "isFixedGasLimit": false
    },
    {
      "hash": "0x4e5293096bc48531ba609de1fb8489d839bc0e2ce0f099b05ba83e99bbcbf354",
      "transactionType": "CALL",
      "contractName": null,
      "contractAddress": "0x23914832abe687ab31f3c0f635b196802d37070f",
      "function": "approve(address,uint256)",
      "arguments": [
        "0x000000000022D473030F116dDEE9F6B43aC78BA3",
        "10000000000000000000000000000"
      ],
      "transaction": {
        "from": "0x2226ae701ecf96e27373e896f3ddbe8a9a676a30",
        "to": "0x23914832abe687ab31f3c0f635b196802d37070f",
        "gas": "0xfbe5",
        "value": "0x0",
        "input": "0x095ea7b3000000000000000000000000000000000022d473030f116ddee9f6b43ac78ba30000000000000000000000000000000000000000204fce5e3e25026110000000",
        "nonce": "0x1d",
        "chainId": "0x2105"
      },
      "additionalContracts": [],
      "isFixedGasLimit": false
    },
    {
      "hash": "0x803d161fdceaec2c2c7f083c1041dd618a3447ef77497fbf1f6c20400c2faead",
      "transactionType": "CALL",
      "contractName": null,
      "contractAddress": "0x000000000022d473030f116ddee9f6b43ac78ba3",
      "function": "approve(address,address,uint160,uint48)",
      "arguments": [
        "0x23914832aBE687AB31f3C0f635B196802d37070f",
        "0x7C5f5A4bBd8fD63184577525326123B519429bDc",
        "10000000000000000000000000000",
        "1792458495"
      ],
      "transaction": {
        "from": "0x2226ae701ecf96e27373e896f3ddbe8a9a676a30",
        "to": "0x000000000022d473030f116ddee9f6b43ac78ba3",
        "gas": "0x10128",
        "value": "0x0",
        "input": "0x87517c4500000000000000000000000023914832abe687ab31f3c0f635b196802d37070f0000000000000000000000007c5f5a4bbd8fd63184577525326123b519429bdc0000000000000000000000000000000000000000204fce5e3e25026110000000000000000000000000000000000000000000000000000000000000006ad6beff",
        "nonce": "0x1e",
        "chainId": "0x2105"
      },
      "additionalContracts": [],
      "isFixedGasLimit": false
    },
    {
      "hash": "0x1f87ce7003f88fd58b5aa2d403025657471d00854bfb705fa388a4dcd2ef79d5",
      "transactionType": "CALL",
      "contractName": null,
      "contractAddress": "0x7c5f5a4bbd8fd63184577525326123b519429bdc",
      "function": "modifyLiquidities(bytes,uint256)",
      "arguments": [
        "0x00000000000000000000000000000000000000000000000000000000000000400000000000000000000000000000000000000000000000000000000000000080000000000000000000000000000000000000000000000000000000000000000602020202020d0000000000000000000000000000000000000000000000000000000000000000000000000000000000000000000000000000000000000000000600000000000000000000000000000000000000000000000000000000000000c000000000000000000000000000000000000000000000000000000000000002c000000000000000000000000000000000000000000000000000000000000004c000000000000000000000000000000000000000000000000000000000000006c000000000000000000000000000000000000000000000000000000000000008c00000000000000000000000000000000000000000000000000000000000000ac000000000000000000000000000000000000000000000000000000000000001e000000000000000000000000023914832abe687ab31f3c0f635b196802d37070f000000000000000000000000d54189acbbceb664fa4fc806a860a17306c35fde000000000000000000000000000000000000000000000000000000000000000000000000000000000000000000000000000000000000000000000000000000c8000000000000000000000000b04bcdf99490a09af5787aacb64bc3d31c3a00c8fffffffffffffffffffffffffffffffffffffffffffffffffffffffffffc7c00fffffffffffffffffffffffffffffffffffffffffffffffffffffffffffcbc100000000000000000000000000000000000000000000003c28a47f596c70838ea0000000000000000000000000000000000000000033b2e3c9fd0803ce800000000000000000000000000000000000000000000000000000000000000000000000000000000000000000000002226ae701ecf96e27373e896f3ddbe8a9a676a30000000000000000000000000000000000000000000000000000000000000018000000000000000000000000000000000000000000000000000000000000000400000000000000000000000000000000000000000000000000000000000000020000000000000000000000000000000000000000000000000000000000000000000000000000000000000000000000000000000000000000000000000000001e000000000000000000000000023914832abe687ab31f3c0f635b196802d37070f000000000000000000000000d54189acbbceb664fa4fc806a860a17306c35fde000000000000000000000000000000000000000000000000000000000000000000000000000000000000000000000000000000000000000000000000000000c8000000000000000000000000b04bcdf99490a09af5787aacb64bc3d31c3a00c8fffffffffffffffffffffffffffffffffffffffffffffffffffffffffffcbc10fffffffffffffffffffffffffffffffffffffffffffffffffffffffffffda288000000000000000000000000000000000000000000001933d2f0fcc3c4a81d9b00000000000000000000000000000000000000001027e72f1f1281308800000000000000000000000000000000000000000000000000000000000000000000000000000000000000000000002226ae701ecf96e27373e896f3ddbe8a9a676a30000000000000000000000000000000000000000000000000000000000000018000000000000000000000000000000000000000000000000000000000000000400000000000000000000000000000000000000000000000000000000000000020000000000000000000000000000000000000000000000000000000000000000000000000000000000000000000000000000000000000000000000000000001e000000000000000000000000023914832abe687ab31f3c0f635b196802d37070f000000000000000000000000d54189acbbceb664fa4fc806a860a17306c35fde000000000000000000000000000000000000000000000000000000000000000000000000000000000000000000000000000000000000000000000000000000c8000000000000000000000000b04bcdf99490a09af5787aacb64bc3d31c3a00c8fffffffffffffffffffffffffffffffffffffffffffffffffffffffffffceaf0fffffffffffffffffffffffffffffffffffffffffffffffffffffffffffda288000000000000000000000000000000000000000000000e6e74e16047e486ad9c000000000000000000000000000000000000000004d8c55aefb8c05b5c00000000000000000000000000000000000000000000000000000000000000000000000000000000000000000000002226ae701ecf96e27373e896f3ddbe8a9a676a30000000000000000000000000000000000000000000000000000000000000018000000000000000000000000000000000000000000000000000000000000000400000000000000000000000000000000000000000000000000000000000000020000000000000000000000000000000000000000000000000000000000000000000000000000000000000000000000000000000000000000000000000000001e000000000000000000000000023914832abe687ab31f3c0f635b196802d37070f000000000000000000000000d54189acbbceb664fa4fc806a860a17306c35fde000000000000000000000000000000000000000000000000000000000000000000000000000000000000000000000000000000000000000000000000000000c8000000000000000000000000b04bcdf99490a09af5787aacb64bc3d31c3a00c8fffffffffffffffffffffffffffffffffffffffffffffffffffffffffffda288fffffffffffffffffffffffffffffffffffffffffffffffffffffffffffe2b4000000000000000000000000000000000000000000000dce275bfe1ba5750554b000000000000000000000000000000000000000006765c793fa10079d000000000000000000000000000000000000000000000000000000000000000000000000000000000000000000000002226ae701ecf96e27373e896f3ddbe8a9a676a30000000000000000000000000000000000000000000000000000000000000018000000000000000000000000000000000000000000000000000000000000000400000000000000000000000000000000000000000000000000000000000000020000000000000000000000000000000000000000000000000000000000000000000000000000000000000000000000000000000000000000000000000000001e000000000000000000000000023914832abe687ab31f3c0f635b196802d37070f000000000000000000000000d54189acbbceb664fa4fc806a860a17306c35fde000000000000000000000000000000000000000000000000000000000000000000000000000000000000000000000000000000000000000000000000000000c8000000000000000000000000b04bcdf99490a09af5787aacb64bc3d31c3a00c8fffffffffffffffffffffffffffffffffffffffffffffffffffffffffffdd938fffffffffffffffffffffffffffffffffffffffffffffffffffffffffffe2b40000000000000000000000000000000000000000000008d5555cda23fda1cf6a90000000000000000000000000000000000000000019d971e4fe8401e7400000000000000000000000000000000000000000000000000000000000000000000000000000000000000000000002226ae701ecf96e27373e896f3ddbe8a9a676a300000000000000000000000000000000000000000000000000000000000000180000000000000000000000000000000000000000000000000000000000000004000000000000000000000000000000000000000000000000000000000000000200000000000000000000000000000000000000000000000000000000000000000000000000000000000000000000000000000000000000000000000000000004000000000000000000000000023914832abe687ab31f3c0f635b196802d37070f000000000000000000000000d54189acbbceb664fa4fc806a860a17306c35fde",
        "1792458495"
      ],
      "transaction": {
        "from": "0x2226ae701ecf96e27373e896f3ddbe8a9a676a30",
        "to": "0x7c5f5a4bbd8fd63184577525326123b519429bdc",
        "gas": "0x12cb00",
        "value": "0x0",
        "input": "0xdd46508f0000000000000000000000000000000000000000000000000000000000000040000000000000000000000000000000000000000000000000000000006ad6beff0000000000000000000000000000000000000000000000000000000000000bc000000000000000000000000000000000000000000000000000000000000000400000000000000000000000000000000000000000000000000000000000000080000000000000000000000000000000000000000000000000000000000000000602020202020d0000000000000000000000000000000000000000000000000000000000000000000000000000000000000000000000000000000000000000000600000000000000000000000000000000000000000000000000000000000000c000000000000000000000000000000000000000000000000000000000000002c000000000000000000000000000000000000000000000000000000000000004c000000000000000000000000000000000000000000000000000000000000006c000000000000000000000000000000000000000000000000000000000000008c00000000000000000000000000000000000000000000000000000000000000ac000000000000000000000000000000000000000000000000000000000000001e000000000000000000000000023914832abe687ab31f3c0f635b196802d37070f000000000000000000000000d54189acbbceb664fa4fc806a860a17306c35fde000000000000000000000000000000000000000000000000000000000000000000000000000000000000000000000000000000000000000000000000000000c8000000000000000000000000b04bcdf99490a09af5787aacb64bc3d31c3a00c8fffffffffffffffffffffffffffffffffffffffffffffffffffffffffffc7c00fffffffffffffffffffffffffffffffffffffffffffffffffffffffffffcbc100000000000000000000000000000000000000000000003c28a47f596c70838ea0000000000000000000000000000000000000000033b2e3c9fd0803ce800000000000000000000000000000000000000000000000000000000000000000000000000000000000000000000002226ae701ecf96e27373e896f3ddbe8a9a676a30000000000000000000000000000000000000000000000000000000000000018000000000000000000000000000000000000000000000000000000000000000400000000000000000000000000000000000000000000000000000000000000020000000000000000000000000000000000000000000000000000000000000000000000000000000000000000000000000000000000000000000000000000001e000000000000000000000000023914832abe687ab31f3c0f635b196802d37070f000000000000000000000000d54189acbbceb664fa4fc806a860a17306c35fde000000000000000000000000000000000000000000000000000000000000000000000000000000000000000000000000000000000000000000000000000000c8000000000000000000000000b04bcdf99490a09af5787aacb64bc3d31c3a00c8fffffffffffffffffffffffffffffffffffffffffffffffffffffffffffcbc10fffffffffffffffffffffffffffffffffffffffffffffffffffffffffffda288000000000000000000000000000000000000000000001933d2f0fcc3c4a81d9b00000000000000000000000000000000000000001027e72f1f1281308800000000000000000000000000000000000000000000000000000000000000000000000000000000000000000000002226ae701ecf96e27373e896f3ddbe8a9a676a30000000000000000000000000000000000000000000000000000000000000018000000000000000000000000000000000000000000000000000000000000000400000000000000000000000000000000000000000000000000000000000000020000000000000000000000000000000000000000000000000000000000000000000000000000000000000000000000000000000000000000000000000000001e000000000000000000000000023914832abe687ab31f3c0f635b196802d37070f000000000000000000000000d54189acbbceb664fa4fc806a860a17306c35fde000000000000000000000000000000000000000000000000000000000000000000000000000000000000000000000000000000000000000000000000000000c8000000000000000000000000b04bcdf99490a09af5787aacb64bc3d31c3a00c8fffffffffffffffffffffffffffffffffffffffffffffffffffffffffffceaf0fffffffffffffffffffffffffffffffffffffffffffffffffffffffffffda288000000000000000000000000000000000000000000000e6e74e16047e486ad9c000000000000000000000000000000000000000004d8c55aefb8c05b5c00000000000000000000000000000000000000000000000000000000000000000000000000000000000000000000002226ae701ecf96e27373e896f3ddbe8a9a676a30000000000000000000000000000000000000000000000000000000000000018000000000000000000000000000000000000000000000000000000000000000400000000000000000000000000000000000000000000000000000000000000020000000000000000000000000000000000000000000000000000000000000000000000000000000000000000000000000000000000000000000000000000001e000000000000000000000000023914832abe687ab31f3c0f635b196802d37070f000000000000000000000000d54189acbbceb664fa4fc806a860a17306c35fde000000000000000000000000000000000000000000000000000000000000000000000000000000000000000000000000000000000000000000000000000000c8000000000000000000000000b04bcdf99490a09af5787aacb64bc3d31c3a00c8fffffffffffffffffffffffffffffffffffffffffffffffffffffffffffda288fffffffffffffffffffffffffffffffffffffffffffffffffffffffffffe2b4000000000000000000000000000000000000000000000dce275bfe1ba5750554b000000000000000000000000000000000000000006765c793fa10079d000000000000000000000000000000000000000000000000000000000000000000000000000000000000000000000002226ae701ecf96e27373e896f3ddbe8a9a676a30000000000000000000000000000000000000000000000000000000000000018000000000000000000000000000000000000000000000000000000000000000400000000000000000000000000000000000000000000000000000000000000020000000000000000000000000000000000000000000000000000000000000000000000000000000000000000000000000000000000000000000000000000001e000000000000000000000000023914832abe687ab31f3c0f635b196802d37070f000000000000000000000000d54189acbbceb664fa4fc806a860a17306c35fde000000000000000000000000000000000000000000000000000000000000000000000000000000000000000000000000000000000000000000000000000000c8000000000000000000000000b04bcdf99490a09af5787aacb64bc3d31c3a00c8fffffffffffffffffffffffffffffffffffffffffffffffffffffffffffdd938fffffffffffffffffffffffffffffffffffffffffffffffffffffffffffe2b40000000000000000000000000000000000000000000008d5555cda23fda1cf6a90000000000000000000000000000000000000000019d971e4fe8401e7400000000000000000000000000000000000000000000000000000000000000000000000000000000000000000000002226ae701ecf96e27373e896f3ddbe8a9a676a300000000000000000000000000000000000000000000000000000000000000180000000000000000000000000000000000000000000000000000000000000004000000000000000000000000000000000000000000000000000000000000000200000000000000000000000000000000000000000000000000000000000000000000000000000000000000000000000000000000000000000000000000000004000000000000000000000000023914832abe687ab31f3c0f635b196802d37070f000000000000000000000000d54189acbbceb664fa4fc806a860a17306c35fde",
        "nonce": "0x1f",
        "chainId": "0x2105"
      },
      "additionalContracts": [],
      "isFixedGasLimit": false
    }
  ],
  "receipts": [
    {
      "status": "0x1",
      "cumulativeGasUsed": "0x3128cef",
      "logs": [
        {
          "address": "0x498581ff718922c3f8e6a244956af099b2652b2b",
          "topics": [
            "0xdd466e674ea557f56295e2d0218a125ea4b4f0f6f3307b95f85e6110838d6438",
            "0x0b643458c383178ff49b85dec0a796bd685728d6c6e7b1b4fd54f7c0fe90cb6f",
            "0x00000000000000000000000023914832abe687ab31f3c0f635b196802d37070f",
            "0x000000000000000000000000d54189acbbceb664fa4fc806a860a17306c35fde"
          ],
          "data": "0x000000000000000000000000000000000000000000000000000000000000000000000000000000000000000000000000000000000000000000000000000000c8000000000000000000000000b04bcdf99490a09af5787aacb64bc3d31c3a00c800000000000000000000000000000000000000000000a6af776004abf4e612adfffffffffffffffffffffffffffffffffffffffffffffffffffffffffffc7c00",
          "blockHash": "0x889511666effdb50effd14c61ed54a4119b9e2d5c89d772178010b6c6a74af3e",
          "blockNumber": "0x2359752",
          "blockTimestamp": "0x68f58b87",
          "transactionHash": "0x723c95dd99fc428a609efa3ef8baacf29d5bc5d879a89a5b7123530c46e60447",
          "transactionIndex": "0xf0",
          "logIndex": "0x37c",
          "removed": false
        }
      ],
      "logsBloom": "0x00000000000000000000000000000000000000000000000000000000000000000000000000000080000000000000000000004000000000000000010000000000000000000000000000000000000000000000000000000000000000000000000000000000000000000000000000000000000000000000000000000000000000000000000000004008000000000000000000000001000000000000000000200000000000000000000000000000000000000000400000000800000000000000000000000000000000010000000000000000000800000000000000000000000000000000000000000000000000000000000000080400000000008000000000080000",
      "type": "0x2",
      "transactionHash": "0x723c95dd99fc428a609efa3ef8baacf29d5bc5d879a89a5b7123530c46e60447",
      "transactionIndex": "0xf0",
      "blockHash": "0x889511666effdb50effd14c61ed54a4119b9e2d5c89d772178010b6c6a74af3e",
      "blockNumber": "0x2359752",
      "gasUsed": "0xcaed",
      "effectiveGasPrice": "0x1f188e",
      "from": "0x2226ae701ecf96e27373e896f3ddbe8a9a676a30",
      "to": "0x498581ff718922c3f8e6a244956af099b2652b2b",
      "contractAddress": null,
      "l1BaseFeeScalar": "0x8dd",
      "l1BlobBaseFee": "0x1",
      "l1BlobBaseFeeScalar": "0x101c12",
      "l1Fee": "0x256b0758",
      "l1GasPrice": "0x776a325",
      "l1GasUsed": "0x8a1"
    },
    {
      "status": "0x1",
      "cumulativeGasUsed": "0x313434e",
      "logs": [
        {
          "address": "0x23914832abe687ab31f3c0f635b196802d37070f",
          "topics": [
            "0x8c5be1e5ebec7d5bd14f71427d1e84f3dd0314c0f7b2291e5b200ac8c7c3b925",
            "0x0000000000000000000000002226ae701ecf96e27373e896f3ddbe8a9a676a30",
            "0x000000000000000000000000000000000022d473030f116ddee9f6b43ac78ba3"
          ],
          "data": "0x0000000000000000000000000000000000000000204fce5e3e25026110000000",
          "blockHash": "0x889511666effdb50effd14c61ed54a4119b9e2d5c89d772178010b6c6a74af3e",
          "blockNumber": "0x2359752",
          "blockTimestamp": "0x68f58b87",
          "transactionHash": "0x4e5293096bc48531ba609de1fb8489d839bc0e2ce0f099b05ba83e99bbcbf354",
          "transactionIndex": "0xf1",
          "logIndex": "0x37d",
          "removed": false
        }
      ],
      "logsBloom": "0x00000000000000000000000000000000000000000000000000000010000000000000000000000000000000000000000000000010800000000000000000200000000000000000000000004000000000000000000000000800000000000000000000000000000000000000000000000000000000800000000000000000000000000200000000000000000000002000000000000000000000000000000000000000020000000000000000000000000000000000000000000000000000000000000000000000000000000000000000000000000000000000000000000000000080000010000000000000000000000000000000000000000000000000000000000000",
      "type": "0x2",
      "transactionHash": "0x4e5293096bc48531ba609de1fb8489d839bc0e2ce0f099b05ba83e99bbcbf354",
      "transactionIndex": "0xf1",
      "blockHash": "0x889511666effdb50effd14c61ed54a4119b9e2d5c89d772178010b6c6a74af3e",
      "blockNumber": "0x2359752",
      "gasUsed": "0xb65f",
      "effectiveGasPrice": "0x1f188e",
      "from": "0x2226ae701ecf96e27373e896f3ddbe8a9a676a30",
      "to": "0x23914832abe687ab31f3c0f635b196802d37070f",
      "contractAddress": null,
      "l1BaseFeeScalar": "0x8dd",
      "l1BlobBaseFee": "0x1",
      "l1BlobBaseFeeScalar": "0x101c12",
      "l1Fee": "0x1b186113",
      "l1GasPrice": "0x776a325",
      "l1GasUsed": "0x640"
    },
    {
      "status": "0x1",
      "cumulativeGasUsed": "0x313fd7c",
      "logs": [
        {
          "address": "0x000000000022d473030f116ddee9f6b43ac78ba3",
          "topics": [
            "0xda9fa7c1b00402c17d0161b249b1ab8bbec047c5a52207b9c112deffd817036b",
            "0x0000000000000000000000002226ae701ecf96e27373e896f3ddbe8a9a676a30",
            "0x00000000000000000000000023914832abe687ab31f3c0f635b196802d37070f",
            "0x0000000000000000000000007c5f5a4bbd8fd63184577525326123b519429bdc"
          ],
          "data": "0x0000000000000000000000000000000000000000204fce5e3e25026110000000000000000000000000000000000000000000000000000000000000006ad6beff",
          "blockHash": "0x889511666effdb50effd14c61ed54a4119b9e2d5c89d772178010b6c6a74af3e",
          "blockNumber": "0x2359752",
          "blockTimestamp": "0x68f58b87",
          "transactionHash": "0x803d161fdceaec2c2c7f083c1041dd618a3447ef77497fbf1f6c20400c2faead",
          "transactionIndex": "0xf2",
          "logIndex": "0x37e",
          "removed": false
        }
      ],
      "logsBloom": "0x00010000000000000000000000000000000000000000000000000010000000000000000000000000000000000000000000004010000000000000010000082000000000000000000000000000000000000000000000000000000000000000000000000000000000000000000000000000000000000000000000000000000000000020000000000000000000002000000000000000000000000000000000000000000000000000000000000000000000000000000000000800000000080000000200000000000000000000000000000000000000000000000040000000000000000000000000000000000000000000000000000000002000000000000000000400",
      "type": "0x2",
      "transactionHash": "0x803d161fdceaec2c2c7f083c1041dd618a3447ef77497fbf1f6c20400c2faead",
      "transactionIndex": "0xf2",
      "blockHash": "0x889511666effdb50effd14c61ed54a4119b9e2d5c89d772178010b6c6a74af3e",
      "blockNumber": "0x2359752",
      "gasUsed": "0xba2e",
      "effectiveGasPrice": "0x1f188e",
      "from": "0x2226ae701ecf96e27373e896f3ddbe8a9a676a30",
      "to": "0x000000000022d473030f116ddee9f6b43ac78ba3",
      "contractAddress": null,
      "l1BaseFeeScalar": "0x8dd",
      "l1BlobBaseFee": "0x1",
      "l1BlobBaseFeeScalar": "0x101c12",
      "l1Fee": "0x20348107",
      "l1GasPrice": "0x776a325",
      "l1GasUsed": "0x76d"
    },
    {
      "status": "0x1",
      "cumulativeGasUsed": "0x3219890",
      "logs": [
        {
          "address": "0x7c5f5a4bbd8fd63184577525326123b519429bdc",
          "topics": [
            "0xddf252ad1be2c89b69c2b068fc378daa952ba7f163c4a11628f55a4df523b3ef",
            "0x0000000000000000000000000000000000000000000000000000000000000000",
            "0x0000000000000000000000002226ae701ecf96e27373e896f3ddbe8a9a676a30",
            "0x0000000000000000000000000000000000000000000000000000000000062a4d"
          ],
          "data": "0x",
          "blockHash": "0x889511666effdb50effd14c61ed54a4119b9e2d5c89d772178010b6c6a74af3e",
          "blockNumber": "0x2359752",
          "blockTimestamp": "0x68f58b87",
          "transactionHash": "0x1f87ce7003f88fd58b5aa2d403025657471d00854bfb705fa388a4dcd2ef79d5",
          "transactionIndex": "0xf3",
          "logIndex": "0x37f",
          "removed": false
        },
        {
          "address": "0x498581ff718922c3f8e6a244956af099b2652b2b",
          "topics": [
            "0xf208f4912782fd25c7f114ca3723a2d5dd6f3bcc3ac8db5af63baa85f711d5ec",
            "0x0b643458c383178ff49b85dec0a796bd685728d6c6e7b1b4fd54f7c0fe90cb6f",
            "0x0000000000000000000000007c5f5a4bbd8fd63184577525326123b519429bdc"
          ],
          "data": "0xfffffffffffffffffffffffffffffffffffffffffffffffffffffffffffc7c00fffffffffffffffffffffffffffffffffffffffffffffffffffffffffffcbc100000000000000000000000000000000000000000000003c28a47f596c70838ea0000000000000000000000000000000000000000000000000000000000062a4d",
          "blockHash": "0x889511666effdb50effd14c61ed54a4119b9e2d5c89d772178010b6c6a74af3e",
          "blockNumber": "0x2359752",
          "blockTimestamp": "0x68f58b87",
          "transactionHash": "0x1f87ce7003f88fd58b5aa2d403025657471d00854bfb705fa388a4dcd2ef79d5",
          "transactionIndex": "0xf3",
          "logIndex": "0x380",
          "removed": false
        },
        {
          "address": "0x7c5f5a4bbd8fd63184577525326123b519429bdc",
          "topics": [
            "0xddf252ad1be2c89b69c2b068fc378daa952ba7f163c4a11628f55a4df523b3ef",
            "0x0000000000000000000000000000000000000000000000000000000000000000",
            "0x0000000000000000000000002226ae701ecf96e27373e896f3ddbe8a9a676a30",
            "0x0000000000000000000000000000000000000000000000000000000000062a4e"
          ],
          "data": "0x",
          "blockHash": "0x889511666effdb50effd14c61ed54a4119b9e2d5c89d772178010b6c6a74af3e",
          "blockNumber": "0x2359752",
          "blockTimestamp": "0x68f58b87",
          "transactionHash": "0x1f87ce7003f88fd58b5aa2d403025657471d00854bfb705fa388a4dcd2ef79d5",
          "transactionIndex": "0xf3",
          "logIndex": "0x381",
          "removed": false
        },
        {
          "address": "0x498581ff718922c3f8e6a244956af099b2652b2b",
          "topics": [
            "0xf208f4912782fd25c7f114ca3723a2d5dd6f3bcc3ac8db5af63baa85f711d5ec",
            "0x0b643458c383178ff49b85dec0a796bd685728d6c6e7b1b4fd54f7c0fe90cb6f",
            "0x0000000000000000000000007c5f5a4bbd8fd63184577525326123b519429bdc"
          ],
          "data": "0xfffffffffffffffffffffffffffffffffffffffffffffffffffffffffffcbc10fffffffffffffffffffffffffffffffffffffffffffffffffffffffffffda288000000000000000000000000000000000000000000001933d2f0fcc3c4a81d9b0000000000000000000000000000000000000000000000000000000000062a4e",
          "blockHash": "0x889511666effdb50effd14c61ed54a4119b9e2d5c89d772178010b6c6a74af3e",
          "blockNumber": "0x2359752",
          "blockTimestamp": "0x68f58b87",
          "transactionHash": "0x1f87ce7003f88fd58b5aa2d403025657471d00854bfb705fa388a4dcd2ef79d5",
          "transactionIndex": "0xf3",
          "logIndex": "0x382",
          "removed": false
        },
        {
          "address": "0x7c5f5a4bbd8fd63184577525326123b519429bdc",
          "topics": [
            "0xddf252ad1be2c89b69c2b068fc378daa952ba7f163c4a11628f55a4df523b3ef",
            "0x0000000000000000000000000000000000000000000000000000000000000000",
            "0x0000000000000000000000002226ae701ecf96e27373e896f3ddbe8a9a676a30",
            "0x0000000000000000000000000000000000000000000000000000000000062a4f"
          ],
          "data": "0x",
          "blockHash": "0x889511666effdb50effd14c61ed54a4119b9e2d5c89d772178010b6c6a74af3e",
          "blockNumber": "0x2359752",
          "blockTimestamp": "0x68f58b87",
          "transactionHash": "0x1f87ce7003f88fd58b5aa2d403025657471d00854bfb705fa388a4dcd2ef79d5",
          "transactionIndex": "0xf3",
          "logIndex": "0x383",
          "removed": false
        },
        {
          "address": "0x498581ff718922c3f8e6a244956af099b2652b2b",
          "topics": [
            "0xf208f4912782fd25c7f114ca3723a2d5dd6f3bcc3ac8db5af63baa85f711d5ec",
            "0x0b643458c383178ff49b85dec0a796bd685728d6c6e7b1b4fd54f7c0fe90cb6f",
            "0x0000000000000000000000007c5f5a4bbd8fd63184577525326123b519429bdc"
          ],
          "data": "0xfffffffffffffffffffffffffffffffffffffffffffffffffffffffffffceaf0fffffffffffffffffffffffffffffffffffffffffffffffffffffffffffda288000000000000000000000000000000000000000000000e6e74e16047e486ad9c0000000000000000000000000000000000000000000000000000000000062a4f",
          "blockHash": "0x889511666effdb50effd14c61ed54a4119b9e2d5c89d772178010b6c6a74af3e",
          "blockNumber": "0x2359752",
          "blockTimestamp": "0x68f58b87",
          "transactionHash": "0x1f87ce7003f88fd58b5aa2d403025657471d00854bfb705fa388a4dcd2ef79d5",
          "transactionIndex": "0xf3",
          "logIndex": "0x384",
          "removed": false
        },
        {
          "address": "0x7c5f5a4bbd8fd63184577525326123b519429bdc",
          "topics": [
            "0xddf252ad1be2c89b69c2b068fc378daa952ba7f163c4a11628f55a4df523b3ef",
            "0x0000000000000000000000000000000000000000000000000000000000000000",
            "0x0000000000000000000000002226ae701ecf96e27373e896f3ddbe8a9a676a30",
            "0x0000000000000000000000000000000000000000000000000000000000062a50"
          ],
          "data": "0x",
          "blockHash": "0x889511666effdb50effd14c61ed54a4119b9e2d5c89d772178010b6c6a74af3e",
          "blockNumber": "0x2359752",
          "blockTimestamp": "0x68f58b87",
          "transactionHash": "0x1f87ce7003f88fd58b5aa2d403025657471d00854bfb705fa388a4dcd2ef79d5",
          "transactionIndex": "0xf3",
          "logIndex": "0x385",
          "removed": false
        },
        {
          "address": "0x498581ff718922c3f8e6a244956af099b2652b2b",
          "topics": [
            "0xf208f4912782fd25c7f114ca3723a2d5dd6f3bcc3ac8db5af63baa85f711d5ec",
            "0x0b643458c383178ff49b85dec0a796bd685728d6c6e7b1b4fd54f7c0fe90cb6f",
            "0x0000000000000000000000007c5f5a4bbd8fd63184577525326123b519429bdc"
          ],
          "data": "0xfffffffffffffffffffffffffffffffffffffffffffffffffffffffffffda288fffffffffffffffffffffffffffffffffffffffffffffffffffffffffffe2b4000000000000000000000000000000000000000000000dce275bfe1ba5750554b0000000000000000000000000000000000000000000000000000000000062a50",
          "blockHash": "0x889511666effdb50effd14c61ed54a4119b9e2d5c89d772178010b6c6a74af3e",
          "blockNumber": "0x2359752",
          "blockTimestamp": "0x68f58b87",
          "transactionHash": "0x1f87ce7003f88fd58b5aa2d403025657471d00854bfb705fa388a4dcd2ef79d5",
          "transactionIndex": "0xf3",
          "logIndex": "0x386",
          "removed": false
        },
        {
          "address": "0x7c5f5a4bbd8fd63184577525326123b519429bdc",
          "topics": [
            "0xddf252ad1be2c89b69c2b068fc378daa952ba7f163c4a11628f55a4df523b3ef",
            "0x0000000000000000000000000000000000000000000000000000000000000000",
            "0x0000000000000000000000002226ae701ecf96e27373e896f3ddbe8a9a676a30",
            "0x0000000000000000000000000000000000000000000000000000000000062a51"
          ],
          "data": "0x",
          "blockHash": "0x889511666effdb50effd14c61ed54a4119b9e2d5c89d772178010b6c6a74af3e",
          "blockNumber": "0x2359752",
          "blockTimestamp": "0x68f58b87",
          "transactionHash": "0x1f87ce7003f88fd58b5aa2d403025657471d00854bfb705fa388a4dcd2ef79d5",
          "transactionIndex": "0xf3",
          "logIndex": "0x387",
          "removed": false
        },
        {
          "address": "0x498581ff718922c3f8e6a244956af099b2652b2b",
          "topics": [
            "0xf208f4912782fd25c7f114ca3723a2d5dd6f3bcc3ac8db5af63baa85f711d5ec",
            "0x0b643458c383178ff49b85dec0a796bd685728d6c6e7b1b4fd54f7c0fe90cb6f",
            "0x0000000000000000000000007c5f5a4bbd8fd63184577525326123b519429bdc"
          ],
          "data": "0xfffffffffffffffffffffffffffffffffffffffffffffffffffffffffffdd938fffffffffffffffffffffffffffffffffffffffffffffffffffffffffffe2b40000000000000000000000000000000000000000000008d5555cda23fda1cf6a90000000000000000000000000000000000000000000000000000000000062a51",
          "blockHash": "0x889511666effdb50effd14c61ed54a4119b9e2d5c89d772178010b6c6a74af3e",
          "blockNumber": "0x2359752",
          "blockTimestamp": "0x68f58b87",
          "transactionHash": "0x1f87ce7003f88fd58b5aa2d403025657471d00854bfb705fa388a4dcd2ef79d5",
          "transactionIndex": "0xf3",
          "logIndex": "0x388",
          "removed": false
        },
        {
          "address": "0x23914832abe687ab31f3c0f635b196802d37070f",
          "topics": [
            "0xddf252ad1be2c89b69c2b068fc378daa952ba7f163c4a11628f55a4df523b3ef",
            "0x0000000000000000000000002226ae701ecf96e27373e896f3ddbe8a9a676a30",
            "0x000000000000000000000000498581ff718922c3f8e6a244956af099b2652b2b"
          ],
          "data": "0x0000000000000000000000000000000000000000204fce5e3e2502610f29c892",
          "blockHash": "0x889511666effdb50effd14c61ed54a4119b9e2d5c89d772178010b6c6a74af3e",
          "blockNumber": "0x2359752",
          "blockTimestamp": "0x68f58b87",
          "transactionHash": "0x1f87ce7003f88fd58b5aa2d403025657471d00854bfb705fa388a4dcd2ef79d5",
          "transactionIndex": "0xf3",
          "logIndex": "0x389",
          "removed": false
        }
      ],
      "logsBloom": "0x002000000000000000020000000000000080000000000000000000100000000000200000000000000000000000000000000000100000000000020000000020000000400000000000000000080000000200000000000000000000000000001000000000000200000000000000000008000480008000000000000000100000000002004000010040000000000020000000000000000000000000000004000008000040040000000000080000000000000000000000000000000000000000000002000200020000010140000000000000000008010000000000000000000000a0000000000000000000000000000040000004080400002000000000000000080000",
      "type": "0x2",
      "transactionHash": "0x1f87ce7003f88fd58b5aa2d403025657471d00854bfb705fa388a4dcd2ef79d5",
      "transactionIndex": "0xf3",
      "blockHash": "0x889511666effdb50effd14c61ed54a4119b9e2d5c89d772178010b6c6a74af3e",
      "blockNumber": "0x2359752",
      "gasUsed": "0xd9b14",
      "effectiveGasPrice": "0x1f188e",
      "from": "0x2226ae701ecf96e27373e896f3ddbe8a9a676a30",
      "to": "0x7c5f5a4bbd8fd63184577525326123b519429bdc",
      "contractAddress": null,
      "l1BaseFeeScalar": "0x8dd",
      "l1BlobBaseFee": "0x1",
      "l1BlobBaseFeeScalar": "0x101c12",
      "l1Fee": "0x7a2f8f76",
      "l1GasPrice": "0x776a325",
      "l1GasUsed": "0x1c2f"
    }
  ],
  "libraries": [],
  "pending": [],
  "returns": {},
  "timestamp": 1760922504,
  "chain": 8453,
  "commit": "65077fa"
}