{
  "transactions": [
    {
      "hash": "0xb00c77da19bfa894d1488528d7935ac0351747dd237f8e4bc1b8f149884452b0",
      "transactionType": "CALL",
      "contractName": null,
      "contractAddress": "0x498581ff718922c3f8e6a244956af099b2652b2b",
      "function": "initialize((address,address,uint24,int24,address),uint160)",
      "arguments": [
        "(0xBe36B7004E8Ea37d5CA5083032969b16aEeb7683, 0xebd3517A1Cb8F89E927aF853b5BBcaD1c2699EE8, 3000, 200, 0xE8382006309787EbF11866DA2Ad4cADB695e00C8)",
        "787149618249685149291181"
      ],
      "transaction": {
        "from": "0x2226ae701ecf96e27373e896f3ddbe8a9a676a30",
        "to": "0x498581ff718922c3f8e6a244956af099b2652b2b",
        "gas": "0x128d8",
        "value": "0x0",
        "input": "0x6276cbbe000000000000000000000000be36b7004e8ea37d5ca5083032969b16aeeb7683000000000000000000000000ebd3517a1cb8f89e927af853b5bbcad1c2699ee80000000000000000000000000000000000000000000000000000000000000bb800000000000000000000000000000000000000000000000000000000000000c8000000000000000000000000e8382006309787ebf11866da2ad4cadb695e00c800000000000000000000000000000000000000000000a6af776004abf4e612ad",
        "nonce": "0xd",
        "chainId": "0x2105"
      },
      "additionalContracts": [],
      "isFixedGasLimit": false
    },
    {
      "hash": "0x1c7e78180779300379f25e8417a892b022c227df031961ca141b43da3e788299",
      "transactionType": "CALL",
      "contractName": null,
      "contractAddress": "0xbe36b7004e8ea37d5ca5083032969b16aeeb7683",
      "function": "approve(address,uint256)",
      "arguments": [
        "0x000000000022D473030F116dDEE9F6B43aC78BA3",
        "10000000000000000000000000000"
      ],
      "transaction": {
        "from": "0x2226ae701ecf96e27373e896f3ddbe8a9a676a30",
        "to": "0xbe36b7004e8ea37d5ca5083032969b16aeeb7683",
        "gas": "0xfbe5",
        "value": "0x0",
        "input": "0x095ea7b3000000000000000000000000000000000022d473030f116ddee9f6b43ac78ba30000000000000000000000000000000000000000204fce5e3e25026110000000",
        "nonce": "0xe",
        "chainId": "0x2105"
      },
      "additionalContracts": [],
      "isFixedGasLimit": false
    },
    {
      "hash": "0x39b3410a665c6a3b4d070aa0a8b6efd1892599bbf10f9e91b5fc4cbaa81367c6",
      "transactionType": "CALL",
      "contractName": null,
      "contractAddress": "0x000000000022d473030f116ddee9f6b43ac78ba3",
      "function": "approve(address,address,uint160,uint48)",
      "arguments": [
        "0xBe36B7004E8Ea37d5CA5083032969b16aEeb7683",
        "0x7C5f5A4bBd8fD63184577525326123B519429bDc",
        "10000000000000000000000000000",
        "1792274203"
      ],
      "transaction": {
        "from": "0x2226ae701ecf96e27373e896f3ddbe8a9a676a30",
        "to": "0x000000000022d473030f116ddee9f6b43ac78ba3",
        "gas": "0x11037",
        "value": "0x0",
        "input": "0x87517c45000000000000000000000000be36b7004e8ea37d5ca5083032969b16aeeb76830000000000000000000000007c5f5a4bbd8fd63184577525326123b519429bdc0000000000000000000000000000000000000000204fce5e3e25026110000000000000000000000000000000000000000000000000000000000000006ad3ef1b",
        "nonce": "0xf",
        "chainId": "0x2105"
      },
      "additionalContracts": [],
      "isFixedGasLimit": false
    },
    {
      "hash": "0x54bb6722e9873d27a02b924df28260cc28579936d5f6cf679523092283df5b1e",
      "transactionType": "CALL",
      "contractName": "PositionManager",
      "contractAddress": "0x7c5f5a4bbd8fd63184577525326123b519429bdc",
      "function": "modifyLiquidities(bytes,uint256)",
      "arguments": [
        "0x00000000000000000000000000000000000000000000000000000000000000400000000000000000000000000000000000000000000000000000000000000080000000000000000000000000000000000000000000000000000000000000000602020202020d0000000000000000000000000000000000000000000000000000000000000000000000000000000000000000000000000000000000000000000600000000000000000000000000000000000000000000000000000000000000c000000000000000000000000000000000000000000000000000000000000002c000000000000000000000000000000000000000000000000000000000000004c000000000000000000000000000000000000000000000000000000000000006c000000000000000000000000000000000000000000000000000000000000008c00000000000000000000000000000000000000000000000000000000000000ac000000000000000000000000000000000000000000000000000000000000001e0000000000000000000000000be36b7004e8ea37d5ca5083032969b16aeeb7683000000000000000000000000ebd3517a1cb8f89e927af853b5bbcad1c2699ee80000000000000000000000000000000000000000000000000000000000000bb800000000000000000000000000000000000000000000000000000000000000c8000000000000000000000000e8382006309787ebf11866da2ad4cadb695e00c8fffffffffffffffffffffffffffffffffffffffffffffffffffffffffffc7c00fffffffffffffffffffffffffffffffffffffffffffffffffffffffffffcbc100000000000000000000000000000000000000000000003c28a47f596c70838ea0000000000000000000000000000000000000000033b2e3c9fd0803ce800000000000000000000000000000000000000000000000000000000000000000000000000000000000000000000002226ae701ecf96e27373e896f3ddbe8a9a676a30000000000000000000000000000000000000000000000000000000000000018000000000000000000000000000000000000000000000000000000000000000400000000000000000000000000000000000000000000000000000000000000020000000000000000000000000000000000000000000000000000000000000000000000000000000000000000000000000000000000000000000000000000001e0000000000000000000000000be36b7004e8ea37d5ca5083032969b16aeeb7683000000000000000000000000ebd3517a1cb8f89e927af853b5bbcad1c2699ee80000000000000000000000000000000000000000000000000000000000000bb800000000000000000000000000000000000000000000000000000000000000c8000000000000000000000000e8382006309787ebf11866da2ad4cadb695e00c8fffffffffffffffffffffffffffffffffffffffffffffffffffffffffffcbc10fffffffffffffffffffffffffffffffffffffffffffffffffffffffffffda288000000000000000000000000000000000000000000001933d2f0fcc3c4a81d9b00000000000000000000000000000000000000001027e72f1f1281308800000000000000000000000000000000000000000000000000000000000000000000000000000000000000000000002226ae701ecf96e27373e896f3ddbe8a9a676a30000000000000000000000000000000000000000000000000000000000000018000000000000000000000000000000000000000000000000000000000000000400000000000000000000000000000000000000000000000000000000000000020000000000000000000000000000000000000000000000000000000000000000000000000000000000000000000000000000000000000000000000000000001e0000000000000000000000000be36b7004e8ea37d5ca5083032969b16aeeb7683000000000000000000000000ebd3517a1cb8f89e927af853b5bbcad1c2699ee80000000000000000000000000000000000000000000000000000000000000bb800000000000000000000000000000000000000000000000000000000000000c8000000000000000000000000e8382006309787ebf11866da2ad4cadb695e00c8fffffffffffffffffffffffffffffffffffffffffffffffffffffffffffceaf0fffffffffffffffffffffffffffffffffffffffffffffffffffffffffffda288000000000000000000000000000000000000000000000e6e74e16047e486ad9c000000000000000000000000000000000000000004d8c55aefb8c05b5c00000000000000000000000000000000000000000000000000000000000000000000000000000000000000000000002226ae701ecf96e27373e896f3ddbe8a9a676a30000000000000000000000000000000000000000000000000000000000000018000000000000000000000000000000000000000000000000000000000000000400000000000000000000000000000000000000000000000000000000000000020000000000000000000000000000000000000000000000000000000000000000000000000000000000000000000000000000000000000000000000000000001e0000000000000000000000000be36b7004e8ea37d5ca5083032969b16aeeb7683000000000000000000000000ebd3517a1cb8f89e927af853b5bbcad1c2699ee80000000000000000000000000000000000000000000000000000000000000bb800000000000000000000000000000000000000000000000000000000000000c8000000000000000000000000e8382006309787ebf11866da2ad4cadb695e00c8fffffffffffffffffffffffffffffffffffffffffffffffffffffffffffda288fffffffffffffffffffffffffffffffffffffffffffffffffffffffffffe2b4000000000000000000000000000000000000000000000dce275bfe1ba5750554b000000000000000000000000000000000000000006765c793fa10079d000000000000000000000000000000000000000000000000000000000000000000000000000000000000000000000002226ae701ecf96e27373e896f3ddbe8a9a676a30000000000000000000000000000000000000000000000000000000000000018000000000000000000000000000000000000000000000000000000000000000400000000000000000000000000000000000000000000000000000000000000020000000000000000000000000000000000000000000000000000000000000000000000000000000000000000000000000000000000000000000000000000001e0000000000000000000000000be36b7004e8ea37d5ca5083032969b16aeeb7683000000000000000000000000ebd3517a1cb8f89e927af853b5bbcad1c2699ee80000000000000000000000000000000000000000000000000000000000000bb800000000000000000000000000000000000000000000000000000000000000c8000000000000000000000000e8382006309787ebf11866da2ad4cadb695e00c8fffffffffffffffffffffffffffffffffffffffffffffffffffffffffffdd938fffffffffffffffffffffffffffffffffffffffffffffffffffffffffffe2b40000000000000000000000000000000000000000000008d5555cda23fda1cf6a90000000000000000000000000000000000000000019d971e4fe8401e7400000000000000000000000000000000000000000000000000000000000000000000000000000000000000000000002226ae701ecf96e27373e896f3ddbe8a9a676a3000000000000000000000000000000000000000000000000000000000000001800000000000000000000000000000000000000000000000000000000000000040000000000000000000000000000000000000000000000000000000000000002000000000000000000000000000000000000000000000000000000000000000000000000000000000000000000000000000000000000000000000000000000040000000000000000000000000be36b7004e8ea37d5ca5083032969b16aeeb7683000000000000000000000000ebd3517a1cb8f89e927af853b5bbcad1c2699ee8",
        "1792274203"
      ],
      "transaction": {
        "from": "0x2226ae701ecf96e27373e896f3ddbe8a9a676a30",
        "to": "0x7c5f5a4bbd8fd63184577525326123b519429bdc",
        "gas": "0x12cb42",
        "value": "0x0",
        "input": "0xdd46508f0000000000000000000000000000000000000000000000000000000000000040000000000000000000000000000000000000000000000000000000006ad3ef1b0000000000000000000000000000000000000000000000000000000000000bc000000000000000000000000000000000000000000000000000000000000000400000000000000000000000000000000000000000000000000000000000000080000000000000000000000000000000000000000000000000000000000000000602020202020d0000000000000000000000000000000000000000000000000000000000000000000000000000000000000000000000000000000000000000000600000000000000000000000000000000000000000000000000000000000000c000000000000000000000000000000000000000000000000000000000000002c000000000000000000000000000000000000000000000000000000000000004c000000000000000000000000000000000000000000000000000000000000006c000000000000000000000000000000000000000000000000000000000000008c00000000000000000000000000000000000000000000000000000000000000ac000000000000000000000000000000000000000000000000000000000000001e0000000000000000000000000be36b7004e8ea37d5ca5083032969b16aeeb7683000000000000000000000000ebd3517a1cb8f89e927af853b5bbcad1c2699ee80000000000000000000000000000000000000000000000000000000000000bb800000000000000000000000000000000000000000000000000000000000000c8000000000000000000000000e8382006309787ebf11866da2ad4cadb695e00c8fffffffffffffffffffffffffffffffffffffffffffffffffffffffffffc7c00fffffffffffffffffffffffffffffffffffffffffffffffffffffffffffcbc100000000000000000000000000000000000000000000003c28a47f596c70838ea0000000000000000000000000000000000000000033b2e3c9fd0803ce800000000000000000000000000000000000000000000000000000000000000000000000000000000000000000000002226ae701ecf96e27373e896f3ddbe8a9a676a30000000000000000000000000000000000000000000000000000000000000018000000000000000000000000000000000000000000000000000000000000000400000000000000000000000000000000000000000000000000000000000000020000000000000000000000000000000000000000000000000000000000000000000000000000000000000000000000000000000000000000000000000000001e0000000000000000000000000be36b7004e8ea37d5ca5083032969b16aeeb7683000000000000000000000000ebd3517a1cb8f89e927af853b5bbcad1c2699ee80000000000000000000000000000000000000000000000000000000000000bb800000000000000000000000000000000000000000000000000000000000000c8000000000000000000000000e8382006309787ebf11866da2ad4cadb695e00c8fffffffffffffffffffffffffffffffffffffffffffffffffffffffffffcbc10fffffffffffffffffffffffffffffffffffffffffffffffffffffffffffda288000000000000000000000000000000000000000000001933d2f0fcc3c4a81d9b00000000000000000000000000000000000000001027e72f1f1281308800000000000000000000000000000000000000000000000000000000000000000000000000000000000000000000002226ae701ecf96e27373e896f3ddbe8a9a676a30000000000000000000000000000000000000000000000000000000000000018000000000000000000000000000000000000000000000000000000000000000400000000000000000000000000000000000000000000000000000000000000020000000000000000000000000000000000000000000000000000000000000000000000000000000000000000000000000000000000000000000000000000001e0000000000000000000000000be36b7004e8ea37d5ca5083032969b16aeeb7683000000000000000000000000ebd3517a1cb8f89e927af853b5bbcad1c2699ee80000000000000000000000000000000000000000000000000000000000000bb800000000000000000000000000000000000000000000000000000000000000c8000000000000000000000000e8382006309787ebf11866da2ad4cadb695e00c8fffffffffffffffffffffffffffffffffffffffffffffffffffffffffffceaf0fffffffffffffffffffffffffffffffffffffffffffffffffffffffffffda288000000000000000000000000000000000000000000000e6e74e16047e486ad9c000000000000000000000000000000000000000004d8c55aefb8c05b5c00000000000000000000000000000000000000000000000000000000000000000000000000000000000000000000002226ae701ecf96e27373e896f3ddbe8a9a676a30000000000000000000000000000000000000000000000000000000000000018000000000000000000000000000000000000000000000000000000000000000400000000000000000000000000000000000000000000000000000000000000020000000000000000000000000000000000000000000000000000000000000000000000000000000000000000000000000000000000000000000000000000001e0000000000000000000000000be36b7004e8ea37d5ca5083032969b16aeeb7683000000000000000000000000ebd3517a1cb8f89e927af853b5bbcad1c2699ee80000000000000000000000000000000000000000000000000000000000000bb800000000000000000000000000000000000000000000000000000000000000c8000000000000000000000000e8382006309787ebf11866da2ad4cadb695e00c8fffffffffffffffffffffffffffffffffffffffffffffffffffffffffffda288fffffffffffffffffffffffffffffffffffffffffffffffffffffffffffe2b4000000000000000000000000000000000000000000000dce275bfe1ba5750554b000000000000000000000000000000000000000006765c793fa10079d000000000000000000000000000000000000000000000000000000000000000000000000000000000000000000000002226ae701ecf96e27373e896f3ddbe8a9a676a30000000000000000000000000000000000000000000000000000000000000018000000000000000000000000000000000000000000000000000000000000000400000000000000000000000000000000000000000000000000000000000000020000000000000000000000000000000000000000000000000000000000000000000000000000000000000000000000000000000000000000000000000000001e0000000000000000000000000be36b7004e8ea37d5ca5083032969b16aeeb7683000000000000000000000000ebd3517a1cb8f89e927af853b5bbcad1c2699ee80000000000000000000000000000000000000000000000000000000000000bb800000000000000000000000000000000000000000000000000000000000000c8000000000000000000000000e8382006309787ebf11866da2ad4cadb695e00c8fffffffffffffffffffffffffffffffffffffffffffffffffffffffffffdd938fffffffffffffffffffffffffffffffffffffffffffffffffffffffffffe2b40000000000000000000000000000000000000000000008d5555cda23fda1cf6a90000000000000000000000000000000000000000019d971e4fe8401e7400000000000000000000000000000000000000000000000000000000000000000000000000000000000000000000002226ae701ecf96e27373e896f3ddbe8a9a676a3000000000000000000000000000000000000000000000000000000000000001800000000000000000000000000000000000000000000000000000000000000040000000000000000000000000000000000000000000000000000000000000002000000000000000000000000000000000000000000000000000000000000000000000000000000000000000000000000000000000000000000000000000000040000000000000000000000000be36b7004e8ea37d5ca5083032969b16aeeb7683000000000000000000000000ebd3517a1cb8f89e927af853b5bbcad1c2699ee8",
        "nonce": "0x10",
        "chainId": "0x2105"
      },
      "additionalContracts": [],
      "isFixedGasLimit": false
    }
  ],
  "receipts": [
    {
      "status": "0x1",
      "cumulativeGasUsed": "0x4b8273",
      "logs": [
        {
          "address": "0x498581ff718922c3f8e6a244956af099b2652b2b",
          "topics": [
            "0xdd466e674ea557f56295e2d0218a125ea4b4f0f6f3307b95f85e6110838d6438",
            "0xf97369def537b5ad8c4415a4e046b4324ad8ab3228c6e6f8088b18b410717ada",
            "0x000000000000000000000000be36b7004e8ea37d5ca5083032969b16aeeb7683",
            "0x000000000000000000000000ebd3517a1cb8f89e927af853b5bbcad1c2699ee8"
          ],
          "data": "0x0000000000000000000000000000000000000000000000000000000000000bb800000000000000000000000000000000000000000000000000000000000000c8000000000000000000000000e8382006309787ebf11866da2ad4cadb695e00c800000000000000000000000000000000000000000000a6af776004abf4e612adfffffffffffffffffffffffffffffffffffffffffffffffffffffffffffc7c00",
          "blockHash": "0xd345eda08baad78c84a8b8914e1dc81d22cf2bd39e549e749493481a7b0405db",
          "blockNumber": "0x2342f61",
          "blockTimestamp": "0x68f2bba5",
          "transactionHash": "0xb00c77da19bfa894d1488528d7935ac0351747dd237f8e4bc1b8f149884452b0",
          "transactionIndex": "0x1b",
          "logIndex": "0x5c",
          "removed": false
        }
      ],
      "logsBloom": "0x00000000000000000000000000000000000100000000000000000000000000000000000000000000000000000000000000000000000000000000000000000000000000080000000000000000000000000000000000000000000000000000000001000000000000000000000000000000000000000000000000008000000000000008000000004008000020000000000000000001001000000000000000200000000000000000100000000000000000004000000000000000000000000000000000000000000000000000000000000000000800000000000000000000000000000000000000000000000000000000000000000400000000000000000000000000",
      "type": "0x2",
      "transactionHash": "0xb00c77da19bfa894d1488528d7935ac0351747dd237f8e4bc1b8f149884452b0",
      "transactionIndex": "0x1b",
      "blockHash": "0xd345eda08baad78c84a8b8914e1dc81d22cf2bd39e549e749493481a7b0405db",
      "blockNumber": "0x2342f61",
      "gasUsed": "0xcaf9",
      "effectiveGasPrice": "0x3d27ba",
      "from": "0x2226ae701ecf96e27373e896f3ddbe8a9a676a30",
      "to": "0x498581ff718922c3f8e6a244956af099b2652b2b",
      "contractAddress": null,
      "l1BaseFeeScalar": "0x8dd",
      "l1BlobBaseFee": "0x1",
      "l1BlobBaseFeeScalar": "0x101c12",
      "l1Fee": "0x457f2cb2",
      "l1GasPrice": "0xd252e71",
      "l1GasUsed": "0x91a"
    },
    {
      "status": "0x1",
      "cumulativeGasUsed": "0x4c38d2",
      "logs": [
        {
          "address": "0xbe36b7004e8ea37d5ca5083032969b16aeeb7683",
          "topics": [
            "0x8c5be1e5ebec7d5bd14f71427d1e84f3dd0314c0f7b2291e5b200ac8c7c3b925",
            "0x0000000000000000000000002226ae701ecf96e27373e896f3ddbe8a9a676a30",
            "0x000000000000000000000000000000000022d473030f116ddee9f6b43ac78ba3"
          ],
          "data": "0x0000000000000000000000000000000000000000204fce5e3e25026110000000",
          "blockHash": "0xd345eda08baad78c84a8b8914e1dc81d22cf2bd39e549e749493481a7b0405db",
          "blockNumber": "0x2342f61",
          "blockTimestamp": "0x68f2bba5",
          "transactionHash": "0x1c7e78180779300379f25e8417a892b022c227df031961ca141b43da3e788299",
          "transactionIndex": "0x1c",
          "logIndex": "0x5d",
          "removed": false
        }
      ],
      "logsBloom": "0x00000000000000000000000000000000000000000000000000000010000000000000000000000000000000000000000001000010800000000000000000200000000000000000000000004000000000000000000000000800000000000000080000000000000000000000000000000000000000000000000000000000000000000000000000000000000000002000000000000000000000000000000000000000020000000000000000000000000000000000000000000000000000000000000000000000000000000000000000000000000000000000000000000000000000000010000000000000000000000000000000000000000000000000000000000000",
      "type": "0x2",
      "transactionHash": "0x1c7e78180779300379f25e8417a892b022c227df031961ca141b43da3e788299",
      "transactionIndex": "0x1c",
      "blockHash": "0xd345eda08baad78c84a8b8914e1dc81d22cf2bd39e549e749493481a7b0405db",
      "blockNumber": "0x2342f61",
      "gasUsed": "0xb65f",
      "effectiveGasPrice": "0x3d27ba",
      "from": "0x2226ae701ecf96e27373e896f3ddbe8a9a676a30",
      "to": "0xbe36b7004e8ea37d5ca5083032969b16aeeb7683",
      "contractAddress": null,
      "l1BaseFeeScalar": "0x8dd",
      "l1BlobBaseFee": "0x1",
      "l1BlobBaseFeeScalar": "0x101c12",
      "l1Fee": "0x2fb8f4ca",
      "l1GasPrice": "0xd252e71",
      "l1GasUsed": "0x640"
    },
    {
      "status": "0x1",
      "cumulativeGasUsed": "0x4cf2f4",
      "logs": [
        {
          "address": "0x000000000022d473030f116ddee9f6b43ac78ba3",
          "topics": [
            "0xda9fa7c1b00402c17d0161b249b1ab8bbec047c5a52207b9c112deffd817036b",
            "0x0000000000000000000000002226ae701ecf96e27373e896f3ddbe8a9a676a30",
            "0x000000000000000000000000be36b7004e8ea37d5ca5083032969b16aeeb7683",
            "0x0000000000000000000000007c5f5a4bbd8fd63184577525326123b519429bdc"
          ],
          "data": "0x0000000000000000000000000000000000000000204fce5e3e25026110000000000000000000000000000000000000000000000000000000000000006ad3ef1b",
          "blockHash": "0xd345eda08baad78c84a8b8914e1dc81d22cf2bd39e549e749493481a7b0405db",
          "blockNumber": "0x2342f61",
          "blockTimestamp": "0x68f2bba5",
          "transactionHash": "0x39b3410a665c6a3b4d070aa0a8b6efd1892599bbf10f9e91b5fc4cbaa81367c6",
          "transactionIndex": "0x1d",
          "logIndex": "0x5e",
          "removed": false
        }
      ],
      "logsBloom": "0x00010000000000000000000000000000000000000000000000000010000000000000000000000000000000000000000000000010000000000000000000082000000000080000000000000000000000000000000000000000000000000000000001000000000000000000000000000000000000000000000000008000000000000020000000000000000000002000000000000000000000000000000000000000000000000000000000000000000000000000000000000000000000080000000200000000000000000000000000000000000000000000000040000000000000000000000000000000000000000000000000000000002000000000000000000400",
      "type": "0x2",
      "transactionHash": "0x39b3410a665c6a3b4d070aa0a8b6efd1892599bbf10f9e91b5fc4cbaa81367c6",
      "transactionIndex": "0x1d",
      "blockHash": "0xd345eda08baad78c84a8b8914e1dc81d22cf2bd39e549e749493481a7b0405db",
      "blockNumber": "0x2342f61",
      "gasUsed": "0xba22",
      "effectiveGasPrice": "0x3d27ba",
      "from": "0x2226ae701ecf96e27373e896f3ddbe8a9a676a30",
      "to": "0x000000000022d473030f116ddee9f6b43ac78ba3",
      "contractAddress": null,
      "l1BaseFeeScalar": "0x8dd",
      "l1BlobBaseFee": "0x1",
      "l1BlobBaseFeeScalar": "0x101c12",
      "l1Fee": "0x38b8f094",
      "l1GasPrice": "0xd252e71",
      "l1GasUsed": "0x76d"
    },
    {
      "status": "0x1",
      "cumulativeGasUsed": "0x5a8e38",
      "logs": [
        {
          "address": "0x7c5f5a4bbd8fd63184577525326123b519429bdc",
          "topics": [
            "0xddf252ad1be2c89b69c2b068fc378daa952ba7f163c4a11628f55a4df523b3ef",
            "0x0000000000000000000000000000000000000000000000000000000000000000",
            "0x0000000000000000000000002226ae701ecf96e27373e896f3ddbe8a9a676a30",
            "0x0000000000000000000000000000000000000000000000000000000000061384"
          ],
          "data": "0x",
          "blockHash": "0xd345eda08baad78c84a8b8914e1dc81d22cf2bd39e549e749493481a7b0405db",
          "blockNumber": "0x2342f61",
          "blockTimestamp": "0x68f2bba5",
          "transactionHash": "0x54bb6722e9873d27a02b924df28260cc28579936d5f6cf679523092283df5b1e",
          "transactionIndex": "0x1e",
          "logIndex": "0x5f",
          "removed": false
        },
        {
          "address": "0x498581ff718922c3f8e6a244956af099b2652b2b",
          "topics": [
            "0xf208f4912782fd25c7f114ca3723a2d5dd6f3bcc3ac8db5af63baa85f711d5ec",
            "0xf97369def537b5ad8c4415a4e046b4324ad8ab3228c6e6f8088b18b410717ada",
            "0x0000000000000000000000007c5f5a4bbd8fd63184577525326123b519429bdc"
          ],
          "data": "0xfffffffffffffffffffffffffffffffffffffffffffffffffffffffffffc7c00fffffffffffffffffffffffffffffffffffffffffffffffffffffffffffcbc100000000000000000000000000000000000000000000003c28a47f596c70838ea0000000000000000000000000000000000000000000000000000000000061384",
          "blockHash": "0xd345eda08baad78c84a8b8914e1dc81d22cf2bd39e549e749493481a7b0405db",
          "blockNumber": "0x2342f61",
          "blockTimestamp": "0x68f2bba5",
          "transactionHash": "0x54bb6722e9873d27a02b924df28260cc28579936d5f6cf679523092283df5b1e",
          "transactionIndex": "0x1e",
          "logIndex": "0x60",
          "removed": false
        },
        {
          "address": "0x7c5f5a4bbd8fd63184577525326123b519429bdc",
          "topics": [
            "0xddf252ad1be2c89b69c2b068fc378daa952ba7f163c4a11628f55a4df523b3ef",
            "0x0000000000000000000000000000000000000000000000000000000000000000",
            "0x0000000000000000000000002226ae701ecf96e27373e896f3ddbe8a9a676a30",
            "0x0000000000000000000000000000000000000000000000000000000000061385"
          ],
          "data": "0x",
          "blockHash": "0xd345eda08baad78c84a8b8914e1dc81d22cf2bd39e549e749493481a7b0405db",
          "blockNumber": "0x2342f61",
          "blockTimestamp": "0x68f2bba5",
          "transactionHash": "0x54bb6722e9873d27a02b924df28260cc28579936d5f6cf679523092283df5b1e",
          "transactionIndex": "0x1e",
          "logIndex": "0x61",
          "removed": false
        },
        {
          "address": "0x498581ff718922c3f8e6a244956af099b2652b2b",
          "topics": [
            "0xf208f4912782fd25c7f114ca3723a2d5dd6f3bcc3ac8db5af63baa85f711d5ec",
            "0xf97369def537b5ad8c4415a4e046b4324ad8ab3228c6e6f8088b18b410717ada",
            "0x0000000000000000000000007c5f5a4bbd8fd63184577525326123b519429bdc"
          ],
          "data": "0xfffffffffffffffffffffffffffffffffffffffffffffffffffffffffffcbc10fffffffffffffffffffffffffffffffffffffffffffffffffffffffffffda288000000000000000000000000000000000000000000001933d2f0fcc3c4a81d9b0000000000000000000000000000000000000000000000000000000000061385",
          "blockHash": "0xd345eda08baad78c84a8b8914e1dc81d22cf2bd39e549e749493481a7b0405db",
          "blockNumber": "0x2342f61",
          "blockTimestamp": "0x68f2bba5",
          "transactionHash": "0x54bb6722e9873d27a02b924df28260cc28579936d5f6cf679523092283df5b1e",
          "transactionIndex": "0x1e",
          "logIndex": "0x62",
          "removed": false
        },
        {
          "address": "0x7c5f5a4bbd8fd63184577525326123b519429bdc",
          "topics": [
            "0xddf252ad1be2c89b69c2b068fc378daa952ba7f163c4a11628f55a4df523b3ef",
            "0x0000000000000000000000000000000000000000000000000000000000000000",
            "0x0000000000000000000000002226ae701ecf96e27373e896f3ddbe8a9a676a30",
            "0x0000000000000000000000000000000000000000000000000000000000061386"
          ],
          "data": "0x",
          "blockHash": "0xd345eda08baad78c84a8b8914e1dc81d22cf2bd39e549e749493481a7b0405db",
          "blockNumber": "0x2342f61",
          "blockTimestamp": "0x68f2bba5",
          "transactionHash": "0x54bb6722e9873d27a02b924df28260cc28579936d5f6cf679523092283df5b1e",
          "transactionIndex": "0x1e",
          "logIndex": "0x63",
          "removed": false
        },
        {
          "address": "0x498581ff718922c3f8e6a244956af099b2652b2b",
          "topics": [
            "0xf208f4912782fd25c7f114ca3723a2d5dd6f3bcc3ac8db5af63baa85f711d5ec",
            "0xf97369def537b5ad8c4415a4e046b4324ad8ab3228c6e6f8088b18b410717ada",
            "0x0000000000000000000000007c5f5a4bbd8fd63184577525326123b519429bdc"
          ],
          "data": "0xfffffffffffffffffffffffffffffffffffffffffffffffffffffffffffceaf0fffffffffffffffffffffffffffffffffffffffffffffffffffffffffffda288000000000000000000000000000000000000000000000e6e74e16047e486ad9c0000000000000000000000000000000000000000000000000000000000061386",
          "blockHash": "0xd345eda08baad78c84a8b8914e1dc81d22cf2bd39e549e749493481a7b0405db",
          "blockNumber": "0x2342f61",
          "blockTimestamp": "0x68f2bba5",
          "transactionHash": "0x54bb6722e9873d27a02b924df28260cc28579936d5f6cf679523092283df5b1e",
          "transactionIndex": "0x1e",
          "logIndex": "0x64",
          "removed": false
        },
        {
          "address": "0x7c5f5a4bbd8fd63184577525326123b519429bdc",
          "topics": [
            "0xddf252ad1be2c89b69c2b068fc378daa952ba7f163c4a11628f55a4df523b3ef",
            "0x0000000000000000000000000000000000000000000000000000000000000000",
            "0x0000000000000000000000002226ae701ecf96e27373e896f3ddbe8a9a676a30",
            "0x0000000000000000000000000000000000000000000000000000000000061387"
          ],
          "data": "0x",
          "blockHash": "0xd345eda08baad78c84a8b8914e1dc81d22cf2bd39e549e749493481a7b0405db",
          "blockNumber": "0x2342f61",
          "blockTimestamp": "0x68f2bba5",
          "transactionHash": "0x54bb6722e9873d27a02b924df28260cc28579936d5f6cf679523092283df5b1e",
          "transactionIndex": "0x1e",
          "logIndex": "0x65",
          "removed": false
        },
        {
          "address": "0x498581ff718922c3f8e6a244956af099b2652b2b",
          "topics": [
            "0xf208f4912782fd25c7f114ca3723a2d5dd6f3bcc3ac8db5af63baa85f711d5ec",
            "0xf97369def537b5ad8c4415a4e046b4324ad8ab3228c6e6f8088b18b410717ada",
            "0x0000000000000000000000007c5f5a4bbd8fd63184577525326123b519429bdc"
          ],
          "data": "0xfffffffffffffffffffffffffffffffffffffffffffffffffffffffffffda288fffffffffffffffffffffffffffffffffffffffffffffffffffffffffffe2b4000000000000000000000000000000000000000000000dce275bfe1ba5750554b0000000000000000000000000000000000000000000000000000000000061387",
          "blockHash": "0xd345eda08baad78c84a8b8914e1dc81d22cf2bd39e549e749493481a7b0405db",
          "blockNumber": "0x2342f61",
          "blockTimestamp": "0x68f2bba5",
          "transactionHash": "0x54bb6722e9873d27a02b924df28260cc28579936d5f6cf679523092283df5b1e",
          "transactionIndex": "0x1e",
          "logIndex": "0x66",
          "removed": false
        },
        {
          "address": "0x7c5f5a4bbd8fd63184577525326123b519429bdc",
          "topics": [
            "0xddf252ad1be2c89b69c2b068fc378daa952ba7f163c4a11628f55a4df523b3ef",
            "0x0000000000000000000000000000000000000000000000000000000000000000",
            "0x0000000000000000000000002226ae701ecf96e27373e896f3ddbe8a9a676a30",
            "0x0000000000000000000000000000000000000000000000000000000000061388"
          ],
          "data": "0x",
          "blockHash": "0xd345eda08baad78c84a8b8914e1dc81d22cf2bd39e549e749493481a7b0405db",
          "blockNumber": "0x2342f61",
          "blockTimestamp": "0x68f2bba5",
          "transactionHash": "0x54bb6722e9873d27a02b924df28260cc28579936d5f6cf679523092283df5b1e",
          "transactionIndex": "0x1e",
          "logIndex": "0x67",
          "removed": false
        },
        {
          "address": "0x498581ff718922c3f8e6a244956af099b2652b2b",
          "topics": [
            "0xf208f4912782fd25c7f114ca3723a2d5dd6f3bcc3ac8db5af63baa85f711d5ec",
            "0xf97369def537b5ad8c4415a4e046b4324ad8ab3228c6e6f8088b18b410717ada",
            "0x0000000000000000000000007c5f5a4bbd8fd63184577525326123b519429bdc"
          ],
          "data": "0xfffffffffffffffffffffffffffffffffffffffffffffffffffffffffffdd938fffffffffffffffffffffffffffffffffffffffffffffffffffffffffffe2b40000000000000000000000000000000000000000000008d5555cda23fda1cf6a90000000000000000000000000000000000000000000000000000000000061388",
          "blockHash": "0xd345eda08baad78c84a8b8914e1dc81d22cf2bd39e549e749493481a7b0405db",
          "blockNumber": "0x2342f61",
          "blockTimestamp": "0x68f2bba5",
          "transactionHash": "0x54bb6722e9873d27a02b924df28260cc28579936d5f6cf679523092283df5b1e",
          "transactionIndex": "0x1e",
          "logIndex": "0x68",
          "removed": false
        },
        {
          "address": "0xbe36b7004e8ea37d5ca5083032969b16aeeb7683",
          "topics": [
            "0xddf252ad1be2c89b69c2b068fc378daa952ba7f163c4a11628f55a4df523b3ef",
            "0x0000000000000000000000002226ae701ecf96e27373e896f3ddbe8a9a676a30",
            "0x000000000000000000000000498581ff718922c3f8e6a244956af099b2652b2b"
          ],
          "data": "0x0000000000000000000000000000000000000000204fce5e3e2502610f29c892",
          "blockHash": "0xd345eda08baad78c84a8b8914e1dc81d22cf2bd39e549e749493481a7b0405db",
          "blockNumber": "0x2342f61",
          "blockTimestamp": "0x68f2bba5",
          "transactionHash": "0x54bb6722e9873d27a02b924df28260cc28579936d5f6cf679523092283df5b1e",
          "transactionIndex": "0x1e",
          "logIndex": "0x69",
          "removed": false
        }
      ],
      "logsBloom": "0x00000000000000000000000000000000000100000000000084000010000000000020000000000000000000000000000001000010800000000000000000002000000000000000000000100008000000000000000000000000000000000000080000000000820100000000020000000800040000000000000000000010000000000088000001004000000000002000000000000000001000000000000400000000004004000000000008000000000000000000000000000010000000000000000200000002000001001020000000000000000800000000000000000000000060080000000000000000000000000040000004000408022000000000000000000000",
      "type": "0x2",
      "transactionHash": "0x54bb6722e9873d27a02b924df28260cc28579936d5f6cf679523092283df5b1e",
      "transactionIndex": "0x1e",
      "blockHash": "0xd345eda08baad78c84a8b8914e1dc81d22cf2bd39e549e749493481a7b0405db",
      "blockNumber": "0x2342f61",
      "gasUsed": "0xd9b44",
      "effectiveGasPrice": "0x3d27ba",
      "from": "0x2226ae701ecf96e27373e896f3ddbe8a9a676a30",
      "to": "0x7c5f5a4bbd8fd63184577525326123b519429bdc",
      "contractAddress": null,
      "l1BaseFeeScalar": "0x8dd",
      "l1BlobBaseFee": "0x1",
      "l1BlobBaseFeeScalar": "0x101c12",
      "l1Fee": "0xdacc0b55",
      "l1GasPrice": "0xd252e71",
      "l1GasUsed": "0x1ca7"
    }
  ],
  "libraries": [],
  "pending": [],
  "returns": {},
  "timestamp": 1760738214,
  "chain": 8453,
  "commit": "65077fa"
}