{
  "transactions": [
    {
      "hash": "0x6c95d412f50db0fa94bbda98bafb3affa2bbc0e1735f59803c856ef2cf5c3b9a",
      "transactionType": "CALL",
      "contractName": "PoolSwapTest",
      "contractAddress": "0x9b6b46e2c869aa39918db7f52f5557fe577b6eee",
      "function": "swap((address,address,uint24,int24,address),(bool,int256,uint160),(bool,bool),bytes)",
      "arguments": [
        "(0x0000000000000000000000000000000000000000, 0xE6BBfB40bAFe0Ec62eB687d5681C920B5d15FD17, 3000, 60, 0x092B9388Eea97444999C5fc6606eFF3d4CC000C8)",
        "(true, -1000000000000000, 4295128740)",
        "(false, false)",
        "0x000000000000000000000000856d1b79c1556508773934a0d73defa55d6542e7"
      ],
      "transaction": {
        "from": "0x856d1b79c1556508773934a0d73defa55d6542e7",
        "to": "0x9b6b46e2c869aa39918db7f52f5557fe577b6eee",
        "gas": "0x4213c",
        "value": "0x38d7ea4c68000",
        "input": "0x2229d0b40000000000000000000000000000000000000000000000000000000000000000000000000000000000000000e6bbfb40bafe0ec62eb687d5681c920b5d15fd170000000000000000000000000000000000000000000000000000000000000bb8000000000000000000000000000000000000000000000000000000000000003c000000000000000000000000092b9388eea97444999c5fc6606eff3d4cc000c80000000000000000000000000000000000000000000000000000000000000001fffffffffffffffffffffffffffffffffffffffffffffffffffc72815b39800000000000000000000000000000000000000000000000000000000001000276a40000000000000000000000000000000000000000000000000000000000000000000000000000000000000000000000000000000000000000000000000000000000000000000000000000000000000000000000000000000000000000000001600000000000000000000000000000000000000000000000000000000000000020000000000000000000000000856d1b79c1556508773934a0d73defa55d6542e7",
        "nonce": "0x32",
        "chainId": "0xaa36a7"
      },
      "additionalContracts": [],
      "isFixedGasLimit": false
    }
  ],
  "receipts": [
    {
      "status": "0x1",
      "cumulativeGasUsed": "0x2cb9c3",
      "logs": [
        {
          "address": "0xe03a1074c86cfedd5c142c4f04f1a1536e203543",
          "topics": [
            "0x1b3d7edb2e9c0b0e7c525b20aaaef0f5940d2ed71663c7d39266ecafac728859",
            "0x0000000000000000000000000000000000000000000000000000000000000000",
            "0x000000000000000000000000092b9388eea97444999c5fc6606eff3d4cc000c8",
            "0x0000000000000000000000000000000000000000000000000000000000000000"
          ],
          "data": "0x000000000000000000000000092b9388eea97444999c5fc6606eff3d4cc000c800000000000000000000000000000000000000000000000000000002540be400",
          "blockHash": "0x09d08751a628f84385df358cd2c157d987695a51c1f7f07011c3e793375595ff",
          "blockNumber": "0x8b0c4d",
          "blockTimestamp": "0x68b5f144",
          "transactionHash": "0x6c95d412f50db0fa94bbda98bafb3affa2bbc0e1735f59803c856ef2cf5c3b9a",
          "transactionIndex": "0x2b",
          "logIndex": "0x2d",
          "removed": false
        },
        {
          "address": "0xe03a1074c86cfedd5c142c4f04f1a1536e203543",
          "topics": [
            "0x40e9cecb9f5f1f1c5b9c97dec2917b7ee92e57ba5563708daca94dd84ad7112f",
            "0x49f81da8238509a901511ac4da38954ba4d34d0182cfba62c470c7aeeb7295ba",
            "0x0000000000000000000000009b6b46e2c869aa39918db7f52f5557fe577b6eee"
          ],
          "data": "0xfffffffffffffffffffffffffffffffffffffffffffffffffffc7283af4564000000000000000000000000000000000000000000000000000000000036135d040000000000000000000000000000000000000000003b9d8a2172c19a9715332b000000000000000000000000000000000000000000000000000009191f7bf3befffffffffffffffffffffffffffffffffffffffffffffffffffffffffffddce80000000000000000000000000000000000000000000000000000000000000bb8",
          "blockHash": "0x09d08751a628f84385df358cd2c157d987695a51c1f7f07011c3e793375595ff",
          "blockNumber": "0x8b0c4d",
          "blockTimestamp": "0x68b5f144",
          "transactionHash": "0x6c95d412f50db0fa94bbda98bafb3affa2bbc0e1735f59803c856ef2cf5c3b9a",
          "transactionIndex": "0x2b",
          "logIndex": "0x2e",
          "removed": false
        },
        {
          "address": "0xe03a1074c86cfedd5c142c4f04f1a1536e203543",
          "topics": [
            "0x1b3d7edb2e9c0b0e7c525b20aaaef0f5940d2ed71663c7d39266ecafac728859",
            "0x000000000000000000000000092b9388eea97444999c5fc6606eff3d4cc000c8",
            "0x0000000000000000000000000000000000000000000000000000000000000000",
            "0x0000000000000000000000000000000000000000000000000000000000000000"
          ],
          "data": "0x000000000000000000000000092b9388eea97444999c5fc6606eff3d4cc000c800000000000000000000000000000000000000000000000000000002540be400",
          "blockHash": "0x09d08751a628f84385df358cd2c157d987695a51c1f7f07011c3e793375595ff",
          "blockNumber": "0x8b0c4d",
          "blockTimestamp": "0x68b5f144",
          "transactionHash": "0x6c95d412f50db0fa94bbda98bafb3affa2bbc0e1735f59803c856ef2cf5c3b9a",
          "transactionIndex": "0x2b",
          "logIndex": "0x2f",
          "removed": false
        },
        {
          "address": "0x092b9388eea97444999c5fc6606eff3d4cc000c8",
          "topics": [
            "0xf3ec80a8c5225f14af37794486af731cb6f65595d7b17e521a60ad3c94eeb593",
            "0x000000000000000000000000856d1b79c1556508773934a0d73defa55d6542e7",
            "0x49f81da8238509a901511ac4da38954ba4d34d0182cfba62c470c7aeeb7295ba",
            "0x0000000000000000000000000000000000000000000000000000000000000000"
          ],
          "data": "0x00000000000000000000000000000000000000000000000000000002540be400",
          "blockHash": "0x09d08751a628f84385df358cd2c157d987695a51c1f7f07011c3e793375595ff",
          "blockNumber": "0x8b0c4d",
          "blockTimestamp": "0x68b5f144",
          "transactionHash": "0x6c95d412f50db0fa94bbda98bafb3affa2bbc0e1735f59803c856ef2cf5c3b9a",
          "transactionIndex": "0x2b",
          "logIndex": "0x30",
          "removed": false
        },
        {
          "address": "0xe6bbfb40bafe0ec62eb687d5681c920b5d15fd17",
          "topics": [
            "0xddf252ad1be2c89b69c2b068fc378daa952ba7f163c4a11628f55a4df523b3ef",
            "0x000000000000000000000000e03a1074c86cfedd5c142c4f04f1a1536e203543",
            "0x000000000000000000000000856d1b79c1556508773934a0d73defa55d6542e7"
          ],
          "data": "0x0000000000000000000000000000000000000000000000000000000036135d04",
          "blockHash": "0x09d08751a628f84385df358cd2c157d987695a51c1f7f07011c3e793375595ff",
          "blockNumber": "0x8b0c4d",
          "blockTimestamp": "0x68b5f144",
          "transactionHash": "0x6c95d412f50db0fa94bbda98bafb3affa2bbc0e1735f59803c856ef2cf5c3b9a",
          "transactionIndex": "0x2b",
          "logIndex": "0x31",
          "removed": false
        }
      ],
      "logsBloom": "0x00000000000000004000000000000000000100000000000000000000000000000200000000000000800000000000002010000100040000000000000008000000000000000000000000000008000004000000000000000020000000000008000000000000020000000000000280000800010000000000108000000010000000000000000000000000000010000000000000010000000000000000000000000000000000100000000000000000000020000000000000000000000800000000000000000102000000000000010000008000000000000000000800001000000020001000000000000000044000000000000000000000000000000000000004001000",
      "type": "0x2",
      "transactionHash": "0x6c95d412f50db0fa94bbda98bafb3affa2bbc0e1735f59803c856ef2cf5c3b9a",
      "transactionIndex": "0x2b",
      "blockHash": "0x09d08751a628f84385df358cd2c157d987695a51c1f7f07011c3e793375595ff",
      "blockNumber": "0x8b0c4d",
      "gasUsed": "0x2fd6c",
      "effectiveGasPrice": "0x50e3e0",
      "from": "0x856d1b79c1556508773934a0d73defa55d6542e7",
      "to": "0x9b6b46e2c869aa39918db7f52f5557fe577b6eee",
      "contractAddress": null
    }
  ],
  "libraries": [],
  "pending": [],
  "returns": {},
  "timestamp": 1756754244,
  "chain": 11155111,
  "commit": "258e4d1"
}